{
	"uniswap.sol": {
		"UniSwap": {
			"abi": [
				{
					"inputs": [],
					"name": "getReserveTokens",
					"outputs": [
						{
							"internalType": "uint112",
							"name": "",
							"type": "uint112"
						},
						{
							"internalType": "uint112",
							"name": "",
							"type": "uint112"
						}
					],
					"stateMutability": "view",
					"type": "function"
				}
			],
			"devdoc": {
				"kind": "dev",
				"methods": {},
				"version": 1
			},
			"evm": {
				"assembly": "    /* \"uniswap.sol\":595:1179  contract UniSwap {... */\n  mstore(0x40, 0x80)\n    /* \"uniswap.sol\":644:686  0x5C69bEe701ef814a2B6a3EDD4B1652CB9cc5aA6f */\n  0x5c69bee701ef814a2b6a3edd4b1652cb9cc5aa6f\n    /* \"uniswap.sol\":618:686  address private factory = 0x5C69bEe701ef814a2B6a3EDD4B1652CB9cc5aA6f */\n  0x00\n  dup1\n  0x0100\n  exp\n  dup2\n  sload\n  dup2\n  0xffffffffffffffffffffffffffffffffffffffff\n  mul\n  not\n  and\n  swap1\n  dup4\n  0xffffffffffffffffffffffffffffffffffffffff\n  and\n  mul\n  or\n  swap1\n  sstore\n  pop\n    /* \"uniswap.sol\":720:762  0x6B175474E89094C44Da98b954EedeAC495271d0F */\n  0x6b175474e89094c44da98b954eedeac495271d0f\n    /* \"uniswap.sol\":692:762  address private dai_token = 0x6B175474E89094C44Da98b954EedeAC495271d0F */\n  0x01\n  exp(0x0100, 0x00)\n  dup2\n  sload\n  dup2\n  0xffffffffffffffffffffffffffffffffffffffff\n  mul\n  not\n  and\n  swap1\n  dup4\n  0xffffffffffffffffffffffffffffffffffffffff\n  and\n  mul\n  or\n  swap1\n  sstore\n  pop\n    /* \"uniswap.sol\":799:841  0xC02aaA39b223FE8D0A0e5C4F27eAD9083C756Cc2 */\n  0xc02aaa39b223fe8d0a0e5c4f27ead9083c756cc2\n    /* \"uniswap.sol\":768:841  address private wether_token = 0xC02aaA39b223FE8D0A0e5C4F27eAD9083C756Cc2 */\n  0x02\n  exp(0x0100, 0x00)\n  dup2\n  sload\n  dup2\n  0xffffffffffffffffffffffffffffffffffffffff\n  mul\n  not\n  and\n  swap1\n  dup4\n  0xffffffffffffffffffffffffffffffffffffffff\n  and\n  mul\n  or\n  swap1\n  sstore\n  pop\n    /* \"uniswap.sol\":595:1179  contract UniSwap {... */\n  callvalue\n  dup1\n  iszero\n  tag_1\n  jumpi\n  0x00\n  dup1\n  revert\ntag_1:\n  pop\n  dataSize(sub_0)\n  dup1\n  dataOffset(sub_0)\n  0x00\n  codecopy\n  0x00\n  return\nstop\n\nsub_0: assembly {\n        /* \"uniswap.sol\":595:1179  contract UniSwap {... */\n      mstore(0x40, 0x80)\n      callvalue\n      dup1\n      iszero\n      tag_1\n      jumpi\n      0x00\n      dup1\n      revert\n    tag_1:\n      pop\n      jumpi(tag_2, lt(calldatasize, 0x04))\n      shr(0xe0, calldataload(0x00))\n      dup1\n      0xd1f3ae1b\n      eq\n      tag_3\n      jumpi\n    tag_2:\n      0x00\n      dup1\n      revert\n        /* \"uniswap.sol\":848:1177  function getReserveTokens() external view returns (uint112, uint112) {... */\n    tag_3:\n      tag_4\n      tag_5\n      jump\t// in\n    tag_4:\n      mload(0x40)\n      tag_6\n      swap3\n      swap2\n      swap1\n      tag_7\n      jump\t// in\n    tag_6:\n      mload(0x40)\n      dup1\n      swap2\n      sub\n      swap1\n      return\n    tag_5:\n        /* \"uniswap.sol\":899:906  uint112 */\n      0x00\n        /* \"uniswap.sol\":908:915  uint112 */\n      dup1\n        /* \"uniswap.sol\":927:939  address pair */\n      0x00\n        /* \"uniswap.sol\":959:966  factory */\n      dup1\n      0x00\n      swap1\n      sload\n      swap1\n      0x0100\n      exp\n      swap1\n      div\n      0xffffffffffffffffffffffffffffffffffffffff\n      and\n        /* \"uniswap.sol\":942:975  UniswapV2Factory(factory).getPair */\n      0xffffffffffffffffffffffffffffffffffffffff\n      and\n      0xe6a43905\n        /* \"uniswap.sol\":989:998  dai_token */\n      0x01\n      0x00\n      swap1\n      sload\n      swap1\n      0x0100\n      exp\n      swap1\n      div\n      0xffffffffffffffffffffffffffffffffffffffff\n      and\n        /* \"uniswap.sol\":1012:1024  wether_token */\n      0x02\n      0x00\n      swap1\n      sload\n      swap1\n      0x0100\n      exp\n      swap1\n      div\n      0xffffffffffffffffffffffffffffffffffffffff\n      and\n        /* \"uniswap.sol\":942:1034  UniswapV2Factory(factory).getPair(... */\n      mload(0x40)\n      dup4\n      0xffffffff\n      and\n      0xe0\n      shl\n      dup2\n      mstore\n      0x04\n      add\n      tag_9\n      swap3\n      swap2\n      swap1\n      tag_10\n      jump\t// in\n    tag_9:\n      0x20\n      mload(0x40)\n      dup1\n      dup4\n      sub\n      dup2\n      dup7\n      gas\n      staticcall\n      iszero\n      dup1\n      iszero\n      tag_12\n      jumpi\n      returndatasize\n      0x00\n      dup1\n      returndatacopy\n      revert(0x00, returndatasize)\n    tag_12:\n      pop\n      pop\n      pop\n      pop\n      mload(0x40)\n      returndatasize\n      not(0x1f)\n      0x1f\n      dup3\n      add\n      and\n      dup3\n      add\n      dup1\n      0x40\n      mstore\n      pop\n      dup2\n      add\n      swap1\n      tag_13\n      swap2\n      swap1\n      tag_14\n      jump\t// in\n    tag_13:\n        /* \"uniswap.sol\":927:1034  address pair = UniswapV2Factory(factory).getPair(... */\n      swap1\n      pop\n        /* \"uniswap.sol\":1046:1062  uint112 reserve0 */\n      0x00\n        /* \"uniswap.sol\":1064:1080  uint112 reserve1 */\n      dup1\n        /* \"uniswap.sol\":1100:1104  pair */\n      dup3\n        /* \"uniswap.sol\":1086:1130  UniswapV2Pair(pair)... */\n      0xffffffffffffffffffffffffffffffffffffffff\n      and\n      0x0902f1ac\n        /* \"uniswap.sol\":1086:1132  UniswapV2Pair(pair)... */\n      mload(0x40)\n      dup2\n      0xffffffff\n      and\n      0xe0\n      shl\n      dup2\n      mstore\n      0x04\n      add\n      0x60\n      mload(0x40)\n      dup1\n      dup4\n      sub\n      dup2\n      dup7\n      gas\n      staticcall\n      iszero\n      dup1\n      iszero\n      tag_16\n      jumpi\n      returndatasize\n      0x00\n      dup1\n      returndatacopy\n      revert(0x00, returndatasize)\n    tag_16:\n      pop\n      pop\n      pop\n      pop\n      mload(0x40)\n      returndatasize\n      not(0x1f)\n      0x1f\n      dup3\n      add\n      and\n      dup3\n      add\n      dup1\n      0x40\n      mstore\n      pop\n      dup2\n      add\n      swap1\n      tag_17\n      swap2\n      swap1\n      tag_18\n      jump\t// in\n    tag_17:\n        /* \"uniswap.sol\":1045:1132  (uint112 reserve0, uint112 reserve1, ) = UniswapV2Pair(pair)... */\n      pop\n      swap2\n      pop\n      swap2\n      pop\n        /* \"uniswap.sol\":1151:1159  reserve0 */\n      dup2\n        /* \"uniswap.sol\":1161:1169  reserve1 */\n      dup2\n        /* \"uniswap.sol\":1143:1170  return (reserve0, reserve1) */\n      swap5\n      pop\n      swap5\n      pop\n      pop\n      pop\n      pop\n        /* \"uniswap.sol\":848:1177  function getReserveTokens() external view returns (uint112, uint112) {... */\n      swap1\n      swap2\n      jump\t// out\n        /* \"#utility.yul\":7:121   */\n    tag_19:\n        /* \"#utility.yul\":44:51   */\n      0x00\n        /* \"#utility.yul\":84:114   */\n      0xffffffffffffffffffffffffffff\n        /* \"#utility.yul\":77:82   */\n      dup3\n        /* \"#utility.yul\":73:115   */\n      and\n        /* \"#utility.yul\":62:115   */\n      swap1\n      pop\n        /* \"#utility.yul\":7:121   */\n      swap2\n      swap1\n      pop\n      jump\t// out\n        /* \"#utility.yul\":127:245   */\n    tag_20:\n        /* \"#utility.yul\":214:238   */\n      tag_37\n        /* \"#utility.yul\":232:237   */\n      dup2\n        /* \"#utility.yul\":214:238   */\n      tag_19\n      jump\t// in\n    tag_37:\n        /* \"#utility.yul\":209:212   */\n      dup3\n        /* \"#utility.yul\":202:239   */\n      mstore\n        /* \"#utility.yul\":127:245   */\n      pop\n      pop\n      jump\t// out\n        /* \"#utility.yul\":251:583   */\n    tag_7:\n        /* \"#utility.yul\":372:376   */\n      0x00\n        /* \"#utility.yul\":410:412   */\n      0x40\n        /* \"#utility.yul\":399:408   */\n      dup3\n        /* \"#utility.yul\":395:413   */\n      add\n        /* \"#utility.yul\":387:413   */\n      swap1\n      pop\n        /* \"#utility.yul\":423:494   */\n      tag_39\n        /* \"#utility.yul\":491:492   */\n      0x00\n        /* \"#utility.yul\":480:489   */\n      dup4\n        /* \"#utility.yul\":476:493   */\n      add\n        /* \"#utility.yul\":467:473   */\n      dup6\n        /* \"#utility.yul\":423:494   */\n      tag_20\n      jump\t// in\n    tag_39:\n        /* \"#utility.yul\":504:576   */\n      tag_40\n        /* \"#utility.yul\":572:574   */\n      0x20\n        /* \"#utility.yul\":561:570   */\n      dup4\n        /* \"#utility.yul\":557:575   */\n      add\n        /* \"#utility.yul\":548:554   */\n      dup5\n        /* \"#utility.yul\":504:576   */\n      tag_20\n      jump\t// in\n    tag_40:\n        /* \"#utility.yul\":251:583   */\n      swap4\n      swap3\n      pop\n      pop\n      pop\n      jump\t// out\n        /* \"#utility.yul\":589:715   */\n    tag_21:\n        /* \"#utility.yul\":626:633   */\n      0x00\n        /* \"#utility.yul\":666:708   */\n      0xffffffffffffffffffffffffffffffffffffffff\n        /* \"#utility.yul\":659:664   */\n      dup3\n        /* \"#utility.yul\":655:709   */\n      and\n        /* \"#utility.yul\":644:709   */\n      swap1\n      pop\n        /* \"#utility.yul\":589:715   */\n      swap2\n      swap1\n      pop\n      jump\t// out\n        /* \"#utility.yul\":721:817   */\n    tag_22:\n        /* \"#utility.yul\":758:765   */\n      0x00\n        /* \"#utility.yul\":787:811   */\n      tag_43\n        /* \"#utility.yul\":805:810   */\n      dup3\n        /* \"#utility.yul\":787:811   */\n      tag_21\n      jump\t// in\n    tag_43:\n        /* \"#utility.yul\":776:811   */\n      swap1\n      pop\n        /* \"#utility.yul\":721:817   */\n      swap2\n      swap1\n      pop\n      jump\t// out\n        /* \"#utility.yul\":823:941   */\n    tag_23:\n        /* \"#utility.yul\":910:934   */\n      tag_45\n        /* \"#utility.yul\":928:933   */\n      dup2\n        /* \"#utility.yul\":910:934   */\n      tag_22\n      jump\t// in\n    tag_45:\n        /* \"#utility.yul\":905:908   */\n      dup3\n        /* \"#utility.yul\":898:935   */\n      mstore\n        /* \"#utility.yul\":823:941   */\n      pop\n      pop\n      jump\t// out\n        /* \"#utility.yul\":947:1279   */\n    tag_10:\n        /* \"#utility.yul\":1068:1072   */\n      0x00\n        /* \"#utility.yul\":1106:1108   */\n      0x40\n        /* \"#utility.yul\":1095:1104   */\n      dup3\n        /* \"#utility.yul\":1091:1109   */\n      add\n        /* \"#utility.yul\":1083:1109   */\n      swap1\n      pop\n        /* \"#utility.yul\":1119:1190   */\n      tag_47\n        /* \"#utility.yul\":1187:1188   */\n      0x00\n        /* \"#utility.yul\":1176:1185   */\n      dup4\n        /* \"#utility.yul\":1172:1189   */\n      add\n        /* \"#utility.yul\":1163:1169   */\n      dup6\n        /* \"#utility.yul\":1119:1190   */\n      tag_23\n      jump\t// in\n    tag_47:\n        /* \"#utility.yul\":1200:1272   */\n      tag_48\n        /* \"#utility.yul\":1268:1270   */\n      0x20\n        /* \"#utility.yul\":1257:1266   */\n      dup4\n        /* \"#utility.yul\":1253:1271   */\n      add\n        /* \"#utility.yul\":1244:1250   */\n      dup5\n        /* \"#utility.yul\":1200:1272   */\n      tag_23\n      jump\t// in\n    tag_48:\n        /* \"#utility.yul\":947:1279   */\n      swap4\n      swap3\n      pop\n      pop\n      pop\n      jump\t// out\n        /* \"#utility.yul\":1366:1483   */\n    tag_25:\n        /* \"#utility.yul\":1475:1476   */\n      0x00\n        /* \"#utility.yul\":1472:1473   */\n      dup1\n        /* \"#utility.yul\":1465:1477   */\n      revert\n        /* \"#utility.yul\":1612:1734   */\n    tag_27:\n        /* \"#utility.yul\":1685:1709   */\n      tag_53\n        /* \"#utility.yul\":1703:1708   */\n      dup2\n        /* \"#utility.yul\":1685:1709   */\n      tag_22\n      jump\t// in\n    tag_53:\n        /* \"#utility.yul\":1678:1683   */\n      dup2\n        /* \"#utility.yul\":1675:1710   */\n      eq\n        /* \"#utility.yul\":1665:1728   */\n      tag_54\n      jumpi\n        /* \"#utility.yul\":1724:1725   */\n      0x00\n        /* \"#utility.yul\":1721:1722   */\n      dup1\n        /* \"#utility.yul\":1714:1726   */\n      revert\n        /* \"#utility.yul\":1665:1728   */\n    tag_54:\n        /* \"#utility.yul\":1612:1734   */\n      pop\n      jump\t// out\n        /* \"#utility.yul\":1740:1883   */\n    tag_28:\n        /* \"#utility.yul\":1797:1802   */\n      0x00\n        /* \"#utility.yul\":1828:1834   */\n      dup2\n        /* \"#utility.yul\":1822:1835   */\n      mload\n        /* \"#utility.yul\":1813:1835   */\n      swap1\n      pop\n        /* \"#utility.yul\":1844:1877   */\n      tag_56\n        /* \"#utility.yul\":1871:1876   */\n      dup2\n        /* \"#utility.yul\":1844:1877   */\n      tag_27\n      jump\t// in\n    tag_56:\n        /* \"#utility.yul\":1740:1883   */\n      swap3\n      swap2\n      pop\n      pop\n      jump\t// out\n        /* \"#utility.yul\":1889:2240   */\n    tag_14:\n        /* \"#utility.yul\":1959:1965   */\n      0x00\n        /* \"#utility.yul\":2008:2010   */\n      0x20\n        /* \"#utility.yul\":1996:2005   */\n      dup3\n        /* \"#utility.yul\":1987:1994   */\n      dup5\n        /* \"#utility.yul\":1983:2006   */\n      sub\n        /* \"#utility.yul\":1979:2011   */\n      slt\n        /* \"#utility.yul\":1976:2095   */\n      iszero\n      tag_58\n      jumpi\n        /* \"#utility.yul\":2014:2093   */\n      tag_59\n      tag_25\n      jump\t// in\n    tag_59:\n        /* \"#utility.yul\":1976:2095   */\n    tag_58:\n        /* \"#utility.yul\":2134:2135   */\n      0x00\n        /* \"#utility.yul\":2159:2223   */\n      tag_60\n        /* \"#utility.yul\":2215:2222   */\n      dup5\n        /* \"#utility.yul\":2206:2212   */\n      dup3\n        /* \"#utility.yul\":2195:2204   */\n      dup6\n        /* \"#utility.yul\":2191:2213   */\n      add\n        /* \"#utility.yul\":2159:2223   */\n      tag_28\n      jump\t// in\n    tag_60:\n        /* \"#utility.yul\":2149:2223   */\n      swap2\n      pop\n        /* \"#utility.yul\":2105:2233   */\n      pop\n        /* \"#utility.yul\":1889:2240   */\n      swap3\n      swap2\n      pop\n      pop\n      jump\t// out\n        /* \"#utility.yul\":2246:2368   */\n    tag_29:\n        /* \"#utility.yul\":2319:2343   */\n      tag_62\n        /* \"#utility.yul\":2337:2342   */\n      dup2\n        /* \"#utility.yul\":2319:2343   */\n      tag_19\n      jump\t// in\n    tag_62:\n        /* \"#utility.yul\":2312:2317   */\n      dup2\n        /* \"#utility.yul\":2309:2344   */\n      eq\n        /* \"#utility.yul\":2299:2362   */\n      tag_63\n      jumpi\n        /* \"#utility.yul\":2358:2359   */\n      0x00\n        /* \"#utility.yul\":2355:2356   */\n      dup1\n        /* \"#utility.yul\":2348:2360   */\n      revert\n        /* \"#utility.yul\":2299:2362   */\n    tag_63:\n        /* \"#utility.yul\":2246:2368   */\n      pop\n      jump\t// out\n        /* \"#utility.yul\":2374:2517   */\n    tag_30:\n        /* \"#utility.yul\":2431:2436   */\n      0x00\n        /* \"#utility.yul\":2462:2468   */\n      dup2\n        /* \"#utility.yul\":2456:2469   */\n      mload\n        /* \"#utility.yul\":2447:2469   */\n      swap1\n      pop\n        /* \"#utility.yul\":2478:2511   */\n      tag_65\n        /* \"#utility.yul\":2505:2510   */\n      dup2\n        /* \"#utility.yul\":2478:2511   */\n      tag_29\n      jump\t// in\n    tag_65:\n        /* \"#utility.yul\":2374:2517   */\n      swap3\n      swap2\n      pop\n      pop\n      jump\t// out\n        /* \"#utility.yul\":2523:2616   */\n    tag_31:\n        /* \"#utility.yul\":2559:2566   */\n      0x00\n        /* \"#utility.yul\":2599:2609   */\n      0xffffffff\n        /* \"#utility.yul\":2592:2597   */\n      dup3\n        /* \"#utility.yul\":2588:2610   */\n      and\n        /* \"#utility.yul\":2577:2610   */\n      swap1\n      pop\n        /* \"#utility.yul\":2523:2616   */\n      swap2\n      swap1\n      pop\n      jump\t// out\n        /* \"#utility.yul\":2622:2742   */\n    tag_32:\n        /* \"#utility.yul\":2694:2717   */\n      tag_68\n        /* \"#utility.yul\":2711:2716   */\n      dup2\n        /* \"#utility.yul\":2694:2717   */\n      tag_31\n      jump\t// in\n    tag_68:\n        /* \"#utility.yul\":2687:2692   */\n      dup2\n        /* \"#utility.yul\":2684:2718   */\n      eq\n        /* \"#utility.yul\":2674:2736   */\n      tag_69\n      jumpi\n        /* \"#utility.yul\":2732:2733   */\n      0x00\n        /* \"#utility.yul\":2729:2730   */\n      dup1\n        /* \"#utility.yul\":2722:2734   */\n      revert\n        /* \"#utility.yul\":2674:2736   */\n    tag_69:\n        /* \"#utility.yul\":2622:2742   */\n      pop\n      jump\t// out\n        /* \"#utility.yul\":2748:2889   */\n    tag_33:\n        /* \"#utility.yul\":2804:2809   */\n      0x00\n        /* \"#utility.yul\":2835:2841   */\n      dup2\n        /* \"#utility.yul\":2829:2842   */\n      mload\n        /* \"#utility.yul\":2820:2842   */\n      swap1\n      pop\n        /* \"#utility.yul\":2851:2883   */\n      tag_71\n        /* \"#utility.yul\":2877:2882   */\n      dup2\n        /* \"#utility.yul\":2851:2883   */\n      tag_32\n      jump\t// in\n    tag_71:\n        /* \"#utility.yul\":2748:2889   */\n      swap3\n      swap2\n      pop\n      pop\n      jump\t// out\n        /* \"#utility.yul\":2895:3556   */\n    tag_18:\n        /* \"#utility.yul\":2982:2988   */\n      0x00\n        /* \"#utility.yul\":2990:2996   */\n      dup1\n        /* \"#utility.yul\":2998:3004   */\n      0x00\n        /* \"#utility.yul\":3047:3049   */\n      0x60\n        /* \"#utility.yul\":3035:3044   */\n      dup5\n        /* \"#utility.yul\":3026:3033   */\n      dup7\n        /* \"#utility.yul\":3022:3045   */\n      sub\n        /* \"#utility.yul\":3018:3050   */\n      slt\n        /* \"#utility.yul\":3015:3134   */\n      iszero\n      tag_73\n      jumpi\n        /* \"#utility.yul\":3053:3132   */\n      tag_74\n      tag_25\n      jump\t// in\n    tag_74:\n        /* \"#utility.yul\":3015:3134   */\n    tag_73:\n        /* \"#utility.yul\":3173:3174   */\n      0x00\n        /* \"#utility.yul\":3198:3262   */\n      tag_75\n        /* \"#utility.yul\":3254:3261   */\n      dup7\n        /* \"#utility.yul\":3245:3251   */\n      dup3\n        /* \"#utility.yul\":3234:3243   */\n      dup8\n        /* \"#utility.yul\":3230:3252   */\n      add\n        /* \"#utility.yul\":3198:3262   */\n      tag_30\n      jump\t// in\n    tag_75:\n        /* \"#utility.yul\":3188:3262   */\n      swap4\n      pop\n        /* \"#utility.yul\":3144:3272   */\n      pop\n        /* \"#utility.yul\":3311:3313   */\n      0x20\n        /* \"#utility.yul\":3337:3401   */\n      tag_76\n        /* \"#utility.yul\":3393:3400   */\n      dup7\n        /* \"#utility.yul\":3384:3390   */\n      dup3\n        /* \"#utility.yul\":3373:3382   */\n      dup8\n        /* \"#utility.yul\":3369:3391   */\n      add\n        /* \"#utility.yul\":3337:3401   */\n      tag_30\n      jump\t// in\n    tag_76:\n        /* \"#utility.yul\":3327:3401   */\n      swap3\n      pop\n        /* \"#utility.yul\":3282:3411   */\n      pop\n        /* \"#utility.yul\":3450:3452   */\n      0x40\n        /* \"#utility.yul\":3476:3539   */\n      tag_77\n        /* \"#utility.yul\":3531:3538   */\n      dup7\n        /* \"#utility.yul\":3522:3528   */\n      dup3\n        /* \"#utility.yul\":3511:3520   */\n      dup8\n        /* \"#utility.yul\":3507:3529   */\n      add\n        /* \"#utility.yul\":3476:3539   */\n      tag_33\n      jump\t// in\n    tag_77:\n        /* \"#utility.yul\":3466:3539   */\n      swap2\n      pop\n        /* \"#utility.yul\":3421:3549   */\n      pop\n        /* \"#utility.yul\":2895:3556   */\n      swap3\n      pop\n      swap3\n      pop\n      swap3\n      jump\t// out\n\n    auxdata: 0xa26469706673582212206c27068998e56e5f4d25ed6cae10fafa25a824d47395ccd4162bbac316133e9f64736f6c634300081a0033\n}\n",
				"bytecode": {
					"linkReferences": {},
					"object": "6080604052735c69bee701ef814a2b6a3edd4b1652cb9cc5aa6f5f806101000a81548173ffffffffffffffffffffffffffffffffffffffff021916908373ffffffffffffffffffffffffffffffffffffffff160217905550736b175474e89094c44da98b954eedeac495271d0f60015f6101000a81548173ffffffffffffffffffffffffffffffffffffffff021916908373ffffffffffffffffffffffffffffffffffffffff16021790555073c02aaa39b223fe8d0a0e5c4f27ead9083c756cc260025f6101000a81548173ffffffffffffffffffffffffffffffffffffffff021916908373ffffffffffffffffffffffffffffffffffffffff16021790555034801561010a575f80fd5b506103a5806101185f395ff3fe608060405234801561000f575f80fd5b5060043610610029575f3560e01c8063d1f3ae1b1461002d575b5f80fd5b61003561004c565b6040516100439291906101d6565b60405180910390f35b5f805f805f9054906101000a900473ffffffffffffffffffffffffffffffffffffffff1673ffffffffffffffffffffffffffffffffffffffff1663e6a4390560015f9054906101000a900473ffffffffffffffffffffffffffffffffffffffff1660025f9054906101000a900473ffffffffffffffffffffffffffffffffffffffff166040518363ffffffff1660e01b81526004016100ec92919061023c565b602060405180830381865afa158015610107573d5f803e3d5ffd5b505050506040513d601f19601f8201168201806040525081019061012b9190610291565b90505f808273ffffffffffffffffffffffffffffffffffffffff16630902f1ac6040518163ffffffff1660e01b8152600401606060405180830381865afa158015610178573d5f803e3d5ffd5b505050506040513d601f19601f8201168201806040525081019061019c919061031f565b50915091508181945094505050509091565b5f6dffffffffffffffffffffffffffff82169050919050565b6101d0816101ae565b82525050565b5f6040820190506101e95f8301856101c7565b6101f660208301846101c7565b9392505050565b5f73ffffffffffffffffffffffffffffffffffffffff82169050919050565b5f610226826101fd565b9050919050565b6102368161021c565b82525050565b5f60408201905061024f5f83018561022d565b61025c602083018461022d565b9392505050565b5f80fd5b6102708161021c565b811461027a575f80fd5b50565b5f8151905061028b81610267565b92915050565b5f602082840312156102a6576102a5610263565b5b5f6102b38482850161027d565b91505092915050565b6102c5816101ae565b81146102cf575f80fd5b50565b5f815190506102e0816102bc565b92915050565b5f63ffffffff82169050919050565b6102fe816102e6565b8114610308575f80fd5b50565b5f81519050610319816102f5565b92915050565b5f805f6060848603121561033657610335610263565b5b5f610343868287016102d2565b9350506020610354868287016102d2565b92505060406103658682870161030b565b915050925092509256fea26469706673582212206c27068998e56e5f4d25ed6cae10fafa25a824d47395ccd4162bbac316133e9f64736f6c634300081a0033",
					"opcodes": "PUSH1 0x80 PUSH1 0x40 MSTORE PUSH20 0x5C69BEE701EF814A2B6A3EDD4B1652CB9CC5AA6F PUSH0 DUP1 PUSH2 0x100 EXP DUP2 SLOAD DUP2 PUSH20 0xFFFFFFFFFFFFFFFFFFFFFFFFFFFFFFFFFFFFFFFF MUL NOT AND SWAP1 DUP4 PUSH20 0xFFFFFFFFFFFFFFFFFFFFFFFFFFFFFFFFFFFFFFFF AND MUL OR SWAP1 SSTORE POP PUSH20 0x6B175474E89094C44DA98B954EEDEAC495271D0F PUSH1 0x1 PUSH0 PUSH2 0x100 EXP DUP2 SLOAD DUP2 PUSH20 0xFFFFFFFFFFFFFFFFFFFFFFFFFFFFFFFFFFFFFFFF MUL NOT AND SWAP1 DUP4 PUSH20 0xFFFFFFFFFFFFFFFFFFFFFFFFFFFFFFFFFFFFFFFF AND MUL OR SWAP1 SSTORE POP PUSH20 0xC02AAA39B223FE8D0A0E5C4F27EAD9083C756CC2 PUSH1 0x2 PUSH0 PUSH2 0x100 EXP DUP2 SLOAD DUP2 PUSH20 0xFFFFFFFFFFFFFFFFFFFFFFFFFFFFFFFFFFFFFFFF MUL NOT AND SWAP1 DUP4 PUSH20 0xFFFFFFFFFFFFFFFFFFFFFFFFFFFFFFFFFFFFFFFF AND MUL OR SWAP1 SSTORE POP CALLVALUE DUP1 ISZERO PUSH2 0x10A JUMPI PUSH0 DUP1 REVERT JUMPDEST POP PUSH2 0x3A5 DUP1 PUSH2 0x118 PUSH0 CODECOPY PUSH0 RETURN INVALID PUSH1 0x80 PUSH1 0x40 MSTORE CALLVALUE DUP1 ISZERO PUSH2 0xF JUMPI PUSH0 DUP1 REVERT JUMPDEST POP PUSH1 0x4 CALLDATASIZE LT PUSH2 0x29 JUMPI PUSH0 CALLDATALOAD PUSH1 0xE0 SHR DUP1 PUSH4 0xD1F3AE1B EQ PUSH2 0x2D JUMPI JUMPDEST PUSH0 DUP1 REVERT JUMPDEST PUSH2 0x35 PUSH2 0x4C JUMP JUMPDEST PUSH1 0x40 MLOAD PUSH2 0x43 SWAP3 SWAP2 SWAP1 PUSH2 0x1D6 JUMP JUMPDEST PUSH1 0x40 MLOAD DUP1 SWAP2 SUB SWAP1 RETURN JUMPDEST PUSH0 DUP1 PUSH0 DUP1 PUSH0 SWAP1 SLOAD SWAP1 PUSH2 0x100 EXP SWAP1 DIV PUSH20 0xFFFFFFFFFFFFFFFFFFFFFFFFFFFFFFFFFFFFFFFF AND PUSH20 0xFFFFFFFFFFFFFFFFFFFFFFFFFFFFFFFFFFFFFFFF AND PUSH4 0xE6A43905 PUSH1 0x1 PUSH0 SWAP1 SLOAD SWAP1 PUSH2 0x100 EXP SWAP1 DIV PUSH20 0xFFFFFFFFFFFFFFFFFFFFFFFFFFFFFFFFFFFFFFFF AND PUSH1 0x2 PUSH0 SWAP1 SLOAD SWAP1 PUSH2 0x100 EXP SWAP1 DIV PUSH20 0xFFFFFFFFFFFFFFFFFFFFFFFFFFFFFFFFFFFFFFFF AND PUSH1 0x40 MLOAD DUP4 PUSH4 0xFFFFFFFF AND PUSH1 0xE0 SHL DUP2 MSTORE PUSH1 0x4 ADD PUSH2 0xEC SWAP3 SWAP2 SWAP1 PUSH2 0x23C JUMP JUMPDEST PUSH1 0x20 PUSH1 0x40 MLOAD DUP1 DUP4 SUB DUP2 DUP7 GAS STATICCALL ISZERO DUP1 ISZERO PUSH2 0x107 JUMPI RETURNDATASIZE PUSH0 DUP1 RETURNDATACOPY RETURNDATASIZE PUSH0 REVERT JUMPDEST POP POP POP POP PUSH1 0x40 MLOAD RETURNDATASIZE PUSH1 0x1F NOT PUSH1 0x1F DUP3 ADD AND DUP3 ADD DUP1 PUSH1 0x40 MSTORE POP DUP2 ADD SWAP1 PUSH2 0x12B SWAP2 SWAP1 PUSH2 0x291 JUMP JUMPDEST SWAP1 POP PUSH0 DUP1 DUP3 PUSH20 0xFFFFFFFFFFFFFFFFFFFFFFFFFFFFFFFFFFFFFFFF AND PUSH4 0x902F1AC PUSH1 0x40 MLOAD DUP2 PUSH4 0xFFFFFFFF AND PUSH1 0xE0 SHL DUP2 MSTORE PUSH1 0x4 ADD PUSH1 0x60 PUSH1 0x40 MLOAD DUP1 DUP4 SUB DUP2 DUP7 GAS STATICCALL ISZERO DUP1 ISZERO PUSH2 0x178 JUMPI RETURNDATASIZE PUSH0 DUP1 RETURNDATACOPY RETURNDATASIZE PUSH0 REVERT JUMPDEST POP POP POP POP PUSH1 0x40 MLOAD RETURNDATASIZE PUSH1 0x1F NOT PUSH1 0x1F DUP3 ADD AND DUP3 ADD DUP1 PUSH1 0x40 MSTORE POP DUP2 ADD SWAP1 PUSH2 0x19C SWAP2 SWAP1 PUSH2 0x31F JUMP JUMPDEST POP SWAP2 POP SWAP2 POP DUP2 DUP2 SWAP5 POP SWAP5 POP POP POP POP SWAP1 SWAP2 JUMP JUMPDEST PUSH0 PUSH14 0xFFFFFFFFFFFFFFFFFFFFFFFFFFFF DUP3 AND SWAP1 POP SWAP2 SWAP1 POP JUMP JUMPDEST PUSH2 0x1D0 DUP2 PUSH2 0x1AE JUMP JUMPDEST DUP3 MSTORE POP POP JUMP JUMPDEST PUSH0 PUSH1 0x40 DUP3 ADD SWAP1 POP PUSH2 0x1E9 PUSH0 DUP4 ADD DUP6 PUSH2 0x1C7 JUMP JUMPDEST PUSH2 0x1F6 PUSH1 0x20 DUP4 ADD DUP5 PUSH2 0x1C7 JUMP JUMPDEST SWAP4 SWAP3 POP POP POP JUMP JUMPDEST PUSH0 PUSH20 0xFFFFFFFFFFFFFFFFFFFFFFFFFFFFFFFFFFFFFFFF DUP3 AND SWAP1 POP SWAP2 SWAP1 POP JUMP JUMPDEST PUSH0 PUSH2 0x226 DUP3 PUSH2 0x1FD JUMP JUMPDEST SWAP1 POP SWAP2 SWAP1 POP JUMP JUMPDEST PUSH2 0x236 DUP2 PUSH2 0x21C JUMP JUMPDEST DUP3 MSTORE POP POP JUMP JUMPDEST PUSH0 PUSH1 0x40 DUP3 ADD SWAP1 POP PUSH2 0x24F PUSH0 DUP4 ADD DUP6 PUSH2 0x22D JUMP JUMPDEST PUSH2 0x25C PUSH1 0x20 DUP4 ADD DUP5 PUSH2 0x22D JUMP JUMPDEST SWAP4 SWAP3 POP POP POP JUMP JUMPDEST PUSH0 DUP1 REVERT JUMPDEST PUSH2 0x270 DUP2 PUSH2 0x21C JUMP JUMPDEST DUP2 EQ PUSH2 0x27A JUMPI PUSH0 DUP1 REVERT JUMPDEST POP JUMP JUMPDEST PUSH0 DUP2 MLOAD SWAP1 POP PUSH2 0x28B DUP2 PUSH2 0x267 JUMP JUMPDEST SWAP3 SWAP2 POP POP JUMP JUMPDEST PUSH0 PUSH1 0x20 DUP3 DUP5 SUB SLT ISZERO PUSH2 0x2A6 JUMPI PUSH2 0x2A5 PUSH2 0x263 JUMP JUMPDEST JUMPDEST PUSH0 PUSH2 0x2B3 DUP5 DUP3 DUP6 ADD PUSH2 0x27D JUMP JUMPDEST SWAP2 POP POP SWAP3 SWAP2 POP POP JUMP JUMPDEST PUSH2 0x2C5 DUP2 PUSH2 0x1AE JUMP JUMPDEST DUP2 EQ PUSH2 0x2CF JUMPI PUSH0 DUP1 REVERT JUMPDEST POP JUMP JUMPDEST PUSH0 DUP2 MLOAD SWAP1 POP PUSH2 0x2E0 DUP2 PUSH2 0x2BC JUMP JUMPDEST SWAP3 SWAP2 POP POP JUMP JUMPDEST PUSH0 PUSH4 0xFFFFFFFF DUP3 AND SWAP1 POP SWAP2 SWAP1 POP JUMP JUMPDEST PUSH2 0x2FE DUP2 PUSH2 0x2E6 JUMP JUMPDEST DUP2 EQ PUSH2 0x308 JUMPI PUSH0 DUP1 REVERT JUMPDEST POP JUMP JUMPDEST PUSH0 DUP2 MLOAD SWAP1 POP PUSH2 0x319 DUP2 PUSH2 0x2F5 JUMP JUMPDEST SWAP3 SWAP2 POP POP JUMP JUMPDEST PUSH0 DUP1 PUSH0 PUSH1 0x60 DUP5 DUP7 SUB SLT ISZERO PUSH2 0x336 JUMPI PUSH2 0x335 PUSH2 0x263 JUMP JUMPDEST JUMPDEST PUSH0 PUSH2 0x343 DUP7 DUP3 DUP8 ADD PUSH2 0x2D2 JUMP JUMPDEST SWAP4 POP POP PUSH1 0x20 PUSH2 0x354 DUP7 DUP3 DUP8 ADD PUSH2 0x2D2 JUMP JUMPDEST SWAP3 POP POP PUSH1 0x40 PUSH2 0x365 DUP7 DUP3 DUP8 ADD PUSH2 0x30B JUMP JUMPDEST SWAP2 POP POP SWAP3 POP SWAP3 POP SWAP3 JUMP INVALID LOG2 PUSH5 0x6970667358 0x22 SLT KECCAK256 PUSH13 0x27068998E56E5F4D25ED6CAE10 STATICCALL STATICCALL 0x25 0xA8 0x24 0xD4 PUSH20 0x95CCD4162BBAC316133E9F64736F6C634300081A STOP CALLER "
				},
				"gasEstimates": {
					"creation": {
						"codeDepositCost": "186600",
						"executionCost": "73028",
						"totalCost": "259628"
					},
					"external": {
						"getReserveTokens()": "infinite"
					}
				},
				"methodIdentifiers": {
					"getReserveTokens()": "d1f3ae1b"
				}
			},
			"storageLayout": {
				"storage": [
					{
						"astId": 24,
						"contract": "uniswap.sol:UniSwap",
						"label": "factory",
						"offset": 0,
						"slot": "0",
						"type": "t_address"
					},
					{
						"astId": 27,
						"contract": "uniswap.sol:UniSwap",
						"label": "dai_token",
						"offset": 0,
						"slot": "1",
						"type": "t_address"
					},
					{
						"astId": 30,
						"contract": "uniswap.sol:UniSwap",
						"label": "wether_token",
						"offset": 0,
						"slot": "2",
						"type": "t_address"
					}
				],
				"types": {
					"t_address": {
						"encoding": "inplace",
						"label": "address",
						"numberOfBytes": "20"
					}
				}
			},
			"userdoc": {
				"kind": "user",
				"methods": {},
				"version": 1
			}
		}
	}
}