{
	"withdraw_pattern.sol": {
		"Attacker": {
			"abi": [
				{
					"inputs": [
						{
							"internalType": "address",
							"name": "_victimAddress",
							"type": "address"
						}
					],
					"stateMutability": "nonpayable",
					"type": "constructor"
				},
				{
					"inputs": [],
					"name": "trickedYou",
					"outputs": [
						{
							"internalType": "bool",
							"name": "",
							"type": "bool"
						}
					],
					"stateMutability": "view",
					"type": "function"
				}
			],
			"devdoc": {
				"kind": "dev",
				"methods": {},
				"version": 1
			},
			"evm": {
				"assembly": "    /* \"withdraw_pattern.sol\":1242:1470  contract Attacker {... */\n  mstore(0x40, 0x80)\n    /* \"withdraw_pattern.sol\":1322:1468  constructor(address _victimAddress) {... */\n  callvalue\n  dup1\n  iszero\n  tag_1\n  jumpi\n  0x00\n  dup1\n  revert\ntag_1:\n  pop\n  mload(0x40)\n  sub(codesize, bytecodeSize)\n  dup1\n  bytecodeSize\n  dup4\n  codecopy\n  dup2\n  dup2\n  add\n  0x40\n  mstore\n  dup2\n  add\n  swap1\n  tag_2\n  swap2\n  swap1\n  tag_3\n  jump\t// in\ntag_2:\n    /* \"withdraw_pattern.sol\":1392:1406  _victimAddress */\n  dup1\n    /* \"withdraw_pattern.sol\":1368:1382  victimContract */\n  0x00\n  dup1\n    /* \"withdraw_pattern.sol\":1368:1407  victimContract = Victim(_victimAddress) */\n  0x0100\n  exp\n  dup2\n  sload\n  dup2\n  0xffffffffffffffffffffffffffffffffffffffff\n  mul\n  not\n  and\n  swap1\n  dup4\n  0xffffffffffffffffffffffffffffffffffffffff\n  and\n  mul\n  or\n  swap1\n  sstore\n  pop\n    /* \"withdraw_pattern.sol\":1431:1445  victimContract */\n  0x00\n  dup1\n  sload\n  swap1\n  0x0100\n  exp\n  swap1\n  div\n  0xffffffffffffffffffffffffffffffffffffffff\n  and\n    /* \"withdraw_pattern.sol\":1431:1459  victimContract.isItAContract */\n  0xffffffffffffffffffffffffffffffffffffffff\n  and\n  0x63bae962\n    /* \"withdraw_pattern.sol\":1431:1461  victimContract.isItAContract() */\n  mload(0x40)\n  dup2\n  0xffffffff\n  and\n  0xe0\n  shl\n  dup2\n  mstore\n  0x04\n  add\n  0x20\n  mload(0x40)\n  dup1\n  dup4\n  sub\n  dup2\n  dup7\n  gas\n  staticcall\n  iszero\n  dup1\n  iszero\n  tag_7\n  jumpi\n  returndatasize\n  0x00\n  dup1\n  returndatacopy\n  revert(0x00, returndatasize)\ntag_7:\n  pop\n  pop\n  pop\n  pop\n  mload(0x40)\n  returndatasize\n  not(0x1f)\n  0x1f\n  dup3\n  add\n  and\n  dup3\n  add\n  dup1\n  0x40\n  mstore\n  pop\n  dup2\n  add\n  swap1\n  tag_8\n  swap2\n  swap1\n  tag_9\n  jump\t// in\ntag_8:\n    /* \"withdraw_pattern.sol\":1430:1461  !victimContract.isItAContract() */\n  iszero\n    /* \"withdraw_pattern.sol\":1417:1427  trickedYou */\n  0x00\n  0x14\n    /* \"withdraw_pattern.sol\":1417:1461  trickedYou = !victimContract.isItAContract() */\n  0x0100\n  exp\n  dup2\n  sload\n  dup2\n  0xff\n  mul\n  not\n  and\n  swap1\n  dup4\n  iszero\n  iszero\n  mul\n  or\n  swap1\n  sstore\n  pop\n    /* \"withdraw_pattern.sol\":1322:1468  constructor(address _victimAddress) {... */\n  pop\n    /* \"withdraw_pattern.sol\":1242:1470  contract Attacker {... */\n  jump(tag_10)\n    /* \"#utility.yul\":88:205   */\ntag_12:\n    /* \"#utility.yul\":197:198   */\n  0x00\n    /* \"#utility.yul\":194:195   */\n  dup1\n    /* \"#utility.yul\":187:199   */\n  revert\n    /* \"#utility.yul\":334:460   */\ntag_14:\n    /* \"#utility.yul\":371:378   */\n  0x00\n    /* \"#utility.yul\":411:453   */\n  0xffffffffffffffffffffffffffffffffffffffff\n    /* \"#utility.yul\":404:409   */\n  dup3\n    /* \"#utility.yul\":400:454   */\n  and\n    /* \"#utility.yul\":389:454   */\n  swap1\n  pop\n    /* \"#utility.yul\":334:460   */\n  swap2\n  swap1\n  pop\n  jump\t// out\n    /* \"#utility.yul\":466:562   */\ntag_15:\n    /* \"#utility.yul\":503:510   */\n  0x00\n    /* \"#utility.yul\":532:556   */\n  tag_27\n    /* \"#utility.yul\":550:555   */\n  dup3\n    /* \"#utility.yul\":532:556   */\n  tag_14\n  jump\t// in\ntag_27:\n    /* \"#utility.yul\":521:556   */\n  swap1\n  pop\n    /* \"#utility.yul\":466:562   */\n  swap2\n  swap1\n  pop\n  jump\t// out\n    /* \"#utility.yul\":568:690   */\ntag_16:\n    /* \"#utility.yul\":641:665   */\n  tag_29\n    /* \"#utility.yul\":659:664   */\n  dup2\n    /* \"#utility.yul\":641:665   */\n  tag_15\n  jump\t// in\ntag_29:\n    /* \"#utility.yul\":634:639   */\n  dup2\n    /* \"#utility.yul\":631:666   */\n  eq\n    /* \"#utility.yul\":621:684   */\n  tag_30\n  jumpi\n    /* \"#utility.yul\":680:681   */\n  0x00\n    /* \"#utility.yul\":677:678   */\n  dup1\n    /* \"#utility.yul\":670:682   */\n  revert\n    /* \"#utility.yul\":621:684   */\ntag_30:\n    /* \"#utility.yul\":568:690   */\n  pop\n  jump\t// out\n    /* \"#utility.yul\":696:839   */\ntag_17:\n    /* \"#utility.yul\":753:758   */\n  0x00\n    /* \"#utility.yul\":784:790   */\n  dup2\n    /* \"#utility.yul\":778:791   */\n  mload\n    /* \"#utility.yul\":769:791   */\n  swap1\n  pop\n    /* \"#utility.yul\":800:833   */\n  tag_32\n    /* \"#utility.yul\":827:832   */\n  dup2\n    /* \"#utility.yul\":800:833   */\n  tag_16\n  jump\t// in\ntag_32:\n    /* \"#utility.yul\":696:839   */\n  swap3\n  swap2\n  pop\n  pop\n  jump\t// out\n    /* \"#utility.yul\":845:1196   */\ntag_3:\n    /* \"#utility.yul\":915:921   */\n  0x00\n    /* \"#utility.yul\":964:966   */\n  0x20\n    /* \"#utility.yul\":952:961   */\n  dup3\n    /* \"#utility.yul\":943:950   */\n  dup5\n    /* \"#utility.yul\":939:962   */\n  sub\n    /* \"#utility.yul\":935:967   */\n  slt\n    /* \"#utility.yul\":932:1051   */\n  iszero\n  tag_34\n  jumpi\n    /* \"#utility.yul\":970:1049   */\n  tag_35\n  tag_12\n  jump\t// in\ntag_35:\n    /* \"#utility.yul\":932:1051   */\ntag_34:\n    /* \"#utility.yul\":1090:1091   */\n  0x00\n    /* \"#utility.yul\":1115:1179   */\n  tag_36\n    /* \"#utility.yul\":1171:1178   */\n  dup5\n    /* \"#utility.yul\":1162:1168   */\n  dup3\n    /* \"#utility.yul\":1151:1160   */\n  dup6\n    /* \"#utility.yul\":1147:1169   */\n  add\n    /* \"#utility.yul\":1115:1179   */\n  tag_17\n  jump\t// in\ntag_36:\n    /* \"#utility.yul\":1105:1179   */\n  swap2\n  pop\n    /* \"#utility.yul\":1061:1189   */\n  pop\n    /* \"#utility.yul\":845:1196   */\n  swap3\n  swap2\n  pop\n  pop\n  jump\t// out\n    /* \"#utility.yul\":1202:1292   */\ntag_18:\n    /* \"#utility.yul\":1236:1243   */\n  0x00\n    /* \"#utility.yul\":1279:1284   */\n  dup2\n    /* \"#utility.yul\":1272:1285   */\n  iszero\n    /* \"#utility.yul\":1265:1286   */\n  iszero\n    /* \"#utility.yul\":1254:1286   */\n  swap1\n  pop\n    /* \"#utility.yul\":1202:1292   */\n  swap2\n  swap1\n  pop\n  jump\t// out\n    /* \"#utility.yul\":1298:1414   */\ntag_19:\n    /* \"#utility.yul\":1368:1389   */\n  tag_39\n    /* \"#utility.yul\":1383:1388   */\n  dup2\n    /* \"#utility.yul\":1368:1389   */\n  tag_18\n  jump\t// in\ntag_39:\n    /* \"#utility.yul\":1361:1366   */\n  dup2\n    /* \"#utility.yul\":1358:1390   */\n  eq\n    /* \"#utility.yul\":1348:1408   */\n  tag_40\n  jumpi\n    /* \"#utility.yul\":1404:1405   */\n  0x00\n    /* \"#utility.yul\":1401:1402   */\n  dup1\n    /* \"#utility.yul\":1394:1406   */\n  revert\n    /* \"#utility.yul\":1348:1408   */\ntag_40:\n    /* \"#utility.yul\":1298:1414   */\n  pop\n  jump\t// out\n    /* \"#utility.yul\":1420:1557   */\ntag_20:\n    /* \"#utility.yul\":1474:1479   */\n  0x00\n    /* \"#utility.yul\":1505:1511   */\n  dup2\n    /* \"#utility.yul\":1499:1512   */\n  mload\n    /* \"#utility.yul\":1490:1512   */\n  swap1\n  pop\n    /* \"#utility.yul\":1521:1551   */\n  tag_42\n    /* \"#utility.yul\":1545:1550   */\n  dup2\n    /* \"#utility.yul\":1521:1551   */\n  tag_19\n  jump\t// in\ntag_42:\n    /* \"#utility.yul\":1420:1557   */\n  swap3\n  swap2\n  pop\n  pop\n  jump\t// out\n    /* \"#utility.yul\":1563:1908   */\ntag_9:\n    /* \"#utility.yul\":1630:1636   */\n  0x00\n    /* \"#utility.yul\":1679:1681   */\n  0x20\n    /* \"#utility.yul\":1667:1676   */\n  dup3\n    /* \"#utility.yul\":1658:1665   */\n  dup5\n    /* \"#utility.yul\":1654:1677   */\n  sub\n    /* \"#utility.yul\":1650:1682   */\n  slt\n    /* \"#utility.yul\":1647:1766   */\n  iszero\n  tag_44\n  jumpi\n    /* \"#utility.yul\":1685:1764   */\n  tag_45\n  tag_12\n  jump\t// in\ntag_45:\n    /* \"#utility.yul\":1647:1766   */\ntag_44:\n    /* \"#utility.yul\":1805:1806   */\n  0x00\n    /* \"#utility.yul\":1830:1891   */\n  tag_46\n    /* \"#utility.yul\":1883:1890   */\n  dup5\n    /* \"#utility.yul\":1874:1880   */\n  dup3\n    /* \"#utility.yul\":1863:1872   */\n  dup6\n    /* \"#utility.yul\":1859:1881   */\n  add\n    /* \"#utility.yul\":1830:1891   */\n  tag_20\n  jump\t// in\ntag_46:\n    /* \"#utility.yul\":1820:1891   */\n  swap2\n  pop\n    /* \"#utility.yul\":1776:1901   */\n  pop\n    /* \"#utility.yul\":1563:1908   */\n  swap3\n  swap2\n  pop\n  pop\n  jump\t// out\n    /* \"withdraw_pattern.sol\":1242:1470  contract Attacker {... */\ntag_10:\n  dataSize(sub_0)\n  dup1\n  dataOffset(sub_0)\n  0x00\n  codecopy\n  0x00\n  return\nstop\n\nsub_0: assembly {\n        /* \"withdraw_pattern.sol\":1242:1470  contract Attacker {... */\n      mstore(0x40, 0x80)\n      callvalue\n      dup1\n      iszero\n      tag_1\n      jumpi\n      0x00\n      dup1\n      revert\n    tag_1:\n      pop\n      jumpi(tag_2, lt(calldatasize, 0x04))\n      shr(0xe0, calldataload(0x00))\n      dup1\n      0x406daca1\n      eq\n      tag_3\n      jumpi\n    tag_2:\n      0x00\n      dup1\n      revert\n        /* \"withdraw_pattern.sol\":1293:1315  bool public trickedYou */\n    tag_3:\n      tag_4\n      tag_5\n      jump\t// in\n    tag_4:\n      mload(0x40)\n      tag_6\n      swap2\n      swap1\n      tag_7\n      jump\t// in\n    tag_6:\n      mload(0x40)\n      dup1\n      swap2\n      sub\n      swap1\n      return\n    tag_5:\n      0x00\n      0x14\n      swap1\n      sload\n      swap1\n      0x0100\n      exp\n      swap1\n      div\n      0xff\n      and\n      dup2\n      jump\t// out\n        /* \"#utility.yul\":7:97   */\n    tag_8:\n        /* \"#utility.yul\":41:48   */\n      0x00\n        /* \"#utility.yul\":84:89   */\n      dup2\n        /* \"#utility.yul\":77:90   */\n      iszero\n        /* \"#utility.yul\":70:91   */\n      iszero\n        /* \"#utility.yul\":59:91   */\n      swap1\n      pop\n        /* \"#utility.yul\":7:97   */\n      swap2\n      swap1\n      pop\n      jump\t// out\n        /* \"#utility.yul\":103:212   */\n    tag_9:\n        /* \"#utility.yul\":184:205   */\n      tag_13\n        /* \"#utility.yul\":199:204   */\n      dup2\n        /* \"#utility.yul\":184:205   */\n      tag_8\n      jump\t// in\n    tag_13:\n        /* \"#utility.yul\":179:182   */\n      dup3\n        /* \"#utility.yul\":172:206   */\n      mstore\n        /* \"#utility.yul\":103:212   */\n      pop\n      pop\n      jump\t// out\n        /* \"#utility.yul\":218:428   */\n    tag_7:\n        /* \"#utility.yul\":305:309   */\n      0x00\n        /* \"#utility.yul\":343:345   */\n      0x20\n        /* \"#utility.yul\":332:341   */\n      dup3\n        /* \"#utility.yul\":328:346   */\n      add\n        /* \"#utility.yul\":320:346   */\n      swap1\n      pop\n        /* \"#utility.yul\":356:421   */\n      tag_15\n        /* \"#utility.yul\":418:419   */\n      0x00\n        /* \"#utility.yul\":407:416   */\n      dup4\n        /* \"#utility.yul\":403:420   */\n      add\n        /* \"#utility.yul\":394:400   */\n      dup5\n        /* \"#utility.yul\":356:421   */\n      tag_9\n      jump\t// in\n    tag_15:\n        /* \"#utility.yul\":218:428   */\n      swap3\n      swap2\n      pop\n      pop\n      jump\t// out\n\n    auxdata: 0xa26469706673582212203b7e1602a7c47cda70519d3b62f0f3aaf40595df605032904068d2a29e2f1a4664736f6c634300081a0033\n}\n",
				"bytecode": {
					"linkReferences": {},
					"object": "608060405234801561000f575f80fd5b506040516102cb3803806102cb83398181016040528101906100319190610179565b805f806101000a81548173ffffffffffffffffffffffffffffffffffffffff021916908373ffffffffffffffffffffffffffffffffffffffff1602179055505f8054906101000a900473ffffffffffffffffffffffffffffffffffffffff1673ffffffffffffffffffffffffffffffffffffffff166363bae9626040518163ffffffff1660e01b8152600401602060405180830381865afa1580156100d8573d5f803e3d5ffd5b505050506040513d601f19601f820116820180604052508101906100fc91906101d9565b155f60146101000a81548160ff02191690831515021790555050610204565b5f80fd5b5f73ffffffffffffffffffffffffffffffffffffffff82169050919050565b5f6101488261011f565b9050919050565b6101588161013e565b8114610162575f80fd5b50565b5f815190506101738161014f565b92915050565b5f6020828403121561018e5761018d61011b565b5b5f61019b84828501610165565b91505092915050565b5f8115159050919050565b6101b8816101a4565b81146101c2575f80fd5b50565b5f815190506101d3816101af565b92915050565b5f602082840312156101ee576101ed61011b565b5b5f6101fb848285016101c5565b91505092915050565b60bb806102105f395ff3fe6080604052348015600e575f80fd5b50600436106026575f3560e01c8063406daca114602a575b5f80fd5b60306044565b604051603b9190606e565b60405180910390f35b5f60149054906101000a900460ff1681565b5f8115159050919050565b6068816056565b82525050565b5f602082019050607f5f8301846061565b9291505056fea26469706673582212203b7e1602a7c47cda70519d3b62f0f3aaf40595df605032904068d2a29e2f1a4664736f6c634300081a0033",
					"opcodes": "PUSH1 0x80 PUSH1 0x40 MSTORE CALLVALUE DUP1 ISZERO PUSH2 0xF JUMPI PUSH0 DUP1 REVERT JUMPDEST POP PUSH1 0x40 MLOAD PUSH2 0x2CB CODESIZE SUB DUP1 PUSH2 0x2CB DUP4 CODECOPY DUP2 DUP2 ADD PUSH1 0x40 MSTORE DUP2 ADD SWAP1 PUSH2 0x31 SWAP2 SWAP1 PUSH2 0x179 JUMP JUMPDEST DUP1 PUSH0 DUP1 PUSH2 0x100 EXP DUP2 SLOAD DUP2 PUSH20 0xFFFFFFFFFFFFFFFFFFFFFFFFFFFFFFFFFFFFFFFF MUL NOT AND SWAP1 DUP4 PUSH20 0xFFFFFFFFFFFFFFFFFFFFFFFFFFFFFFFFFFFFFFFF AND MUL OR SWAP1 SSTORE POP PUSH0 DUP1 SLOAD SWAP1 PUSH2 0x100 EXP SWAP1 DIV PUSH20 0xFFFFFFFFFFFFFFFFFFFFFFFFFFFFFFFFFFFFFFFF AND PUSH20 0xFFFFFFFFFFFFFFFFFFFFFFFFFFFFFFFFFFFFFFFF AND PUSH4 0x63BAE962 PUSH1 0x40 MLOAD DUP2 PUSH4 0xFFFFFFFF AND PUSH1 0xE0 SHL DUP2 MSTORE PUSH1 0x4 ADD PUSH1 0x20 PUSH1 0x40 MLOAD DUP1 DUP4 SUB DUP2 DUP7 GAS STATICCALL ISZERO DUP1 ISZERO PUSH2 0xD8 JUMPI RETURNDATASIZE PUSH0 DUP1 RETURNDATACOPY RETURNDATASIZE PUSH0 REVERT JUMPDEST POP POP POP POP PUSH1 0x40 MLOAD RETURNDATASIZE PUSH1 0x1F NOT PUSH1 0x1F DUP3 ADD AND DUP3 ADD DUP1 PUSH1 0x40 MSTORE POP DUP2 ADD SWAP1 PUSH2 0xFC SWAP2 SWAP1 PUSH2 0x1D9 JUMP JUMPDEST ISZERO PUSH0 PUSH1 0x14 PUSH2 0x100 EXP DUP2 SLOAD DUP2 PUSH1 0xFF MUL NOT AND SWAP1 DUP4 ISZERO ISZERO MUL OR SWAP1 SSTORE POP POP PUSH2 0x204 JUMP JUMPDEST PUSH0 DUP1 REVERT JUMPDEST PUSH0 PUSH20 0xFFFFFFFFFFFFFFFFFFFFFFFFFFFFFFFFFFFFFFFF DUP3 AND SWAP1 POP SWAP2 SWAP1 POP JUMP JUMPDEST PUSH0 PUSH2 0x148 DUP3 PUSH2 0x11F JUMP JUMPDEST SWAP1 POP SWAP2 SWAP1 POP JUMP JUMPDEST PUSH2 0x158 DUP2 PUSH2 0x13E JUMP JUMPDEST DUP2 EQ PUSH2 0x162 JUMPI PUSH0 DUP1 REVERT JUMPDEST POP JUMP JUMPDEST PUSH0 DUP2 MLOAD SWAP1 POP PUSH2 0x173 DUP2 PUSH2 0x14F JUMP JUMPDEST SWAP3 SWAP2 POP POP JUMP JUMPDEST PUSH0 PUSH1 0x20 DUP3 DUP5 SUB SLT ISZERO PUSH2 0x18E JUMPI PUSH2 0x18D PUSH2 0x11B JUMP JUMPDEST JUMPDEST PUSH0 PUSH2 0x19B DUP5 DUP3 DUP6 ADD PUSH2 0x165 JUMP JUMPDEST SWAP2 POP POP SWAP3 SWAP2 POP POP JUMP JUMPDEST PUSH0 DUP2 ISZERO ISZERO SWAP1 POP SWAP2 SWAP1 POP JUMP JUMPDEST PUSH2 0x1B8 DUP2 PUSH2 0x1A4 JUMP JUMPDEST DUP2 EQ PUSH2 0x1C2 JUMPI PUSH0 DUP1 REVERT JUMPDEST POP JUMP JUMPDEST PUSH0 DUP2 MLOAD SWAP1 POP PUSH2 0x1D3 DUP2 PUSH2 0x1AF JUMP JUMPDEST SWAP3 SWAP2 POP POP JUMP JUMPDEST PUSH0 PUSH1 0x20 DUP3 DUP5 SUB SLT ISZERO PUSH2 0x1EE JUMPI PUSH2 0x1ED PUSH2 0x11B JUMP JUMPDEST JUMPDEST PUSH0 PUSH2 0x1FB DUP5 DUP3 DUP6 ADD PUSH2 0x1C5 JUMP JUMPDEST SWAP2 POP POP SWAP3 SWAP2 POP POP JUMP JUMPDEST PUSH1 0xBB DUP1 PUSH2 0x210 PUSH0 CODECOPY PUSH0 RETURN INVALID PUSH1 0x80 PUSH1 0x40 MSTORE CALLVALUE DUP1 ISZERO PUSH1 0xE JUMPI PUSH0 DUP1 REVERT JUMPDEST POP PUSH1 0x4 CALLDATASIZE LT PUSH1 0x26 JUMPI PUSH0 CALLDATALOAD PUSH1 0xE0 SHR DUP1 PUSH4 0x406DACA1 EQ PUSH1 0x2A JUMPI JUMPDEST PUSH0 DUP1 REVERT JUMPDEST PUSH1 0x30 PUSH1 0x44 JUMP JUMPDEST PUSH1 0x40 MLOAD PUSH1 0x3B SWAP2 SWAP1 PUSH1 0x6E JUMP JUMPDEST PUSH1 0x40 MLOAD DUP1 SWAP2 SUB SWAP1 RETURN JUMPDEST PUSH0 PUSH1 0x14 SWAP1 SLOAD SWAP1 PUSH2 0x100 EXP SWAP1 DIV PUSH1 0xFF AND DUP2 JUMP JUMPDEST PUSH0 DUP2 ISZERO ISZERO SWAP1 POP SWAP2 SWAP1 POP JUMP JUMPDEST PUSH1 0x68 DUP2 PUSH1 0x56 JUMP JUMPDEST DUP3 MSTORE POP POP JUMP JUMPDEST PUSH0 PUSH1 0x20 DUP3 ADD SWAP1 POP PUSH1 0x7F PUSH0 DUP4 ADD DUP5 PUSH1 0x61 JUMP JUMPDEST SWAP3 SWAP2 POP POP JUMP INVALID LOG2 PUSH5 0x6970667358 0x22 SLT KECCAK256 EXTCODESIZE PUSH31 0x1602A7C47CDA70519D3B62F0F3AAF40595DF605032904068D2A29E2F1A4664 PUSH20 0x6F6C634300081A00330000000000000000000000 "
				},
				"gasEstimates": {
					"creation": {
						"codeDepositCost": "37400",
						"executionCost": "infinite",
						"totalCost": "infinite"
					},
					"external": {
						"trickedYou()": "2494"
					}
				},
				"methodIdentifiers": {
					"trickedYou()": "406daca1"
				}
			},
			"storageLayout": {
				"storage": [
					{
						"astId": 4,
						"contract": "withdraw_pattern.sol:Attacker",
						"label": "victimContract",
						"offset": 0,
						"slot": "0",
						"type": "t_contract(Victim)47"
					},
					{
						"astId": 6,
						"contract": "withdraw_pattern.sol:Attacker",
						"label": "trickedYou",
						"offset": 20,
						"slot": "0",
						"type": "t_bool"
					}
				],
				"types": {
					"t_bool": {
						"encoding": "inplace",
						"label": "bool",
						"numberOfBytes": "1"
					},
					"t_contract(Victim)47": {
						"encoding": "inplace",
						"label": "contract Victim",
						"numberOfBytes": "20"
					}
				}
			},
			"userdoc": {
				"kind": "user",
				"methods": {},
				"version": 1
			}
		}
	}
}