{
	"contracts/algorithms.sol": {
		"GeneratingRandomNumber": {
			"abi": [
				{
					"inputs": [
						{
							"internalType": "uint256",
							"name": "range",
							"type": "uint256"
						}
					],
					"name": "randMod",
					"outputs": [
						{
							"internalType": "uint256",
							"name": "",
							"type": "uint256"
						}
					],
					"stateMutability": "view",
					"type": "function"
				}
			],
			"devdoc": {
				"kind": "dev",
				"methods": {},
				"version": 1
			},
			"evm": {
				"assembly": "    /* \"contracts/algorithms.sol\":136:991  contract GeneratingRandomNumber {... */\n  mstore(0x40, 0x80)\n  callvalue\n  dup1\n  iszero\n  tag_1\n  jumpi\n  0x00\n  dup1\n  revert\ntag_1:\n  pop\n  dataSize(sub_0)\n  dup1\n  dataOffset(sub_0)\n  0x00\n  codecopy\n  0x00\n  return\nstop\n\nsub_0: assembly {\n        /* \"contracts/algorithms.sol\":136:991  contract GeneratingRandomNumber {... */\n      mstore(0x40, 0x80)\n      callvalue\n      dup1\n      iszero\n      tag_1\n      jumpi\n      0x00\n      dup1\n      revert\n    tag_1:\n      pop\n      jumpi(tag_2, lt(calldatasize, 0x04))\n      shr(0xe0, calldataload(0x00))\n      dup1\n      0x805553e8\n      eq\n      tag_3\n      jumpi\n    tag_2:\n      0x00\n      dup1\n      revert\n        /* \"contracts/algorithms.sol\":437:989  function randMod(uint256 range) external view returns (uint256) {... */\n    tag_3:\n      tag_4\n      0x04\n      dup1\n      calldatasize\n      sub\n      dup2\n      add\n      swap1\n      tag_5\n      swap2\n      swap1\n      tag_6\n      jump\t// in\n    tag_5:\n      tag_7\n      jump\t// in\n    tag_4:\n      mload(0x40)\n      tag_8\n      swap2\n      swap1\n      tag_9\n      jump\t// in\n    tag_8:\n      mload(0x40)\n      dup1\n      swap2\n      sub\n      swap1\n      return\n    tag_7:\n        /* \"contracts/algorithms.sol\":492:499  uint256 */\n      0x00\n        /* \"contracts/algorithms.sol\":527:528  0 */\n      dup1\n        /* \"contracts/algorithms.sol\":519:524  range */\n      dup3\n        /* \"contracts/algorithms.sol\":519:528  range > 0 */\n      gt\n        /* \"contracts/algorithms.sol\":511:555  require(range > 0, \"Range must be positive\") */\n      tag_11\n      jumpi\n      mload(0x40)\n      0x08c379a000000000000000000000000000000000000000000000000000000000\n      dup2\n      mstore\n      0x04\n      add\n      tag_12\n      swap1\n      tag_13\n      jump\t// in\n    tag_12:\n      mload(0x40)\n      dup1\n      swap2\n      sub\n      swap1\n      revert\n    tag_11:\n        /* \"contracts/algorithms.sol\":977:982  range */\n      dup2\n        /* \"contracts/algorithms.sol\":776:791  block.timestamp */\n      timestamp\n        /* \"contracts/algorithms.sol\":817:833  block.prevrandao */\n      prevrandao\n        /* \"contracts/algorithms.sol\":910:920  msg.sender */\n      caller\n        /* \"contracts/algorithms.sol\":734:942  abi.encodePacked(... */\n      add(0x20, mload(0x40))\n      tag_14\n      swap4\n      swap3\n      swap2\n      swap1\n      tag_15\n      jump\t// in\n    tag_14:\n      mload(0x40)\n      0x20\n      dup2\n      dup4\n      sub\n      sub\n      dup2\n      mstore\n      swap1\n      0x40\n      mstore\n        /* \"contracts/algorithms.sol\":703:960  keccak256(... */\n      dup1\n      mload\n      swap1\n      0x20\n      add\n      keccak256\n        /* \"contracts/algorithms.sol\":678:974  uint256(... */\n      0x00\n      shr\n        /* \"contracts/algorithms.sol\":678:982  uint256(... */\n      tag_16\n      swap2\n      swap1\n      tag_17\n      jump\t// in\n    tag_16:\n        /* \"contracts/algorithms.sol\":659:982  return... */\n      swap1\n      pop\n        /* \"contracts/algorithms.sol\":437:989  function randMod(uint256 range) external view returns (uint256) {... */\n      swap2\n      swap1\n      pop\n      jump\t// out\n        /* \"#utility.yul\":88:205   */\n    tag_19:\n        /* \"#utility.yul\":197:198   */\n      0x00\n        /* \"#utility.yul\":194:195   */\n      dup1\n        /* \"#utility.yul\":187:199   */\n      revert\n        /* \"#utility.yul\":334:411   */\n    tag_21:\n        /* \"#utility.yul\":371:378   */\n      0x00\n        /* \"#utility.yul\":400:405   */\n      dup2\n        /* \"#utility.yul\":389:405   */\n      swap1\n      pop\n        /* \"#utility.yul\":334:411   */\n      swap2\n      swap1\n      pop\n      jump\t// out\n        /* \"#utility.yul\":417:539   */\n    tag_22:\n        /* \"#utility.yul\":490:514   */\n      tag_43\n        /* \"#utility.yul\":508:513   */\n      dup2\n        /* \"#utility.yul\":490:514   */\n      tag_21\n      jump\t// in\n    tag_43:\n        /* \"#utility.yul\":483:488   */\n      dup2\n        /* \"#utility.yul\":480:515   */\n      eq\n        /* \"#utility.yul\":470:533   */\n      tag_44\n      jumpi\n        /* \"#utility.yul\":529:530   */\n      0x00\n        /* \"#utility.yul\":526:527   */\n      dup1\n        /* \"#utility.yul\":519:531   */\n      revert\n        /* \"#utility.yul\":470:533   */\n    tag_44:\n        /* \"#utility.yul\":417:539   */\n      pop\n      jump\t// out\n        /* \"#utility.yul\":545:684   */\n    tag_23:\n        /* \"#utility.yul\":591:596   */\n      0x00\n        /* \"#utility.yul\":629:635   */\n      dup2\n        /* \"#utility.yul\":616:636   */\n      calldataload\n        /* \"#utility.yul\":607:636   */\n      swap1\n      pop\n        /* \"#utility.yul\":645:678   */\n      tag_46\n        /* \"#utility.yul\":672:677   */\n      dup2\n        /* \"#utility.yul\":645:678   */\n      tag_22\n      jump\t// in\n    tag_46:\n        /* \"#utility.yul\":545:684   */\n      swap3\n      swap2\n      pop\n      pop\n      jump\t// out\n        /* \"#utility.yul\":690:1019   */\n    tag_6:\n        /* \"#utility.yul\":749:755   */\n      0x00\n        /* \"#utility.yul\":798:800   */\n      0x20\n        /* \"#utility.yul\":786:795   */\n      dup3\n        /* \"#utility.yul\":777:784   */\n      dup5\n        /* \"#utility.yul\":773:796   */\n      sub\n        /* \"#utility.yul\":769:801   */\n      slt\n        /* \"#utility.yul\":766:885   */\n      iszero\n      tag_48\n      jumpi\n        /* \"#utility.yul\":804:883   */\n      tag_49\n      tag_19\n      jump\t// in\n    tag_49:\n        /* \"#utility.yul\":766:885   */\n    tag_48:\n        /* \"#utility.yul\":924:925   */\n      0x00\n        /* \"#utility.yul\":949:1002   */\n      tag_50\n        /* \"#utility.yul\":994:1001   */\n      dup5\n        /* \"#utility.yul\":985:991   */\n      dup3\n        /* \"#utility.yul\":974:983   */\n      dup6\n        /* \"#utility.yul\":970:992   */\n      add\n        /* \"#utility.yul\":949:1002   */\n      tag_23\n      jump\t// in\n    tag_50:\n        /* \"#utility.yul\":939:1002   */\n      swap2\n      pop\n        /* \"#utility.yul\":895:1012   */\n      pop\n        /* \"#utility.yul\":690:1019   */\n      swap3\n      swap2\n      pop\n      pop\n      jump\t// out\n        /* \"#utility.yul\":1025:1143   */\n    tag_24:\n        /* \"#utility.yul\":1112:1136   */\n      tag_52\n        /* \"#utility.yul\":1130:1135   */\n      dup2\n        /* \"#utility.yul\":1112:1136   */\n      tag_21\n      jump\t// in\n    tag_52:\n        /* \"#utility.yul\":1107:1110   */\n      dup3\n        /* \"#utility.yul\":1100:1137   */\n      mstore\n        /* \"#utility.yul\":1025:1143   */\n      pop\n      pop\n      jump\t// out\n        /* \"#utility.yul\":1149:1371   */\n    tag_9:\n        /* \"#utility.yul\":1242:1246   */\n      0x00\n        /* \"#utility.yul\":1280:1282   */\n      0x20\n        /* \"#utility.yul\":1269:1278   */\n      dup3\n        /* \"#utility.yul\":1265:1283   */\n      add\n        /* \"#utility.yul\":1257:1283   */\n      swap1\n      pop\n        /* \"#utility.yul\":1293:1364   */\n      tag_54\n        /* \"#utility.yul\":1361:1362   */\n      0x00\n        /* \"#utility.yul\":1350:1359   */\n      dup4\n        /* \"#utility.yul\":1346:1363   */\n      add\n        /* \"#utility.yul\":1337:1343   */\n      dup5\n        /* \"#utility.yul\":1293:1364   */\n      tag_24\n      jump\t// in\n    tag_54:\n        /* \"#utility.yul\":1149:1371   */\n      swap3\n      swap2\n      pop\n      pop\n      jump\t// out\n        /* \"#utility.yul\":1377:1546   */\n    tag_25:\n        /* \"#utility.yul\":1461:1472   */\n      0x00\n        /* \"#utility.yul\":1495:1501   */\n      dup3\n        /* \"#utility.yul\":1490:1493   */\n      dup3\n        /* \"#utility.yul\":1483:1502   */\n      mstore\n        /* \"#utility.yul\":1535:1539   */\n      0x20\n        /* \"#utility.yul\":1530:1533   */\n      dup3\n        /* \"#utility.yul\":1526:1540   */\n      add\n        /* \"#utility.yul\":1511:1540   */\n      swap1\n      pop\n        /* \"#utility.yul\":1377:1546   */\n      swap3\n      swap2\n      pop\n      pop\n      jump\t// out\n        /* \"#utility.yul\":1552:1724   */\n    tag_26:\n        /* \"#utility.yul\":1692:1716   */\n      0x52616e6765206d75737420626520706f73697469766500000000000000000000\n        /* \"#utility.yul\":1688:1689   */\n      0x00\n        /* \"#utility.yul\":1680:1686   */\n      dup3\n        /* \"#utility.yul\":1676:1690   */\n      add\n        /* \"#utility.yul\":1669:1717   */\n      mstore\n        /* \"#utility.yul\":1552:1724   */\n      pop\n      jump\t// out\n        /* \"#utility.yul\":1730:2096   */\n    tag_27:\n        /* \"#utility.yul\":1872:1875   */\n      0x00\n        /* \"#utility.yul\":1893:1960   */\n      tag_58\n        /* \"#utility.yul\":1957:1959   */\n      0x16\n        /* \"#utility.yul\":1952:1955   */\n      dup4\n        /* \"#utility.yul\":1893:1960   */\n      tag_25\n      jump\t// in\n    tag_58:\n        /* \"#utility.yul\":1886:1960   */\n      swap2\n      pop\n        /* \"#utility.yul\":1969:2062   */\n      tag_59\n        /* \"#utility.yul\":2058:2061   */\n      dup3\n        /* \"#utility.yul\":1969:2062   */\n      tag_26\n      jump\t// in\n    tag_59:\n        /* \"#utility.yul\":2087:2089   */\n      0x20\n        /* \"#utility.yul\":2082:2085   */\n      dup3\n        /* \"#utility.yul\":2078:2090   */\n      add\n        /* \"#utility.yul\":2071:2090   */\n      swap1\n      pop\n        /* \"#utility.yul\":1730:2096   */\n      swap2\n      swap1\n      pop\n      jump\t// out\n        /* \"#utility.yul\":2102:2521   */\n    tag_13:\n        /* \"#utility.yul\":2268:2272   */\n      0x00\n        /* \"#utility.yul\":2306:2308   */\n      0x20\n        /* \"#utility.yul\":2295:2304   */\n      dup3\n        /* \"#utility.yul\":2291:2309   */\n      add\n        /* \"#utility.yul\":2283:2309   */\n      swap1\n      pop\n        /* \"#utility.yul\":2355:2364   */\n      dup2\n        /* \"#utility.yul\":2349:2353   */\n      dup2\n        /* \"#utility.yul\":2345:2365   */\n      sub\n        /* \"#utility.yul\":2341:2342   */\n      0x00\n        /* \"#utility.yul\":2330:2339   */\n      dup4\n        /* \"#utility.yul\":2326:2343   */\n      add\n        /* \"#utility.yul\":2319:2366   */\n      mstore\n        /* \"#utility.yul\":2383:2514   */\n      tag_61\n        /* \"#utility.yul\":2509:2513   */\n      dup2\n        /* \"#utility.yul\":2383:2514   */\n      tag_27\n      jump\t// in\n    tag_61:\n        /* \"#utility.yul\":2375:2514   */\n      swap1\n      pop\n        /* \"#utility.yul\":2102:2521   */\n      swap2\n      swap1\n      pop\n      jump\t// out\n        /* \"#utility.yul\":2527:2606   */\n    tag_28:\n        /* \"#utility.yul\":2566:2573   */\n      0x00\n        /* \"#utility.yul\":2595:2600   */\n      dup2\n        /* \"#utility.yul\":2584:2600   */\n      swap1\n      pop\n        /* \"#utility.yul\":2527:2606   */\n      swap2\n      swap1\n      pop\n      jump\t// out\n        /* \"#utility.yul\":2612:2769   */\n    tag_29:\n        /* \"#utility.yul\":2717:2762   */\n      tag_64\n        /* \"#utility.yul\":2737:2761   */\n      tag_65\n        /* \"#utility.yul\":2755:2760   */\n      dup3\n        /* \"#utility.yul\":2737:2761   */\n      tag_21\n      jump\t// in\n    tag_65:\n        /* \"#utility.yul\":2717:2762   */\n      tag_28\n      jump\t// in\n    tag_64:\n        /* \"#utility.yul\":2712:2715   */\n      dup3\n        /* \"#utility.yul\":2705:2763   */\n      mstore\n        /* \"#utility.yul\":2612:2769   */\n      pop\n      pop\n      jump\t// out\n        /* \"#utility.yul\":2775:2901   */\n    tag_30:\n        /* \"#utility.yul\":2812:2819   */\n      0x00\n        /* \"#utility.yul\":2852:2894   */\n      0xffffffffffffffffffffffffffffffffffffffff\n        /* \"#utility.yul\":2845:2850   */\n      dup3\n        /* \"#utility.yul\":2841:2895   */\n      and\n        /* \"#utility.yul\":2830:2895   */\n      swap1\n      pop\n        /* \"#utility.yul\":2775:2901   */\n      swap2\n      swap1\n      pop\n      jump\t// out\n        /* \"#utility.yul\":2907:3003   */\n    tag_31:\n        /* \"#utility.yul\":2944:2951   */\n      0x00\n        /* \"#utility.yul\":2973:2997   */\n      tag_68\n        /* \"#utility.yul\":2991:2996   */\n      dup3\n        /* \"#utility.yul\":2973:2997   */\n      tag_30\n      jump\t// in\n    tag_68:\n        /* \"#utility.yul\":2962:2997   */\n      swap1\n      pop\n        /* \"#utility.yul\":2907:3003   */\n      swap2\n      swap1\n      pop\n      jump\t// out\n        /* \"#utility.yul\":3009:3103   */\n    tag_32:\n        /* \"#utility.yul\":3042:3050   */\n      0x00\n        /* \"#utility.yul\":3090:3095   */\n      dup2\n        /* \"#utility.yul\":3086:3088   */\n      0x60\n        /* \"#utility.yul\":3082:3096   */\n      shl\n        /* \"#utility.yul\":3061:3096   */\n      swap1\n      pop\n        /* \"#utility.yul\":3009:3103   */\n      swap2\n      swap1\n      pop\n      jump\t// out\n        /* \"#utility.yul\":3109:3203   */\n    tag_33:\n        /* \"#utility.yul\":3148:3155   */\n      0x00\n        /* \"#utility.yul\":3177:3197   */\n      tag_71\n        /* \"#utility.yul\":3191:3196   */\n      dup3\n        /* \"#utility.yul\":3177:3197   */\n      tag_32\n      jump\t// in\n    tag_71:\n        /* \"#utility.yul\":3166:3197   */\n      swap1\n      pop\n        /* \"#utility.yul\":3109:3203   */\n      swap2\n      swap1\n      pop\n      jump\t// out\n        /* \"#utility.yul\":3209:3309   */\n    tag_34:\n        /* \"#utility.yul\":3248:3255   */\n      0x00\n        /* \"#utility.yul\":3277:3303   */\n      tag_73\n        /* \"#utility.yul\":3297:3302   */\n      dup3\n        /* \"#utility.yul\":3277:3303   */\n      tag_33\n      jump\t// in\n    tag_73:\n        /* \"#utility.yul\":3266:3303   */\n      swap1\n      pop\n        /* \"#utility.yul\":3209:3309   */\n      swap2\n      swap1\n      pop\n      jump\t// out\n        /* \"#utility.yul\":3315:3472   */\n    tag_35:\n        /* \"#utility.yul\":3420:3465   */\n      tag_75\n        /* \"#utility.yul\":3440:3464   */\n      tag_76\n        /* \"#utility.yul\":3458:3463   */\n      dup3\n        /* \"#utility.yul\":3440:3464   */\n      tag_31\n      jump\t// in\n    tag_76:\n        /* \"#utility.yul\":3420:3465   */\n      tag_34\n      jump\t// in\n    tag_75:\n        /* \"#utility.yul\":3415:3418   */\n      dup3\n        /* \"#utility.yul\":3408:3466   */\n      mstore\n        /* \"#utility.yul\":3315:3472   */\n      pop\n      pop\n      jump\t// out\n        /* \"#utility.yul\":3478:4016   */\n    tag_15:\n        /* \"#utility.yul\":3646:3649   */\n      0x00\n        /* \"#utility.yul\":3661:3736   */\n      tag_78\n        /* \"#utility.yul\":3732:3735   */\n      dup3\n        /* \"#utility.yul\":3723:3729   */\n      dup7\n        /* \"#utility.yul\":3661:3736   */\n      tag_29\n      jump\t// in\n    tag_78:\n        /* \"#utility.yul\":3761:3763   */\n      0x20\n        /* \"#utility.yul\":3756:3759   */\n      dup3\n        /* \"#utility.yul\":3752:3764   */\n      add\n        /* \"#utility.yul\":3745:3764   */\n      swap2\n      pop\n        /* \"#utility.yul\":3774:3849   */\n      tag_79\n        /* \"#utility.yul\":3845:3848   */\n      dup3\n        /* \"#utility.yul\":3836:3842   */\n      dup6\n        /* \"#utility.yul\":3774:3849   */\n      tag_29\n      jump\t// in\n    tag_79:\n        /* \"#utility.yul\":3874:3876   */\n      0x20\n        /* \"#utility.yul\":3869:3872   */\n      dup3\n        /* \"#utility.yul\":3865:3877   */\n      add\n        /* \"#utility.yul\":3858:3877   */\n      swap2\n      pop\n        /* \"#utility.yul\":3887:3962   */\n      tag_80\n        /* \"#utility.yul\":3958:3961   */\n      dup3\n        /* \"#utility.yul\":3949:3955   */\n      dup5\n        /* \"#utility.yul\":3887:3962   */\n      tag_35\n      jump\t// in\n    tag_80:\n        /* \"#utility.yul\":3987:3989   */\n      0x14\n        /* \"#utility.yul\":3982:3985   */\n      dup3\n        /* \"#utility.yul\":3978:3990   */\n      add\n        /* \"#utility.yul\":3971:3990   */\n      swap2\n      pop\n        /* \"#utility.yul\":4007:4010   */\n      dup2\n        /* \"#utility.yul\":4000:4010   */\n      swap1\n      pop\n        /* \"#utility.yul\":3478:4016   */\n      swap5\n      swap4\n      pop\n      pop\n      pop\n      pop\n      jump\t// out\n        /* \"#utility.yul\":4022:4202   */\n    tag_36:\n        /* \"#utility.yul\":4070:4147   */\n      0x4e487b7100000000000000000000000000000000000000000000000000000000\n        /* \"#utility.yul\":4067:4068   */\n      0x00\n        /* \"#utility.yul\":4060:4148   */\n      mstore\n        /* \"#utility.yul\":4167:4171   */\n      0x12\n        /* \"#utility.yul\":4164:4165   */\n      0x04\n        /* \"#utility.yul\":4157:4172   */\n      mstore\n        /* \"#utility.yul\":4191:4195   */\n      0x24\n        /* \"#utility.yul\":4188:4189   */\n      0x00\n        /* \"#utility.yul\":4181:4196   */\n      revert\n        /* \"#utility.yul\":4208:4384   */\n    tag_17:\n        /* \"#utility.yul\":4240:4241   */\n      0x00\n        /* \"#utility.yul\":4257:4277   */\n      tag_83\n        /* \"#utility.yul\":4275:4276   */\n      dup3\n        /* \"#utility.yul\":4257:4277   */\n      tag_21\n      jump\t// in\n    tag_83:\n        /* \"#utility.yul\":4252:4277   */\n      swap2\n      pop\n        /* \"#utility.yul\":4291:4311   */\n      tag_84\n        /* \"#utility.yul\":4309:4310   */\n      dup4\n        /* \"#utility.yul\":4291:4311   */\n      tag_21\n      jump\t// in\n    tag_84:\n        /* \"#utility.yul\":4286:4311   */\n      swap3\n      pop\n        /* \"#utility.yul\":4330:4331   */\n      dup3\n        /* \"#utility.yul\":4320:4355   */\n      tag_85\n      jumpi\n        /* \"#utility.yul\":4335:4353   */\n      tag_86\n      tag_36\n      jump\t// in\n    tag_86:\n        /* \"#utility.yul\":4320:4355   */\n    tag_85:\n        /* \"#utility.yul\":4376:4377   */\n      dup3\n        /* \"#utility.yul\":4373:4374   */\n      dup3\n        /* \"#utility.yul\":4369:4378   */\n      mod\n        /* \"#utility.yul\":4364:4378   */\n      swap1\n      pop\n        /* \"#utility.yul\":4208:4384   */\n      swap3\n      swap2\n      pop\n      pop\n      jump\t// out\n\n    auxdata: 0xa2646970667358221220abe4cbf218876ba95728249cf867a5c6dbe8c0952de1591de9ffd0e8ab65818e64736f6c634300081a0033\n}\n",
				"bytecode": {
					"linkReferences": {},
					"object": "6080604052348015600e575f80fd5b506103458061001c5f395ff3fe608060405234801561000f575f80fd5b5060043610610029575f3560e01c8063805553e81461002d575b5f80fd5b61004760048036038101906100429190610116565b61005d565b6040516100549190610150565b60405180910390f35b5f8082116100a0576040517f08c379a0000000000000000000000000000000000000000000000000000000008152600401610097906101c3565b60405180910390fd5b814244336040516020016100b693929190610276565b604051602081830303815290604052805190602001205f1c6100d891906102df565b9050919050565b5f80fd5b5f819050919050565b6100f5816100e3565b81146100ff575f80fd5b50565b5f81359050610110816100ec565b92915050565b5f6020828403121561012b5761012a6100df565b5b5f61013884828501610102565b91505092915050565b61014a816100e3565b82525050565b5f6020820190506101635f830184610141565b92915050565b5f82825260208201905092915050565b7f52616e6765206d75737420626520706f736974697665000000000000000000005f82015250565b5f6101ad601683610169565b91506101b882610179565b602082019050919050565b5f6020820190508181035f8301526101da816101a1565b9050919050565b5f819050919050565b6101fb6101f6826100e3565b6101e1565b82525050565b5f73ffffffffffffffffffffffffffffffffffffffff82169050919050565b5f61022a82610201565b9050919050565b5f8160601b9050919050565b5f61024782610231565b9050919050565b5f6102588261023d565b9050919050565b61027061026b82610220565b61024e565b82525050565b5f61028182866101ea565b60208201915061029182856101ea565b6020820191506102a1828461025f565b601482019150819050949350505050565b7f4e487b71000000000000000000000000000000000000000000000000000000005f52601260045260245ffd5b5f6102e9826100e3565b91506102f4836100e3565b925082610304576103036102b2565b5b82820690509291505056fea2646970667358221220abe4cbf218876ba95728249cf867a5c6dbe8c0952de1591de9ffd0e8ab65818e64736f6c634300081a0033",
					"opcodes": "PUSH1 0x80 PUSH1 0x40 MSTORE CALLVALUE DUP1 ISZERO PUSH1 0xE JUMPI PUSH0 DUP1 REVERT JUMPDEST POP PUSH2 0x345 DUP1 PUSH2 0x1C PUSH0 CODECOPY PUSH0 RETURN INVALID PUSH1 0x80 PUSH1 0x40 MSTORE CALLVALUE DUP1 ISZERO PUSH2 0xF JUMPI PUSH0 DUP1 REVERT JUMPDEST POP PUSH1 0x4 CALLDATASIZE LT PUSH2 0x29 JUMPI PUSH0 CALLDATALOAD PUSH1 0xE0 SHR DUP1 PUSH4 0x805553E8 EQ PUSH2 0x2D JUMPI JUMPDEST PUSH0 DUP1 REVERT JUMPDEST PUSH2 0x47 PUSH1 0x4 DUP1 CALLDATASIZE SUB DUP2 ADD SWAP1 PUSH2 0x42 SWAP2 SWAP1 PUSH2 0x116 JUMP JUMPDEST PUSH2 0x5D JUMP JUMPDEST PUSH1 0x40 MLOAD PUSH2 0x54 SWAP2 SWAP1 PUSH2 0x150 JUMP JUMPDEST PUSH1 0x40 MLOAD DUP1 SWAP2 SUB SWAP1 RETURN JUMPDEST PUSH0 DUP1 DUP3 GT PUSH2 0xA0 JUMPI PUSH1 0x40 MLOAD PUSH32 0x8C379A000000000000000000000000000000000000000000000000000000000 DUP2 MSTORE PUSH1 0x4 ADD PUSH2 0x97 SWAP1 PUSH2 0x1C3 JUMP JUMPDEST PUSH1 0x40 MLOAD DUP1 SWAP2 SUB SWAP1 REVERT JUMPDEST DUP2 TIMESTAMP PREVRANDAO CALLER PUSH1 0x40 MLOAD PUSH1 0x20 ADD PUSH2 0xB6 SWAP4 SWAP3 SWAP2 SWAP1 PUSH2 0x276 JUMP JUMPDEST PUSH1 0x40 MLOAD PUSH1 0x20 DUP2 DUP4 SUB SUB DUP2 MSTORE SWAP1 PUSH1 0x40 MSTORE DUP1 MLOAD SWAP1 PUSH1 0x20 ADD KECCAK256 PUSH0 SHR PUSH2 0xD8 SWAP2 SWAP1 PUSH2 0x2DF JUMP JUMPDEST SWAP1 POP SWAP2 SWAP1 POP JUMP JUMPDEST PUSH0 DUP1 REVERT JUMPDEST PUSH0 DUP2 SWAP1 POP SWAP2 SWAP1 POP JUMP JUMPDEST PUSH2 0xF5 DUP2 PUSH2 0xE3 JUMP JUMPDEST DUP2 EQ PUSH2 0xFF JUMPI PUSH0 DUP1 REVERT JUMPDEST POP JUMP JUMPDEST PUSH0 DUP2 CALLDATALOAD SWAP1 POP PUSH2 0x110 DUP2 PUSH2 0xEC JUMP JUMPDEST SWAP3 SWAP2 POP POP JUMP JUMPDEST PUSH0 PUSH1 0x20 DUP3 DUP5 SUB SLT ISZERO PUSH2 0x12B JUMPI PUSH2 0x12A PUSH2 0xDF JUMP JUMPDEST JUMPDEST PUSH0 PUSH2 0x138 DUP5 DUP3 DUP6 ADD PUSH2 0x102 JUMP JUMPDEST SWAP2 POP POP SWAP3 SWAP2 POP POP JUMP JUMPDEST PUSH2 0x14A DUP2 PUSH2 0xE3 JUMP JUMPDEST DUP3 MSTORE POP POP JUMP JUMPDEST PUSH0 PUSH1 0x20 DUP3 ADD SWAP1 POP PUSH2 0x163 PUSH0 DUP4 ADD DUP5 PUSH2 0x141 JUMP JUMPDEST SWAP3 SWAP2 POP POP JUMP JUMPDEST PUSH0 DUP3 DUP3 MSTORE PUSH1 0x20 DUP3 ADD SWAP1 POP SWAP3 SWAP2 POP POP JUMP JUMPDEST PUSH32 0x52616E6765206D75737420626520706F73697469766500000000000000000000 PUSH0 DUP3 ADD MSTORE POP JUMP JUMPDEST PUSH0 PUSH2 0x1AD PUSH1 0x16 DUP4 PUSH2 0x169 JUMP JUMPDEST SWAP2 POP PUSH2 0x1B8 DUP3 PUSH2 0x179 JUMP JUMPDEST PUSH1 0x20 DUP3 ADD SWAP1 POP SWAP2 SWAP1 POP JUMP JUMPDEST PUSH0 PUSH1 0x20 DUP3 ADD SWAP1 POP DUP2 DUP2 SUB PUSH0 DUP4 ADD MSTORE PUSH2 0x1DA DUP2 PUSH2 0x1A1 JUMP JUMPDEST SWAP1 POP SWAP2 SWAP1 POP JUMP JUMPDEST PUSH0 DUP2 SWAP1 POP SWAP2 SWAP1 POP JUMP JUMPDEST PUSH2 0x1FB PUSH2 0x1F6 DUP3 PUSH2 0xE3 JUMP JUMPDEST PUSH2 0x1E1 JUMP JUMPDEST DUP3 MSTORE POP POP JUMP JUMPDEST PUSH0 PUSH20 0xFFFFFFFFFFFFFFFFFFFFFFFFFFFFFFFFFFFFFFFF DUP3 AND SWAP1 POP SWAP2 SWAP1 POP JUMP JUMPDEST PUSH0 PUSH2 0x22A DUP3 PUSH2 0x201 JUMP JUMPDEST SWAP1 POP SWAP2 SWAP1 POP JUMP JUMPDEST PUSH0 DUP2 PUSH1 0x60 SHL SWAP1 POP SWAP2 SWAP1 POP JUMP JUMPDEST PUSH0 PUSH2 0x247 DUP3 PUSH2 0x231 JUMP JUMPDEST SWAP1 POP SWAP2 SWAP1 POP JUMP JUMPDEST PUSH0 PUSH2 0x258 DUP3 PUSH2 0x23D JUMP JUMPDEST SWAP1 POP SWAP2 SWAP1 POP JUMP JUMPDEST PUSH2 0x270 PUSH2 0x26B DUP3 PUSH2 0x220 JUMP JUMPDEST PUSH2 0x24E JUMP JUMPDEST DUP3 MSTORE POP POP JUMP JUMPDEST PUSH0 PUSH2 0x281 DUP3 DUP7 PUSH2 0x1EA JUMP JUMPDEST PUSH1 0x20 DUP3 ADD SWAP2 POP PUSH2 0x291 DUP3 DUP6 PUSH2 0x1EA JUMP JUMPDEST PUSH1 0x20 DUP3 ADD SWAP2 POP PUSH2 0x2A1 DUP3 DUP5 PUSH2 0x25F JUMP JUMPDEST PUSH1 0x14 DUP3 ADD SWAP2 POP DUP2 SWAP1 POP SWAP5 SWAP4 POP POP POP POP JUMP JUMPDEST PUSH32 0x4E487B7100000000000000000000000000000000000000000000000000000000 PUSH0 MSTORE PUSH1 0x12 PUSH1 0x4 MSTORE PUSH1 0x24 PUSH0 REVERT JUMPDEST PUSH0 PUSH2 0x2E9 DUP3 PUSH2 0xE3 JUMP JUMPDEST SWAP2 POP PUSH2 0x2F4 DUP4 PUSH2 0xE3 JUMP JUMPDEST SWAP3 POP DUP3 PUSH2 0x304 JUMPI PUSH2 0x303 PUSH2 0x2B2 JUMP JUMPDEST JUMPDEST DUP3 DUP3 MOD SWAP1 POP SWAP3 SWAP2 POP POP JUMP INVALID LOG2 PUSH5 0x6970667358 0x22 SLT KECCAK256 0xAB 0xE4 0xCB CALLCODE XOR DUP8 PUSH12 0xA95728249CF867A5C6DBE8C0 SWAP6 0x2D 0xE1 MSIZE SAR 0xE9 SELFDESTRUCT 0xD0 0xE8 0xAB PUSH6 0x818E64736F6C PUSH4 0x4300081A STOP CALLER "
				},
				"gasEstimates": {
					"creation": {
						"codeDepositCost": "167400",
						"executionCost": "212",
						"totalCost": "167612"
					},
					"external": {
						"randMod(uint256)": "infinite"
					}
				},
				"methodIdentifiers": {
					"randMod(uint256)": "805553e8"
				}
			},
			"storageLayout": {
				"storage": [],
				"types": null
			},
			"userdoc": {
				"kind": "user",
				"methods": {},
				"version": 1
			}
		}
	}
}