{
	"contracts/enums_test.sol": {
		"enums_test": {
			"abi": [
				{
					"inputs": [],
					"name": "getDefaultSize",
					"outputs": [
						{
							"internalType": "uint256",
							"name": "",
							"type": "uint256"
						}
					],
					"stateMutability": "pure",
					"type": "function"
				},
				{
					"inputs": [],
					"name": "getSize",
					"outputs": [
						{
							"internalType": "enum enums_test.Size",
							"name": "",
							"type": "uint8"
						}
					],
					"stateMutability": "view",
					"type": "function"
				},
				{
					"inputs": [
						{
							"internalType": "enum enums_test.Size",
							"name": "_s",
							"type": "uint8"
						}
					],
					"name": "setSize",
					"outputs": [],
					"stateMutability": "nonpayable",
					"type": "function"
				}
			],
			"devdoc": {
				"kind": "dev",
				"methods": {},
				"version": 1
			},
			"evm": {
				"assembly": "    /* \"contracts/enums_test.sol\":65:457  contract enums_test {... */\n  mstore(0x40, 0x80)\n  callvalue\n  dup1\n  iszero\n  tag_1\n  jumpi\n  0x00\n  dup1\n  revert\ntag_1:\n  pop\n  dataSize(sub_0)\n  dup1\n  dataOffset(sub_0)\n  0x00\n  codecopy\n  0x00\n  return\nstop\n\nsub_0: assembly {\n        /* \"contracts/enums_test.sol\":65:457  contract enums_test {... */\n      mstore(0x40, 0x80)\n      callvalue\n      dup1\n      iszero\n      tag_1\n      jumpi\n      0x00\n      dup1\n      revert\n    tag_1:\n      pop\n      jumpi(tag_2, lt(calldatasize, 0x04))\n      shr(0xe0, calldataload(0x00))\n      dup1\n      0x99400a5a\n      eq\n      tag_3\n      jumpi\n      dup1\n      0xde8fa431\n      eq\n      tag_4\n      jumpi\n      dup1\n      0xf0849992\n      eq\n      tag_5\n      jumpi\n    tag_2:\n      0x00\n      dup1\n      revert\n        /* \"contracts/enums_test.sol\":216:272  function setSize(Size _s) public {... */\n    tag_3:\n      tag_6\n      0x04\n      dup1\n      calldatasize\n      sub\n      dup2\n      add\n      swap1\n      tag_7\n      swap2\n      swap1\n      tag_8\n      jump\t// in\n    tag_7:\n      tag_9\n      jump\t// in\n    tag_6:\n      stop\n        /* \"contracts/enums_test.sol\":278:349  function getSize() public view returns (Size) {... */\n    tag_4:\n      tag_10\n      tag_11\n      jump\t// in\n    tag_10:\n      mload(0x40)\n      tag_12\n      swap2\n      swap1\n      tag_13\n      jump\t// in\n    tag_12:\n      mload(0x40)\n      dup1\n      swap2\n      sub\n      swap1\n      return\n        /* \"contracts/enums_test.sol\":355:455  function getDefaultSize() public pure returns (uint256) {... */\n    tag_5:\n      tag_14\n      tag_15\n      jump\t// in\n    tag_14:\n      mload(0x40)\n      tag_16\n      swap2\n      swap1\n      tag_17\n      jump\t// in\n    tag_16:\n      mload(0x40)\n      dup1\n      swap2\n      sub\n      swap1\n      return\n        /* \"contracts/enums_test.sol\":216:272  function setSize(Size _s) public {... */\n    tag_9:\n        /* \"contracts/enums_test.sol\":263:265  _s */\n      dup1\n        /* \"contracts/enums_test.sol\":259:260  s */\n      0x00\n      dup1\n        /* \"contracts/enums_test.sol\":259:265  s = _s */\n      0x0100\n      exp\n      dup2\n      sload\n      dup2\n      0xff\n      mul\n      not\n      and\n      swap1\n      dup4\n      0x02\n      dup2\n      gt\n      iszero\n      tag_19\n      jumpi\n      tag_20\n      tag_21\n      jump\t// in\n    tag_20:\n    tag_19:\n      mul\n      or\n      swap1\n      sstore\n      pop\n        /* \"contracts/enums_test.sol\":216:272  function setSize(Size _s) public {... */\n      pop\n      jump\t// out\n        /* \"contracts/enums_test.sol\":278:349  function getSize() public view returns (Size) {... */\n    tag_11:\n        /* \"contracts/enums_test.sol\":318:322  Size */\n      0x00\n        /* \"contracts/enums_test.sol\":341:342  s */\n      dup1\n      0x00\n      swap1\n      sload\n      swap1\n      0x0100\n      exp\n      swap1\n      div\n      0xff\n      and\n        /* \"contracts/enums_test.sol\":334:342  return s */\n      swap1\n      pop\n        /* \"contracts/enums_test.sol\":278:349  function getSize() public view returns (Size) {... */\n      swap1\n      jump\t// out\n        /* \"contracts/enums_test.sol\":355:455  function getDefaultSize() public pure returns (uint256) {... */\n    tag_15:\n        /* \"contracts/enums_test.sol\":402:409  uint256 */\n      0x00\n        /* \"contracts/enums_test.sol\":199:209  Size.SMALL */\n      0x02\n        /* \"contracts/enums_test.sol\":428:448  uint256(defaultSize) */\n      dup1\n      dup2\n      gt\n      iszero\n      tag_24\n      jumpi\n      tag_25\n      tag_21\n      jump\t// in\n    tag_25:\n    tag_24:\n        /* \"contracts/enums_test.sol\":421:448  return uint256(defaultSize) */\n      swap1\n      pop\n        /* \"contracts/enums_test.sol\":355:455  function getDefaultSize() public pure returns (uint256) {... */\n      swap1\n      jump\t// out\n        /* \"#utility.yul\":88:205   */\n    tag_27:\n        /* \"#utility.yul\":197:198   */\n      0x00\n        /* \"#utility.yul\":194:195   */\n      dup1\n        /* \"#utility.yul\":187:199   */\n      revert\n        /* \"#utility.yul\":334:439   */\n    tag_29:\n        /* \"#utility.yul\":413:414   */\n      0x03\n        /* \"#utility.yul\":406:411   */\n      dup2\n        /* \"#utility.yul\":403:415   */\n      lt\n        /* \"#utility.yul\":393:433   */\n      tag_42\n      jumpi\n        /* \"#utility.yul\":429:430   */\n      0x00\n        /* \"#utility.yul\":426:427   */\n      dup1\n        /* \"#utility.yul\":419:431   */\n      revert\n        /* \"#utility.yul\":393:433   */\n    tag_42:\n        /* \"#utility.yul\":334:439   */\n      pop\n      jump\t// out\n        /* \"#utility.yul\":445:596   */\n    tag_30:\n        /* \"#utility.yul\":497:502   */\n      0x00\n        /* \"#utility.yul\":535:541   */\n      dup2\n        /* \"#utility.yul\":522:542   */\n      calldataload\n        /* \"#utility.yul\":513:542   */\n      swap1\n      pop\n        /* \"#utility.yul\":551:590   */\n      tag_44\n        /* \"#utility.yul\":584:589   */\n      dup2\n        /* \"#utility.yul\":551:590   */\n      tag_29\n      jump\t// in\n    tag_44:\n        /* \"#utility.yul\":445:596   */\n      swap3\n      swap2\n      pop\n      pop\n      jump\t// out\n        /* \"#utility.yul\":602:943   */\n    tag_8:\n        /* \"#utility.yul\":667:673   */\n      0x00\n        /* \"#utility.yul\":716:718   */\n      0x20\n        /* \"#utility.yul\":704:713   */\n      dup3\n        /* \"#utility.yul\":695:702   */\n      dup5\n        /* \"#utility.yul\":691:714   */\n      sub\n        /* \"#utility.yul\":687:719   */\n      slt\n        /* \"#utility.yul\":684:803   */\n      iszero\n      tag_46\n      jumpi\n        /* \"#utility.yul\":722:801   */\n      tag_47\n      tag_27\n      jump\t// in\n    tag_47:\n        /* \"#utility.yul\":684:803   */\n    tag_46:\n        /* \"#utility.yul\":842:843   */\n      0x00\n        /* \"#utility.yul\":867:926   */\n      tag_48\n        /* \"#utility.yul\":918:925   */\n      dup5\n        /* \"#utility.yul\":909:915   */\n      dup3\n        /* \"#utility.yul\":898:907   */\n      dup6\n        /* \"#utility.yul\":894:916   */\n      add\n        /* \"#utility.yul\":867:926   */\n      tag_30\n      jump\t// in\n    tag_48:\n        /* \"#utility.yul\":857:926   */\n      swap2\n      pop\n        /* \"#utility.yul\":813:936   */\n      pop\n        /* \"#utility.yul\":602:943   */\n      swap3\n      swap2\n      pop\n      pop\n      jump\t// out\n        /* \"#utility.yul\":949:1129   */\n    tag_21:\n        /* \"#utility.yul\":997:1074   */\n      0x4e487b7100000000000000000000000000000000000000000000000000000000\n        /* \"#utility.yul\":994:995   */\n      0x00\n        /* \"#utility.yul\":987:1075   */\n      mstore\n        /* \"#utility.yul\":1094:1098   */\n      0x21\n        /* \"#utility.yul\":1091:1092   */\n      0x04\n        /* \"#utility.yul\":1084:1099   */\n      mstore\n        /* \"#utility.yul\":1118:1122   */\n      0x24\n        /* \"#utility.yul\":1115:1116   */\n      0x00\n        /* \"#utility.yul\":1108:1123   */\n      revert\n        /* \"#utility.yul\":1135:1246   */\n    tag_31:\n        /* \"#utility.yul\":1214:1215   */\n      0x03\n        /* \"#utility.yul\":1207:1212   */\n      dup2\n        /* \"#utility.yul\":1204:1216   */\n      lt\n        /* \"#utility.yul\":1194:1240   */\n      tag_51\n      jumpi\n        /* \"#utility.yul\":1220:1238   */\n      tag_52\n      tag_21\n      jump\t// in\n    tag_52:\n        /* \"#utility.yul\":1194:1240   */\n    tag_51:\n        /* \"#utility.yul\":1135:1246   */\n      pop\n      jump\t// out\n        /* \"#utility.yul\":1252:1375   */\n    tag_32:\n        /* \"#utility.yul\":1295:1302   */\n      0x00\n        /* \"#utility.yul\":1324:1329   */\n      dup2\n        /* \"#utility.yul\":1313:1329   */\n      swap1\n      pop\n        /* \"#utility.yul\":1330:1369   */\n      tag_54\n        /* \"#utility.yul\":1363:1368   */\n      dup3\n        /* \"#utility.yul\":1330:1369   */\n      tag_31\n      jump\t// in\n    tag_54:\n        /* \"#utility.yul\":1252:1375   */\n      swap2\n      swap1\n      pop\n      jump\t// out\n        /* \"#utility.yul\":1381:1504   */\n    tag_33:\n        /* \"#utility.yul\":1435:1444   */\n      0x00\n        /* \"#utility.yul\":1468:1498   */\n      tag_56\n        /* \"#utility.yul\":1492:1497   */\n      dup3\n        /* \"#utility.yul\":1468:1498   */\n      tag_32\n      jump\t// in\n    tag_56:\n        /* \"#utility.yul\":1455:1498   */\n      swap1\n      pop\n        /* \"#utility.yul\":1381:1504   */\n      swap2\n      swap1\n      pop\n      jump\t// out\n        /* \"#utility.yul\":1510:1649   */\n    tag_34:\n        /* \"#utility.yul\":1601:1642   */\n      tag_58\n        /* \"#utility.yul\":1636:1641   */\n      dup2\n        /* \"#utility.yul\":1601:1642   */\n      tag_33\n      jump\t// in\n    tag_58:\n        /* \"#utility.yul\":1596:1599   */\n      dup3\n        /* \"#utility.yul\":1589:1643   */\n      mstore\n        /* \"#utility.yul\":1510:1649   */\n      pop\n      pop\n      jump\t// out\n        /* \"#utility.yul\":1655:1885   */\n    tag_13:\n        /* \"#utility.yul\":1752:1756   */\n      0x00\n        /* \"#utility.yul\":1790:1792   */\n      0x20\n        /* \"#utility.yul\":1779:1788   */\n      dup3\n        /* \"#utility.yul\":1775:1793   */\n      add\n        /* \"#utility.yul\":1767:1793   */\n      swap1\n      pop\n        /* \"#utility.yul\":1803:1878   */\n      tag_60\n        /* \"#utility.yul\":1875:1876   */\n      0x00\n        /* \"#utility.yul\":1864:1873   */\n      dup4\n        /* \"#utility.yul\":1860:1877   */\n      add\n        /* \"#utility.yul\":1851:1857   */\n      dup5\n        /* \"#utility.yul\":1803:1878   */\n      tag_34\n      jump\t// in\n    tag_60:\n        /* \"#utility.yul\":1655:1885   */\n      swap3\n      swap2\n      pop\n      pop\n      jump\t// out\n        /* \"#utility.yul\":1891:1968   */\n    tag_35:\n        /* \"#utility.yul\":1928:1935   */\n      0x00\n        /* \"#utility.yul\":1957:1962   */\n      dup2\n        /* \"#utility.yul\":1946:1962   */\n      swap1\n      pop\n        /* \"#utility.yul\":1891:1968   */\n      swap2\n      swap1\n      pop\n      jump\t// out\n        /* \"#utility.yul\":1974:2092   */\n    tag_36:\n        /* \"#utility.yul\":2061:2085   */\n      tag_63\n        /* \"#utility.yul\":2079:2084   */\n      dup2\n        /* \"#utility.yul\":2061:2085   */\n      tag_35\n      jump\t// in\n    tag_63:\n        /* \"#utility.yul\":2056:2059   */\n      dup3\n        /* \"#utility.yul\":2049:2086   */\n      mstore\n        /* \"#utility.yul\":1974:2092   */\n      pop\n      pop\n      jump\t// out\n        /* \"#utility.yul\":2098:2320   */\n    tag_17:\n        /* \"#utility.yul\":2191:2195   */\n      0x00\n        /* \"#utility.yul\":2229:2231   */\n      0x20\n        /* \"#utility.yul\":2218:2227   */\n      dup3\n        /* \"#utility.yul\":2214:2232   */\n      add\n        /* \"#utility.yul\":2206:2232   */\n      swap1\n      pop\n        /* \"#utility.yul\":2242:2313   */\n      tag_65\n        /* \"#utility.yul\":2310:2311   */\n      0x00\n        /* \"#utility.yul\":2299:2308   */\n      dup4\n        /* \"#utility.yul\":2295:2312   */\n      add\n        /* \"#utility.yul\":2286:2292   */\n      dup5\n        /* \"#utility.yul\":2242:2313   */\n      tag_36\n      jump\t// in\n    tag_65:\n        /* \"#utility.yul\":2098:2320   */\n      swap3\n      swap2\n      pop\n      pop\n      jump\t// out\n\n    auxdata: 0xa2646970667358221220ec9a33e25e4274e1503fe30c65bbd2d45a829534d3a659b391e6242849643a3664736f6c634300081a0033\n}\n",
				"bytecode": {
					"linkReferences": {},
					"object": "6080604052348015600e575f80fd5b506102388061001c5f395ff3fe608060405234801561000f575f80fd5b506004361061003f575f3560e01c806399400a5a14610043578063de8fa4311461005f578063f08499921461007d575b5f80fd5b61005d6004803603810190610058919061011a565b61009b565b005b6100676100c6565b60405161007491906101b8565b60405180910390f35b6100856100da565b60405161009291906101e9565b60405180910390f35b805f806101000a81548160ff021916908360028111156100be576100bd610145565b5b021790555050565b5f805f9054906101000a900460ff16905090565b5f6002808111156100ee576100ed610145565b5b905090565b5f80fd5b60038110610103575f80fd5b50565b5f81359050610114816100f7565b92915050565b5f6020828403121561012f5761012e6100f3565b5b5f61013c84828501610106565b91505092915050565b7f4e487b71000000000000000000000000000000000000000000000000000000005f52602160045260245ffd5b6003811061018357610182610145565b5b50565b5f81905061019382610172565b919050565b5f6101a282610186565b9050919050565b6101b281610198565b82525050565b5f6020820190506101cb5f8301846101a9565b92915050565b5f819050919050565b6101e3816101d1565b82525050565b5f6020820190506101fc5f8301846101da565b9291505056fea2646970667358221220ec9a33e25e4274e1503fe30c65bbd2d45a829534d3a659b391e6242849643a3664736f6c634300081a0033",
					"opcodes": "PUSH1 0x80 PUSH1 0x40 MSTORE CALLVALUE DUP1 ISZERO PUSH1 0xE JUMPI PUSH0 DUP1 REVERT JUMPDEST POP PUSH2 0x238 DUP1 PUSH2 0x1C PUSH0 CODECOPY PUSH0 RETURN INVALID PUSH1 0x80 PUSH1 0x40 MSTORE CALLVALUE DUP1 ISZERO PUSH2 0xF JUMPI PUSH0 DUP1 REVERT JUMPDEST POP PUSH1 0x4 CALLDATASIZE LT PUSH2 0x3F JUMPI PUSH0 CALLDATALOAD PUSH1 0xE0 SHR DUP1 PUSH4 0x99400A5A EQ PUSH2 0x43 JUMPI DUP1 PUSH4 0xDE8FA431 EQ PUSH2 0x5F JUMPI DUP1 PUSH4 0xF0849992 EQ PUSH2 0x7D JUMPI JUMPDEST PUSH0 DUP1 REVERT JUMPDEST PUSH2 0x5D PUSH1 0x4 DUP1 CALLDATASIZE SUB DUP2 ADD SWAP1 PUSH2 0x58 SWAP2 SWAP1 PUSH2 0x11A JUMP JUMPDEST PUSH2 0x9B JUMP JUMPDEST STOP JUMPDEST PUSH2 0x67 PUSH2 0xC6 JUMP JUMPDEST PUSH1 0x40 MLOAD PUSH2 0x74 SWAP2 SWAP1 PUSH2 0x1B8 JUMP JUMPDEST PUSH1 0x40 MLOAD DUP1 SWAP2 SUB SWAP1 RETURN JUMPDEST PUSH2 0x85 PUSH2 0xDA JUMP JUMPDEST PUSH1 0x40 MLOAD PUSH2 0x92 SWAP2 SWAP1 PUSH2 0x1E9 JUMP JUMPDEST PUSH1 0x40 MLOAD DUP1 SWAP2 SUB SWAP1 RETURN JUMPDEST DUP1 PUSH0 DUP1 PUSH2 0x100 EXP DUP2 SLOAD DUP2 PUSH1 0xFF MUL NOT AND SWAP1 DUP4 PUSH1 0x2 DUP2 GT ISZERO PUSH2 0xBE JUMPI PUSH2 0xBD PUSH2 0x145 JUMP JUMPDEST JUMPDEST MUL OR SWAP1 SSTORE POP POP JUMP JUMPDEST PUSH0 DUP1 PUSH0 SWAP1 SLOAD SWAP1 PUSH2 0x100 EXP SWAP1 DIV PUSH1 0xFF AND SWAP1 POP SWAP1 JUMP JUMPDEST PUSH0 PUSH1 0x2 DUP1 DUP2 GT ISZERO PUSH2 0xEE JUMPI PUSH2 0xED PUSH2 0x145 JUMP JUMPDEST JUMPDEST SWAP1 POP SWAP1 JUMP JUMPDEST PUSH0 DUP1 REVERT JUMPDEST PUSH1 0x3 DUP2 LT PUSH2 0x103 JUMPI PUSH0 DUP1 REVERT JUMPDEST POP JUMP JUMPDEST PUSH0 DUP2 CALLDATALOAD SWAP1 POP PUSH2 0x114 DUP2 PUSH2 0xF7 JUMP JUMPDEST SWAP3 SWAP2 POP POP JUMP JUMPDEST PUSH0 PUSH1 0x20 DUP3 DUP5 SUB SLT ISZERO PUSH2 0x12F JUMPI PUSH2 0x12E PUSH2 0xF3 JUMP JUMPDEST JUMPDEST PUSH0 PUSH2 0x13C DUP5 DUP3 DUP6 ADD PUSH2 0x106 JUMP JUMPDEST SWAP2 POP POP SWAP3 SWAP2 POP POP JUMP JUMPDEST PUSH32 0x4E487B7100000000000000000000000000000000000000000000000000000000 PUSH0 MSTORE PUSH1 0x21 PUSH1 0x4 MSTORE PUSH1 0x24 PUSH0 REVERT JUMPDEST PUSH1 0x3 DUP2 LT PUSH2 0x183 JUMPI PUSH2 0x182 PUSH2 0x145 JUMP JUMPDEST JUMPDEST POP JUMP JUMPDEST PUSH0 DUP2 SWAP1 POP PUSH2 0x193 DUP3 PUSH2 0x172 JUMP JUMPDEST SWAP2 SWAP1 POP JUMP JUMPDEST PUSH0 PUSH2 0x1A2 DUP3 PUSH2 0x186 JUMP JUMPDEST SWAP1 POP SWAP2 SWAP1 POP JUMP JUMPDEST PUSH2 0x1B2 DUP2 PUSH2 0x198 JUMP JUMPDEST DUP3 MSTORE POP POP JUMP JUMPDEST PUSH0 PUSH1 0x20 DUP3 ADD SWAP1 POP PUSH2 0x1CB PUSH0 DUP4 ADD DUP5 PUSH2 0x1A9 JUMP JUMPDEST SWAP3 SWAP2 POP POP JUMP JUMPDEST PUSH0 DUP2 SWAP1 POP SWAP2 SWAP1 POP JUMP JUMPDEST PUSH2 0x1E3 DUP2 PUSH2 0x1D1 JUMP JUMPDEST DUP3 MSTORE POP POP JUMP JUMPDEST PUSH0 PUSH1 0x20 DUP3 ADD SWAP1 POP PUSH2 0x1FC PUSH0 DUP4 ADD DUP5 PUSH2 0x1DA JUMP JUMPDEST SWAP3 SWAP2 POP POP JUMP INVALID LOG2 PUSH5 0x6970667358 0x22 SLT KECCAK256 0xEC SWAP11 CALLER 0xE2 MCOPY TIMESTAMP PUSH21 0xE1503FE30C65BBD2D45A829534D3A659B391E62428 BLOBHASH PUSH5 0x3A3664736F PUSH13 0x634300081A0033000000000000 "
				},
				"gasEstimates": {
					"creation": {
						"codeDepositCost": "113600",
						"executionCost": "157",
						"totalCost": "113757"
					},
					"external": {
						"getDefaultSize()": "380",
						"getSize()": "2561",
						"setSize(uint8)": "24623"
					}
				},
				"methodIdentifiers": {
					"getDefaultSize()": "f0849992",
					"getSize()": "de8fa431",
					"setSize(uint8)": "99400a5a"
				}
			},
			"storageLayout": {
				"storage": [
					{
						"astId": 8,
						"contract": "contracts/enums_test.sol:enums_test",
						"label": "s",
						"offset": 0,
						"slot": "0",
						"type": "t_enum(Size)5"
					}
				],
				"types": {
					"t_enum(Size)5": {
						"encoding": "inplace",
						"label": "enum enums_test.Size",
						"numberOfBytes": "1"
					}
				}
			},
			"userdoc": {
				"kind": "user",
				"methods": {},
				"version": 1
			}
		}
	}
}