{
	"contracts/variables.sol": {
		"variables": {
			"abi": [
				{
					"inputs": [],
					"name": "getTotalSum",
					"outputs": [
						{
							"internalType": "uint256",
							"name": "",
							"type": "uint256"
						}
					],
					"stateMutability": "view",
					"type": "function"
				}
			],
			"devdoc": {
				"kind": "dev",
				"methods": {},
				"version": 1
			},
			"evm": {
				"assembly": "    /* \"contracts/variables.sol\":65:646  contract variables {... */\n  mstore(0x40, 0x80)\n    /* \"contracts/variables.sol\":383:422  uint256[] numbers = [1, 26, 6, 3, 6, 1] */\n  mload(0x40)\n  dup1\n  0xc0\n  add\n  0x40\n  mstore\n  dup1\n    /* \"contracts/variables.sol\":404:405  1 */\n  0x01\n    /* \"contracts/variables.sol\":383:422  uint256[] numbers = [1, 26, 6, 3, 6, 1] */\n  0xff\n  and\n  dup2\n  mstore\n  0x20\n  add\n    /* \"contracts/variables.sol\":407:409  26 */\n  0x1a\n    /* \"contracts/variables.sol\":383:422  uint256[] numbers = [1, 26, 6, 3, 6, 1] */\n  0xff\n  and\n  dup2\n  mstore\n  0x20\n  add\n    /* \"contracts/variables.sol\":411:412  6 */\n  0x06\n    /* \"contracts/variables.sol\":383:422  uint256[] numbers = [1, 26, 6, 3, 6, 1] */\n  0xff\n  and\n  dup2\n  mstore\n  0x20\n  add\n    /* \"contracts/variables.sol\":414:415  3 */\n  0x03\n    /* \"contracts/variables.sol\":383:422  uint256[] numbers = [1, 26, 6, 3, 6, 1] */\n  0xff\n  and\n  dup2\n  mstore\n  0x20\n  add\n    /* \"contracts/variables.sol\":417:418  6 */\n  0x06\n    /* \"contracts/variables.sol\":383:422  uint256[] numbers = [1, 26, 6, 3, 6, 1] */\n  0xff\n  and\n  dup2\n  mstore\n  0x20\n  add\n    /* \"contracts/variables.sol\":420:421  1 */\n  0x01\n    /* \"contracts/variables.sol\":383:422  uint256[] numbers = [1, 26, 6, 3, 6, 1] */\n  0xff\n  and\n  dup2\n  mstore\n  pop\n  0x00\n  swap1\n  0x06\n  tag_1\n  swap3\n  swap2\n  swap1\n  tag_2\n  jump\t// in\ntag_1:\n  pop\n    /* \"contracts/variables.sol\":65:646  contract variables {... */\n  callvalue\n  dup1\n  iszero\n  tag_3\n  jumpi\n  0x00\n  dup1\n  revert\ntag_3:\n  pop\n  jump(tag_4)\ntag_2:\n  dup3\n  dup1\n  sload\n  dup3\n  dup3\n  sstore\n  swap1\n  0x00\n  mstore\n  keccak256(0x00, 0x20)\n  swap1\n  dup2\n  add\n  swap3\n  dup3\n  iszero\n  tag_5\n  jumpi\n  swap2\n  0x20\n  mul\n  dup3\n  add\ntag_6:\n  dup3\n  dup2\n  gt\n  iszero\n  tag_7\n  jumpi\n  dup3\n  mload\n  dup3\n  swap1\n  0xff\n  and\n  swap1\n  sstore\n  swap2\n  0x20\n  add\n  swap2\n  swap1\n  0x01\n  add\n  swap1\n  jump(tag_6)\ntag_7:\ntag_5:\n  pop\n  swap1\n  pop\n  tag_8\n  swap2\n  swap1\n  tag_9\n  jump\t// in\ntag_8:\n  pop\n  swap1\n  jump\t// out\ntag_9:\ntag_10:\n  dup1\n  dup3\n  gt\n  iszero\n  tag_11\n  jumpi\n  0x00\n  dup2\n  0x00\n  swap1\n  sstore\n  pop\n  0x01\n  add\n  jump(tag_10)\ntag_11:\n  pop\n  swap1\n  jump\t// out\ntag_4:\n  dataSize(sub_0)\n  dup1\n  dataOffset(sub_0)\n  0x00\n  codecopy\n  0x00\n  return\nstop\n\nsub_0: assembly {\n        /* \"contracts/variables.sol\":65:646  contract variables {... */\n      mstore(0x40, 0x80)\n      callvalue\n      dup1\n      iszero\n      tag_1\n      jumpi\n      0x00\n      dup1\n      revert\n    tag_1:\n      pop\n      jumpi(tag_2, lt(calldatasize, 0x04))\n      shr(0xe0, calldataload(0x00))\n      dup1\n      0x03769d82\n      eq\n      tag_3\n      jumpi\n    tag_2:\n      0x00\n      dup1\n      revert\n        /* \"contracts/variables.sol\":429:644  function getTotalSum() public view returns (uint256) {... */\n    tag_3:\n      tag_4\n      tag_5\n      jump\t// in\n    tag_4:\n      mload(0x40)\n      tag_6\n      swap2\n      swap1\n      tag_7\n      jump\t// in\n    tag_6:\n      mload(0x40)\n      dup1\n      swap2\n      sub\n      swap1\n      return\n    tag_5:\n        /* \"contracts/variables.sol\":473:480  uint256 */\n      0x00\n        /* \"contracts/variables.sol\":492:505  uint256 total */\n      dup1\n        /* \"contracts/variables.sol\":508:509  0 */\n      0x00\n        /* \"contracts/variables.sol\":492:509  uint256 total = 0 */\n      swap1\n      pop\n        /* \"contracts/variables.sol\":524:533  uint256 i */\n      0x00\n        /* \"contracts/variables.sol\":519:615  for (uint256 i = 0; i < numbers.length; ++i) {... */\n    tag_9:\n        /* \"contracts/variables.sol\":543:550  numbers */\n      0x00\n        /* \"contracts/variables.sol\":543:557  numbers.length */\n      dup1\n      sload\n      swap1\n      pop\n        /* \"contracts/variables.sol\":539:540  i */\n      dup2\n        /* \"contracts/variables.sol\":539:557  i < numbers.length */\n      lt\n        /* \"contracts/variables.sol\":519:615  for (uint256 i = 0; i < numbers.length; ++i) {... */\n      iszero\n      tag_10\n      jumpi\n        /* \"contracts/variables.sol\":594:601  numbers */\n      0x00\n        /* \"contracts/variables.sol\":602:603  i */\n      dup2\n        /* \"contracts/variables.sol\":594:604  numbers[i] */\n      dup2\n      sload\n      dup2\n      lt\n      tag_12\n      jumpi\n      tag_13\n      tag_14\n      jump\t// in\n    tag_13:\n    tag_12:\n      swap1\n      0x00\n      mstore\n      keccak256(0x00, 0x20)\n      add\n      sload\n        /* \"contracts/variables.sol\":586:591  total */\n      dup3\n        /* \"contracts/variables.sol\":586:604  total + numbers[i] */\n      tag_16\n      swap2\n      swap1\n      tag_17\n      jump\t// in\n    tag_16:\n        /* \"contracts/variables.sol\":578:604  total = total + numbers[i] */\n      swap2\n      pop\n        /* \"contracts/variables.sol\":559:562  ++i */\n      dup1\n      0x01\n      add\n      swap1\n      pop\n        /* \"contracts/variables.sol\":519:615  for (uint256 i = 0; i < numbers.length; ++i) {... */\n      jump(tag_9)\n    tag_10:\n      pop\n        /* \"contracts/variables.sol\":632:637  total */\n      dup1\n        /* \"contracts/variables.sol\":625:637  return total */\n      swap2\n      pop\n      pop\n        /* \"contracts/variables.sol\":429:644  function getTotalSum() public view returns (uint256) {... */\n      swap1\n      jump\t// out\n        /* \"#utility.yul\":7:84   */\n    tag_18:\n        /* \"#utility.yul\":44:51   */\n      0x00\n        /* \"#utility.yul\":73:78   */\n      dup2\n        /* \"#utility.yul\":62:78   */\n      swap1\n      pop\n        /* \"#utility.yul\":7:84   */\n      swap2\n      swap1\n      pop\n      jump\t// out\n        /* \"#utility.yul\":90:208   */\n    tag_19:\n        /* \"#utility.yul\":177:201   */\n      tag_24\n        /* \"#utility.yul\":195:200   */\n      dup2\n        /* \"#utility.yul\":177:201   */\n      tag_18\n      jump\t// in\n    tag_24:\n        /* \"#utility.yul\":172:175   */\n      dup3\n        /* \"#utility.yul\":165:202   */\n      mstore\n        /* \"#utility.yul\":90:208   */\n      pop\n      pop\n      jump\t// out\n        /* \"#utility.yul\":214:436   */\n    tag_7:\n        /* \"#utility.yul\":307:311   */\n      0x00\n        /* \"#utility.yul\":345:347   */\n      0x20\n        /* \"#utility.yul\":334:343   */\n      dup3\n        /* \"#utility.yul\":330:348   */\n      add\n        /* \"#utility.yul\":322:348   */\n      swap1\n      pop\n        /* \"#utility.yul\":358:429   */\n      tag_26\n        /* \"#utility.yul\":426:427   */\n      0x00\n        /* \"#utility.yul\":415:424   */\n      dup4\n        /* \"#utility.yul\":411:428   */\n      add\n        /* \"#utility.yul\":402:408   */\n      dup5\n        /* \"#utility.yul\":358:429   */\n      tag_19\n      jump\t// in\n    tag_26:\n        /* \"#utility.yul\":214:436   */\n      swap3\n      swap2\n      pop\n      pop\n      jump\t// out\n        /* \"#utility.yul\":442:622   */\n    tag_14:\n        /* \"#utility.yul\":490:567   */\n      0x4e487b7100000000000000000000000000000000000000000000000000000000\n        /* \"#utility.yul\":487:488   */\n      0x00\n        /* \"#utility.yul\":480:568   */\n      mstore\n        /* \"#utility.yul\":587:591   */\n      0x32\n        /* \"#utility.yul\":584:585   */\n      0x04\n        /* \"#utility.yul\":577:592   */\n      mstore\n        /* \"#utility.yul\":611:615   */\n      0x24\n        /* \"#utility.yul\":608:609   */\n      0x00\n        /* \"#utility.yul\":601:616   */\n      revert\n        /* \"#utility.yul\":628:808   */\n    tag_20:\n        /* \"#utility.yul\":676:753   */\n      0x4e487b7100000000000000000000000000000000000000000000000000000000\n        /* \"#utility.yul\":673:674   */\n      0x00\n        /* \"#utility.yul\":666:754   */\n      mstore\n        /* \"#utility.yul\":773:777   */\n      0x11\n        /* \"#utility.yul\":770:771   */\n      0x04\n        /* \"#utility.yul\":763:778   */\n      mstore\n        /* \"#utility.yul\":797:801   */\n      0x24\n        /* \"#utility.yul\":794:795   */\n      0x00\n        /* \"#utility.yul\":787:802   */\n      revert\n        /* \"#utility.yul\":814:1005   */\n    tag_17:\n        /* \"#utility.yul\":854:857   */\n      0x00\n        /* \"#utility.yul\":873:893   */\n      tag_30\n        /* \"#utility.yul\":891:892   */\n      dup3\n        /* \"#utility.yul\":873:893   */\n      tag_18\n      jump\t// in\n    tag_30:\n        /* \"#utility.yul\":868:893   */\n      swap2\n      pop\n        /* \"#utility.yul\":907:927   */\n      tag_31\n        /* \"#utility.yul\":925:926   */\n      dup4\n        /* \"#utility.yul\":907:927   */\n      tag_18\n      jump\t// in\n    tag_31:\n        /* \"#utility.yul\":902:927   */\n      swap3\n      pop\n        /* \"#utility.yul\":950:951   */\n      dup3\n        /* \"#utility.yul\":947:948   */\n      dup3\n        /* \"#utility.yul\":943:952   */\n      add\n        /* \"#utility.yul\":936:952   */\n      swap1\n      pop\n        /* \"#utility.yul\":971:974   */\n      dup1\n        /* \"#utility.yul\":968:969   */\n      dup3\n        /* \"#utility.yul\":965:975   */\n      gt\n        /* \"#utility.yul\":962:998   */\n      iszero\n      tag_32\n      jumpi\n        /* \"#utility.yul\":978:996   */\n      tag_33\n      tag_20\n      jump\t// in\n    tag_33:\n        /* \"#utility.yul\":962:998   */\n    tag_32:\n        /* \"#utility.yul\":814:1005   */\n      swap3\n      swap2\n      pop\n      pop\n      jump\t// out\n\n    auxdata: 0xa2646970667358221220579daeaf42fef2a6d091607b2444b2abcaa1475cb020ac8a3c64323526a72abe64736f6c634300081a0033\n}\n",
				"bytecode": {
					"linkReferences": {},
					"object": "60806040526040518060c00160405280600160ff168152602001601a60ff168152602001600660ff168152602001600360ff168152602001600660ff168152602001600160ff168152505f90600660569291906066565b503480156061575f80fd5b5060ca565b828054828255905f5260205f2090810192821560a2579160200282015b8281111560a1578251829060ff169055916020019190600101906083565b5b50905060ad919060b1565b5090565b5b8082111560c6575f815f90555060010160b2565b5090565b61018e806100d75f395ff3fe608060405234801561000f575f80fd5b5060043610610029575f3560e01c806303769d821461002d575b5f80fd5b61003561004b565b60405161004291906100b2565b60405180910390f35b5f805f90505f5b5f80549050811015610092575f8181548110610071576100706100cb565b5b905f5260205f200154826100859190610125565b9150806001019050610052565b508091505090565b5f819050919050565b6100ac8161009a565b82525050565b5f6020820190506100c55f8301846100a3565b92915050565b7f4e487b71000000000000000000000000000000000000000000000000000000005f52603260045260245ffd5b7f4e487b71000000000000000000000000000000000000000000000000000000005f52601160045260245ffd5b5f61012f8261009a565b915061013a8361009a565b9250828201905080821115610152576101516100f8565b5b9291505056fea2646970667358221220579daeaf42fef2a6d091607b2444b2abcaa1475cb020ac8a3c64323526a72abe64736f6c634300081a0033",
					"opcodes": "PUSH1 0x80 PUSH1 0x40 MSTORE PUSH1 0x40 MLOAD DUP1 PUSH1 0xC0 ADD PUSH1 0x40 MSTORE DUP1 PUSH1 0x1 PUSH1 0xFF AND DUP2 MSTORE PUSH1 0x20 ADD PUSH1 0x1A PUSH1 0xFF AND DUP2 MSTORE PUSH1 0x20 ADD PUSH1 0x6 PUSH1 0xFF AND DUP2 MSTORE PUSH1 0x20 ADD PUSH1 0x3 PUSH1 0xFF AND DUP2 MSTORE PUSH1 0x20 ADD PUSH1 0x6 PUSH1 0xFF AND DUP2 MSTORE PUSH1 0x20 ADD PUSH1 0x1 PUSH1 0xFF AND DUP2 MSTORE POP PUSH0 SWAP1 PUSH1 0x6 PUSH1 0x56 SWAP3 SWAP2 SWAP1 PUSH1 0x66 JUMP JUMPDEST POP CALLVALUE DUP1 ISZERO PUSH1 0x61 JUMPI PUSH0 DUP1 REVERT JUMPDEST POP PUSH1 0xCA JUMP JUMPDEST DUP3 DUP1 SLOAD DUP3 DUP3 SSTORE SWAP1 PUSH0 MSTORE PUSH1 0x20 PUSH0 KECCAK256 SWAP1 DUP2 ADD SWAP3 DUP3 ISZERO PUSH1 0xA2 JUMPI SWAP2 PUSH1 0x20 MUL DUP3 ADD JUMPDEST DUP3 DUP2 GT ISZERO PUSH1 0xA1 JUMPI DUP3 MLOAD DUP3 SWAP1 PUSH1 0xFF AND SWAP1 SSTORE SWAP2 PUSH1 0x20 ADD SWAP2 SWAP1 PUSH1 0x1 ADD SWAP1 PUSH1 0x83 JUMP JUMPDEST JUMPDEST POP SWAP1 POP PUSH1 0xAD SWAP2 SWAP1 PUSH1 0xB1 JUMP JUMPDEST POP SWAP1 JUMP JUMPDEST JUMPDEST DUP1 DUP3 GT ISZERO PUSH1 0xC6 JUMPI PUSH0 DUP2 PUSH0 SWAP1 SSTORE POP PUSH1 0x1 ADD PUSH1 0xB2 JUMP JUMPDEST POP SWAP1 JUMP JUMPDEST PUSH2 0x18E DUP1 PUSH2 0xD7 PUSH0 CODECOPY PUSH0 RETURN INVALID PUSH1 0x80 PUSH1 0x40 MSTORE CALLVALUE DUP1 ISZERO PUSH2 0xF JUMPI PUSH0 DUP1 REVERT JUMPDEST POP PUSH1 0x4 CALLDATASIZE LT PUSH2 0x29 JUMPI PUSH0 CALLDATALOAD PUSH1 0xE0 SHR DUP1 PUSH4 0x3769D82 EQ PUSH2 0x2D JUMPI JUMPDEST PUSH0 DUP1 REVERT JUMPDEST PUSH2 0x35 PUSH2 0x4B JUMP JUMPDEST PUSH1 0x40 MLOAD PUSH2 0x42 SWAP2 SWAP1 PUSH2 0xB2 JUMP JUMPDEST PUSH1 0x40 MLOAD DUP1 SWAP2 SUB SWAP1 RETURN JUMPDEST PUSH0 DUP1 PUSH0 SWAP1 POP PUSH0 JUMPDEST PUSH0 DUP1 SLOAD SWAP1 POP DUP2 LT ISZERO PUSH2 0x92 JUMPI PUSH0 DUP2 DUP2 SLOAD DUP2 LT PUSH2 0x71 JUMPI PUSH2 0x70 PUSH2 0xCB JUMP JUMPDEST JUMPDEST SWAP1 PUSH0 MSTORE PUSH1 0x20 PUSH0 KECCAK256 ADD SLOAD DUP3 PUSH2 0x85 SWAP2 SWAP1 PUSH2 0x125 JUMP JUMPDEST SWAP2 POP DUP1 PUSH1 0x1 ADD SWAP1 POP PUSH2 0x52 JUMP JUMPDEST POP DUP1 SWAP2 POP POP SWAP1 JUMP JUMPDEST PUSH0 DUP2 SWAP1 POP SWAP2 SWAP1 POP JUMP JUMPDEST PUSH2 0xAC DUP2 PUSH2 0x9A JUMP JUMPDEST DUP3 MSTORE POP POP JUMP JUMPDEST PUSH0 PUSH1 0x20 DUP3 ADD SWAP1 POP PUSH2 0xC5 PUSH0 DUP4 ADD DUP5 PUSH2 0xA3 JUMP JUMPDEST SWAP3 SWAP2 POP POP JUMP JUMPDEST PUSH32 0x4E487B7100000000000000000000000000000000000000000000000000000000 PUSH0 MSTORE PUSH1 0x32 PUSH1 0x4 MSTORE PUSH1 0x24 PUSH0 REVERT JUMPDEST PUSH32 0x4E487B7100000000000000000000000000000000000000000000000000000000 PUSH0 MSTORE PUSH1 0x11 PUSH1 0x4 MSTORE PUSH1 0x24 PUSH0 REVERT JUMPDEST PUSH0 PUSH2 0x12F DUP3 PUSH2 0x9A JUMP JUMPDEST SWAP2 POP PUSH2 0x13A DUP4 PUSH2 0x9A JUMP JUMPDEST SWAP3 POP DUP3 DUP3 ADD SWAP1 POP DUP1 DUP3 GT ISZERO PUSH2 0x152 JUMPI PUSH2 0x151 PUSH2 0xF8 JUMP JUMPDEST JUMPDEST SWAP3 SWAP2 POP POP JUMP INVALID LOG2 PUSH5 0x6970667358 0x22 SLT KECCAK256 JUMPI SWAP14 0xAE 0xAF TIMESTAMP INVALID CALLCODE 0xA6 0xD0 SWAP2 PUSH1 0x7B 0x24 PREVRANDAO 0xB2 0xAB 0xCA LOG1 SELFBALANCE TLOAD 0xB0 KECCAK256 0xAC DUP11 EXTCODECOPY PUSH5 0x323526A72A 0xBE PUSH5 0x736F6C6343 STOP ADDMOD BYTE STOP CALLER "
				},
				"gasEstimates": {
					"creation": {
						"codeDepositCost": "79600",
						"executionCost": "infinite",
						"totalCost": "infinite"
					},
					"external": {
						"getTotalSum()": "infinite"
					}
				},
				"methodIdentifiers": {
					"getTotalSum()": "03769d82"
				}
			},
			"storageLayout": {
				"storage": [
					{
						"astId": 11,
						"contract": "contracts/variables.sol:variables",
						"label": "numbers",
						"offset": 0,
						"slot": "0",
						"type": "t_array(t_uint256)dyn_storage"
					}
				],
				"types": {
					"t_array(t_uint256)dyn_storage": {
						"base": "t_uint256",
						"encoding": "dynamic_array",
						"label": "uint256[]",
						"numberOfBytes": "32"
					},
					"t_uint256": {
						"encoding": "inplace",
						"label": "uint256",
						"numberOfBytes": "32"
					}
				}
			},
			"userdoc": {
				"kind": "user",
				"methods": {},
				"version": 1
			}
		}
	}
}