{
	"contracts/oracle.sol": {
		"GeneratingRandomNumber": {
			"abi": [
				{
					"inputs": [
						{
							"internalType": "address",
							"name": "oracleAddress",
							"type": "address"
						}
					],
					"stateMutability": "nonpayable",
					"type": "constructor"
				},
				{
					"inputs": [],
					"name": "o",
					"outputs": [
						{
							"internalType": "contract Oracle",
							"name": "",
							"type": "address"
						}
					],
					"stateMutability": "view",
					"type": "function"
				},
				{
					"inputs": [
						{
							"internalType": "uint256",
							"name": "range",
							"type": "uint256"
						}
					],
					"name": "randMod",
					"outputs": [
						{
							"internalType": "uint256",
							"name": "",
							"type": "uint256"
						}
					],
					"stateMutability": "view",
					"type": "function"
				}
			],
			"devdoc": {
				"kind": "dev",
				"methods": {},
				"version": 1
			},
			"evm": {
				"assembly": "    /* \"contracts/oracle.sol\":334:1325  contract GeneratingRandomNumber {... */\n  mstore(0x40, 0x80)\n    /* \"contracts/oracle.sol\":555:632  constructor(address oracleAddress) {... */\n  callvalue\n  dup1\n  iszero\n  tag_1\n  jumpi\n  0x00\n  dup1\n  revert\ntag_1:\n  pop\n  mload(0x40)\n  sub(codesize, bytecodeSize)\n  dup1\n  bytecodeSize\n  dup4\n  codecopy\n  dup2\n  dup2\n  add\n  0x40\n  mstore\n  dup2\n  add\n  swap1\n  tag_2\n  swap2\n  swap1\n  tag_3\n  jump\t// in\ntag_2:\n    /* \"contracts/oracle.sol\":611:624  oracleAddress */\n  dup1\n    /* \"contracts/oracle.sol\":600:601  o */\n  0x00\n  dup1\n    /* \"contracts/oracle.sol\":600:625  o = Oracle(oracleAddress) */\n  0x0100\n  exp\n  dup2\n  sload\n  dup2\n  0xffffffffffffffffffffffffffffffffffffffff\n  mul\n  not\n  and\n  swap1\n  dup4\n  0xffffffffffffffffffffffffffffffffffffffff\n  and\n  mul\n  or\n  swap1\n  sstore\n  pop\n    /* \"contracts/oracle.sol\":555:632  constructor(address oracleAddress) {... */\n  pop\n    /* \"contracts/oracle.sol\":334:1325  contract GeneratingRandomNumber {... */\n  jump(tag_6)\n    /* \"#utility.yul\":88:205   */\ntag_8:\n    /* \"#utility.yul\":197:198   */\n  0x00\n    /* \"#utility.yul\":194:195   */\n  dup1\n    /* \"#utility.yul\":187:199   */\n  revert\n    /* \"#utility.yul\":334:460   */\ntag_10:\n    /* \"#utility.yul\":371:378   */\n  0x00\n    /* \"#utility.yul\":411:453   */\n  0xffffffffffffffffffffffffffffffffffffffff\n    /* \"#utility.yul\":404:409   */\n  dup3\n    /* \"#utility.yul\":400:454   */\n  and\n    /* \"#utility.yul\":389:454   */\n  swap1\n  pop\n    /* \"#utility.yul\":334:460   */\n  swap2\n  swap1\n  pop\n  jump\t// out\n    /* \"#utility.yul\":466:562   */\ntag_11:\n    /* \"#utility.yul\":503:510   */\n  0x00\n    /* \"#utility.yul\":532:556   */\n  tag_20\n    /* \"#utility.yul\":550:555   */\n  dup3\n    /* \"#utility.yul\":532:556   */\n  tag_10\n  jump\t// in\ntag_20:\n    /* \"#utility.yul\":521:556   */\n  swap1\n  pop\n    /* \"#utility.yul\":466:562   */\n  swap2\n  swap1\n  pop\n  jump\t// out\n    /* \"#utility.yul\":568:690   */\ntag_12:\n    /* \"#utility.yul\":641:665   */\n  tag_22\n    /* \"#utility.yul\":659:664   */\n  dup2\n    /* \"#utility.yul\":641:665   */\n  tag_11\n  jump\t// in\ntag_22:\n    /* \"#utility.yul\":634:639   */\n  dup2\n    /* \"#utility.yul\":631:666   */\n  eq\n    /* \"#utility.yul\":621:684   */\n  tag_23\n  jumpi\n    /* \"#utility.yul\":680:681   */\n  0x00\n    /* \"#utility.yul\":677:678   */\n  dup1\n    /* \"#utility.yul\":670:682   */\n  revert\n    /* \"#utility.yul\":621:684   */\ntag_23:\n    /* \"#utility.yul\":568:690   */\n  pop\n  jump\t// out\n    /* \"#utility.yul\":696:839   */\ntag_13:\n    /* \"#utility.yul\":753:758   */\n  0x00\n    /* \"#utility.yul\":784:790   */\n  dup2\n    /* \"#utility.yul\":778:791   */\n  mload\n    /* \"#utility.yul\":769:791   */\n  swap1\n  pop\n    /* \"#utility.yul\":800:833   */\n  tag_25\n    /* \"#utility.yul\":827:832   */\n  dup2\n    /* \"#utility.yul\":800:833   */\n  tag_12\n  jump\t// in\ntag_25:\n    /* \"#utility.yul\":696:839   */\n  swap3\n  swap2\n  pop\n  pop\n  jump\t// out\n    /* \"#utility.yul\":845:1196   */\ntag_3:\n    /* \"#utility.yul\":915:921   */\n  0x00\n    /* \"#utility.yul\":964:966   */\n  0x20\n    /* \"#utility.yul\":952:961   */\n  dup3\n    /* \"#utility.yul\":943:950   */\n  dup5\n    /* \"#utility.yul\":939:962   */\n  sub\n    /* \"#utility.yul\":935:967   */\n  slt\n    /* \"#utility.yul\":932:1051   */\n  iszero\n  tag_27\n  jumpi\n    /* \"#utility.yul\":970:1049   */\n  tag_28\n  tag_8\n  jump\t// in\ntag_28:\n    /* \"#utility.yul\":932:1051   */\ntag_27:\n    /* \"#utility.yul\":1090:1091   */\n  0x00\n    /* \"#utility.yul\":1115:1179   */\n  tag_29\n    /* \"#utility.yul\":1171:1178   */\n  dup5\n    /* \"#utility.yul\":1162:1168   */\n  dup3\n    /* \"#utility.yul\":1151:1160   */\n  dup6\n    /* \"#utility.yul\":1147:1169   */\n  add\n    /* \"#utility.yul\":1115:1179   */\n  tag_13\n  jump\t// in\ntag_29:\n    /* \"#utility.yul\":1105:1179   */\n  swap2\n  pop\n    /* \"#utility.yul\":1061:1189   */\n  pop\n    /* \"#utility.yul\":845:1196   */\n  swap3\n  swap2\n  pop\n  pop\n  jump\t// out\n    /* \"contracts/oracle.sol\":334:1325  contract GeneratingRandomNumber {... */\ntag_6:\n  dataSize(sub_0)\n  dup1\n  dataOffset(sub_0)\n  0x00\n  codecopy\n  0x00\n  return\nstop\n\nsub_0: assembly {\n        /* \"contracts/oracle.sol\":334:1325  contract GeneratingRandomNumber {... */\n      mstore(0x40, 0x80)\n      callvalue\n      dup1\n      iszero\n      tag_1\n      jumpi\n      0x00\n      dup1\n      revert\n    tag_1:\n      pop\n      jumpi(tag_2, lt(calldatasize, 0x04))\n      shr(0xe0, calldataload(0x00))\n      dup1\n      0x50cd4df2\n      eq\n      tag_3\n      jumpi\n      dup1\n      0x805553e8\n      eq\n      tag_4\n      jumpi\n    tag_2:\n      0x00\n      dup1\n      revert\n        /* \"contracts/oracle.sol\":533:548  Oracle public o */\n    tag_3:\n      tag_5\n      tag_6\n      jump\t// in\n    tag_5:\n      mload(0x40)\n      tag_7\n      swap2\n      swap1\n      tag_8\n      jump\t// in\n    tag_7:\n      mload(0x40)\n      dup1\n      swap2\n      sub\n      swap1\n      return\n        /* \"contracts/oracle.sol\":739:1323  function randMod(uint256 range) external view returns (uint256) {... */\n    tag_4:\n      tag_9\n      0x04\n      dup1\n      calldatasize\n      sub\n      dup2\n      add\n      swap1\n      tag_10\n      swap2\n      swap1\n      tag_11\n      jump\t// in\n    tag_10:\n      tag_12\n      jump\t// in\n    tag_9:\n      mload(0x40)\n      tag_13\n      swap2\n      swap1\n      tag_14\n      jump\t// in\n    tag_13:\n      mload(0x40)\n      dup1\n      swap2\n      sub\n      swap1\n      return\n        /* \"contracts/oracle.sol\":533:548  Oracle public o */\n    tag_6:\n      0x00\n      dup1\n      sload\n      swap1\n      0x0100\n      exp\n      swap1\n      div\n      0xffffffffffffffffffffffffffffffffffffffff\n      and\n      dup2\n      jump\t// out\n        /* \"contracts/oracle.sol\":739:1323  function randMod(uint256 range) external view returns (uint256) {... */\n    tag_12:\n        /* \"contracts/oracle.sol\":794:801  uint256 */\n      0x00\n        /* \"contracts/oracle.sol\":829:830  0 */\n      dup1\n        /* \"contracts/oracle.sol\":821:826  range */\n      dup3\n        /* \"contracts/oracle.sol\":821:830  range > 0 */\n      gt\n        /* \"contracts/oracle.sol\":813:857  require(range > 0, \"Range must be positive\") */\n      tag_16\n      jumpi\n      mload(0x40)\n      0x08c379a000000000000000000000000000000000000000000000000000000000\n      dup2\n      mstore\n      0x04\n      add\n      tag_17\n      swap1\n      tag_18\n      jump\t// in\n    tag_17:\n      mload(0x40)\n      dup1\n      swap2\n      sub\n      swap1\n      revert\n    tag_16:\n        /* \"contracts/oracle.sol\":1311:1316  range */\n      dup2\n        /* \"contracts/oracle.sol\":1078:1093  block.timestamp */\n      timestamp\n        /* \"contracts/oracle.sol\":1119:1135  block.prevrandao */\n      prevrandao\n        /* \"contracts/oracle.sol\":1212:1222  msg.sender */\n      caller\n        /* \"contracts/oracle.sol\":1248:1249  o */\n      0x00\n      dup1\n      sload\n      swap1\n      0x0100\n      exp\n      swap1\n      div\n      0xffffffffffffffffffffffffffffffffffffffff\n      and\n        /* \"contracts/oracle.sol\":1248:1254  o.rand */\n      0xffffffffffffffffffffffffffffffffffffffff\n      and\n      0x3b3dca76\n        /* \"contracts/oracle.sol\":1036:1276  abi.encodePacked(... */\n      add(0x20, mload(0x40))\n      tag_19\n      swap6\n      swap5\n      swap4\n      swap3\n      swap2\n      swap1\n      tag_20\n      jump\t// in\n    tag_19:\n      mload(0x40)\n      0x20\n      dup2\n      dup4\n      sub\n      sub\n      dup2\n      mstore\n      swap1\n      0x40\n      mstore\n        /* \"contracts/oracle.sol\":1005:1294  keccak256(... */\n      dup1\n      mload\n      swap1\n      0x20\n      add\n      keccak256\n        /* \"contracts/oracle.sol\":980:1308  uint256(... */\n      0x00\n      shr\n        /* \"contracts/oracle.sol\":980:1316  uint256(... */\n      tag_21\n      swap2\n      swap1\n      tag_22\n      jump\t// in\n    tag_21:\n        /* \"contracts/oracle.sol\":961:1316  return... */\n      swap1\n      pop\n        /* \"contracts/oracle.sol\":739:1323  function randMod(uint256 range) external view returns (uint256) {... */\n      swap2\n      swap1\n      pop\n      jump\t// out\n        /* \"#utility.yul\":7:133   */\n    tag_23:\n        /* \"#utility.yul\":44:51   */\n      0x00\n        /* \"#utility.yul\":84:126   */\n      0xffffffffffffffffffffffffffffffffffffffff\n        /* \"#utility.yul\":77:82   */\n      dup3\n        /* \"#utility.yul\":73:127   */\n      and\n        /* \"#utility.yul\":62:127   */\n      swap1\n      pop\n        /* \"#utility.yul\":7:133   */\n      swap2\n      swap1\n      pop\n      jump\t// out\n        /* \"#utility.yul\":139:199   */\n    tag_24:\n        /* \"#utility.yul\":167:170   */\n      0x00\n        /* \"#utility.yul\":188:193   */\n      dup2\n        /* \"#utility.yul\":181:193   */\n      swap1\n      pop\n        /* \"#utility.yul\":139:199   */\n      swap2\n      swap1\n      pop\n      jump\t// out\n        /* \"#utility.yul\":205:347   */\n    tag_25:\n        /* \"#utility.yul\":255:264   */\n      0x00\n        /* \"#utility.yul\":288:341   */\n      tag_56\n        /* \"#utility.yul\":306:340   */\n      tag_57\n        /* \"#utility.yul\":315:339   */\n      tag_58\n        /* \"#utility.yul\":333:338   */\n      dup5\n        /* \"#utility.yul\":315:339   */\n      tag_23\n      jump\t// in\n    tag_58:\n        /* \"#utility.yul\":306:340   */\n      tag_24\n      jump\t// in\n    tag_57:\n        /* \"#utility.yul\":288:341   */\n      tag_23\n      jump\t// in\n    tag_56:\n        /* \"#utility.yul\":275:341   */\n      swap1\n      pop\n        /* \"#utility.yul\":205:347   */\n      swap2\n      swap1\n      pop\n      jump\t// out\n        /* \"#utility.yul\":353:479   */\n    tag_26:\n        /* \"#utility.yul\":403:412   */\n      0x00\n        /* \"#utility.yul\":436:473   */\n      tag_60\n        /* \"#utility.yul\":467:472   */\n      dup3\n        /* \"#utility.yul\":436:473   */\n      tag_25\n      jump\t// in\n    tag_60:\n        /* \"#utility.yul\":423:473   */\n      swap1\n      pop\n        /* \"#utility.yul\":353:479   */\n      swap2\n      swap1\n      pop\n      jump\t// out\n        /* \"#utility.yul\":485:624   */\n    tag_27:\n        /* \"#utility.yul\":548:557   */\n      0x00\n        /* \"#utility.yul\":581:618   */\n      tag_62\n        /* \"#utility.yul\":612:617   */\n      dup3\n        /* \"#utility.yul\":581:618   */\n      tag_26\n      jump\t// in\n    tag_62:\n        /* \"#utility.yul\":568:618   */\n      swap1\n      pop\n        /* \"#utility.yul\":485:624   */\n      swap2\n      swap1\n      pop\n      jump\t// out\n        /* \"#utility.yul\":630:787   */\n    tag_28:\n        /* \"#utility.yul\":730:780   */\n      tag_64\n        /* \"#utility.yul\":774:779   */\n      dup2\n        /* \"#utility.yul\":730:780   */\n      tag_27\n      jump\t// in\n    tag_64:\n        /* \"#utility.yul\":725:728   */\n      dup3\n        /* \"#utility.yul\":718:781   */\n      mstore\n        /* \"#utility.yul\":630:787   */\n      pop\n      pop\n      jump\t// out\n        /* \"#utility.yul\":793:1041   */\n    tag_8:\n        /* \"#utility.yul\":899:903   */\n      0x00\n        /* \"#utility.yul\":937:939   */\n      0x20\n        /* \"#utility.yul\":926:935   */\n      dup3\n        /* \"#utility.yul\":922:940   */\n      add\n        /* \"#utility.yul\":914:940   */\n      swap1\n      pop\n        /* \"#utility.yul\":950:1034   */\n      tag_66\n        /* \"#utility.yul\":1031:1032   */\n      0x00\n        /* \"#utility.yul\":1020:1029   */\n      dup4\n        /* \"#utility.yul\":1016:1033   */\n      add\n        /* \"#utility.yul\":1007:1013   */\n      dup5\n        /* \"#utility.yul\":950:1034   */\n      tag_28\n      jump\t// in\n    tag_66:\n        /* \"#utility.yul\":793:1041   */\n      swap3\n      swap2\n      pop\n      pop\n      jump\t// out\n        /* \"#utility.yul\":1128:1245   */\n    tag_30:\n        /* \"#utility.yul\":1237:1238   */\n      0x00\n        /* \"#utility.yul\":1234:1235   */\n      dup1\n        /* \"#utility.yul\":1227:1239   */\n      revert\n        /* \"#utility.yul\":1374:1451   */\n    tag_32:\n        /* \"#utility.yul\":1411:1418   */\n      0x00\n        /* \"#utility.yul\":1440:1445   */\n      dup2\n        /* \"#utility.yul\":1429:1445   */\n      swap1\n      pop\n        /* \"#utility.yul\":1374:1451   */\n      swap2\n      swap1\n      pop\n      jump\t// out\n        /* \"#utility.yul\":1457:1579   */\n    tag_33:\n        /* \"#utility.yul\":1530:1554   */\n      tag_72\n        /* \"#utility.yul\":1548:1553   */\n      dup2\n        /* \"#utility.yul\":1530:1554   */\n      tag_32\n      jump\t// in\n    tag_72:\n        /* \"#utility.yul\":1523:1528   */\n      dup2\n        /* \"#utility.yul\":1520:1555   */\n      eq\n        /* \"#utility.yul\":1510:1573   */\n      tag_73\n      jumpi\n        /* \"#utility.yul\":1569:1570   */\n      0x00\n        /* \"#utility.yul\":1566:1567   */\n      dup1\n        /* \"#utility.yul\":1559:1571   */\n      revert\n        /* \"#utility.yul\":1510:1573   */\n    tag_73:\n        /* \"#utility.yul\":1457:1579   */\n      pop\n      jump\t// out\n        /* \"#utility.yul\":1585:1724   */\n    tag_34:\n        /* \"#utility.yul\":1631:1636   */\n      0x00\n        /* \"#utility.yul\":1669:1675   */\n      dup2\n        /* \"#utility.yul\":1656:1676   */\n      calldataload\n        /* \"#utility.yul\":1647:1676   */\n      swap1\n      pop\n        /* \"#utility.yul\":1685:1718   */\n      tag_75\n        /* \"#utility.yul\":1712:1717   */\n      dup2\n        /* \"#utility.yul\":1685:1718   */\n      tag_33\n      jump\t// in\n    tag_75:\n        /* \"#utility.yul\":1585:1724   */\n      swap3\n      swap2\n      pop\n      pop\n      jump\t// out\n        /* \"#utility.yul\":1730:2059   */\n    tag_11:\n        /* \"#utility.yul\":1789:1795   */\n      0x00\n        /* \"#utility.yul\":1838:1840   */\n      0x20\n        /* \"#utility.yul\":1826:1835   */\n      dup3\n        /* \"#utility.yul\":1817:1824   */\n      dup5\n        /* \"#utility.yul\":1813:1836   */\n      sub\n        /* \"#utility.yul\":1809:1841   */\n      slt\n        /* \"#utility.yul\":1806:1925   */\n      iszero\n      tag_77\n      jumpi\n        /* \"#utility.yul\":1844:1923   */\n      tag_78\n      tag_30\n      jump\t// in\n    tag_78:\n        /* \"#utility.yul\":1806:1925   */\n    tag_77:\n        /* \"#utility.yul\":1964:1965   */\n      0x00\n        /* \"#utility.yul\":1989:2042   */\n      tag_79\n        /* \"#utility.yul\":2034:2041   */\n      dup5\n        /* \"#utility.yul\":2025:2031   */\n      dup3\n        /* \"#utility.yul\":2014:2023   */\n      dup6\n        /* \"#utility.yul\":2010:2032   */\n      add\n        /* \"#utility.yul\":1989:2042   */\n      tag_34\n      jump\t// in\n    tag_79:\n        /* \"#utility.yul\":1979:2042   */\n      swap2\n      pop\n        /* \"#utility.yul\":1935:2052   */\n      pop\n        /* \"#utility.yul\":1730:2059   */\n      swap3\n      swap2\n      pop\n      pop\n      jump\t// out\n        /* \"#utility.yul\":2065:2183   */\n    tag_35:\n        /* \"#utility.yul\":2152:2176   */\n      tag_81\n        /* \"#utility.yul\":2170:2175   */\n      dup2\n        /* \"#utility.yul\":2152:2176   */\n      tag_32\n      jump\t// in\n    tag_81:\n        /* \"#utility.yul\":2147:2150   */\n      dup3\n        /* \"#utility.yul\":2140:2177   */\n      mstore\n        /* \"#utility.yul\":2065:2183   */\n      pop\n      pop\n      jump\t// out\n        /* \"#utility.yul\":2189:2411   */\n    tag_14:\n        /* \"#utility.yul\":2282:2286   */\n      0x00\n        /* \"#utility.yul\":2320:2322   */\n      0x20\n        /* \"#utility.yul\":2309:2318   */\n      dup3\n        /* \"#utility.yul\":2305:2323   */\n      add\n        /* \"#utility.yul\":2297:2323   */\n      swap1\n      pop\n        /* \"#utility.yul\":2333:2404   */\n      tag_83\n        /* \"#utility.yul\":2401:2402   */\n      0x00\n        /* \"#utility.yul\":2390:2399   */\n      dup4\n        /* \"#utility.yul\":2386:2403   */\n      add\n        /* \"#utility.yul\":2377:2383   */\n      dup5\n        /* \"#utility.yul\":2333:2404   */\n      tag_35\n      jump\t// in\n    tag_83:\n        /* \"#utility.yul\":2189:2411   */\n      swap3\n      swap2\n      pop\n      pop\n      jump\t// out\n        /* \"#utility.yul\":2417:2586   */\n    tag_36:\n        /* \"#utility.yul\":2501:2512   */\n      0x00\n        /* \"#utility.yul\":2535:2541   */\n      dup3\n        /* \"#utility.yul\":2530:2533   */\n      dup3\n        /* \"#utility.yul\":2523:2542   */\n      mstore\n        /* \"#utility.yul\":2575:2579   */\n      0x20\n        /* \"#utility.yul\":2570:2573   */\n      dup3\n        /* \"#utility.yul\":2566:2580   */\n      add\n        /* \"#utility.yul\":2551:2580   */\n      swap1\n      pop\n        /* \"#utility.yul\":2417:2586   */\n      swap3\n      swap2\n      pop\n      pop\n      jump\t// out\n        /* \"#utility.yul\":2592:2764   */\n    tag_37:\n        /* \"#utility.yul\":2732:2756   */\n      0x52616e6765206d75737420626520706f73697469766500000000000000000000\n        /* \"#utility.yul\":2728:2729   */\n      0x00\n        /* \"#utility.yul\":2720:2726   */\n      dup3\n        /* \"#utility.yul\":2716:2730   */\n      add\n        /* \"#utility.yul\":2709:2757   */\n      mstore\n        /* \"#utility.yul\":2592:2764   */\n      pop\n      jump\t// out\n        /* \"#utility.yul\":2770:3136   */\n    tag_38:\n        /* \"#utility.yul\":2912:2915   */\n      0x00\n        /* \"#utility.yul\":2933:3000   */\n      tag_87\n        /* \"#utility.yul\":2997:2999   */\n      0x16\n        /* \"#utility.yul\":2992:2995   */\n      dup4\n        /* \"#utility.yul\":2933:3000   */\n      tag_36\n      jump\t// in\n    tag_87:\n        /* \"#utility.yul\":2926:3000   */\n      swap2\n      pop\n        /* \"#utility.yul\":3009:3102   */\n      tag_88\n        /* \"#utility.yul\":3098:3101   */\n      dup3\n        /* \"#utility.yul\":3009:3102   */\n      tag_37\n      jump\t// in\n    tag_88:\n        /* \"#utility.yul\":3127:3129   */\n      0x20\n        /* \"#utility.yul\":3122:3125   */\n      dup3\n        /* \"#utility.yul\":3118:3130   */\n      add\n        /* \"#utility.yul\":3111:3130   */\n      swap1\n      pop\n        /* \"#utility.yul\":2770:3136   */\n      swap2\n      swap1\n      pop\n      jump\t// out\n        /* \"#utility.yul\":3142:3561   */\n    tag_18:\n        /* \"#utility.yul\":3308:3312   */\n      0x00\n        /* \"#utility.yul\":3346:3348   */\n      0x20\n        /* \"#utility.yul\":3335:3344   */\n      dup3\n        /* \"#utility.yul\":3331:3349   */\n      add\n        /* \"#utility.yul\":3323:3349   */\n      swap1\n      pop\n        /* \"#utility.yul\":3395:3404   */\n      dup2\n        /* \"#utility.yul\":3389:3393   */\n      dup2\n        /* \"#utility.yul\":3385:3405   */\n      sub\n        /* \"#utility.yul\":3381:3382   */\n      0x00\n        /* \"#utility.yul\":3370:3379   */\n      dup4\n        /* \"#utility.yul\":3366:3383   */\n      add\n        /* \"#utility.yul\":3359:3406   */\n      mstore\n        /* \"#utility.yul\":3423:3554   */\n      tag_90\n        /* \"#utility.yul\":3549:3553   */\n      dup2\n        /* \"#utility.yul\":3423:3554   */\n      tag_38\n      jump\t// in\n    tag_90:\n        /* \"#utility.yul\":3415:3554   */\n      swap1\n      pop\n        /* \"#utility.yul\":3142:3561   */\n      swap2\n      swap1\n      pop\n      jump\t// out\n        /* \"#utility.yul\":3567:3646   */\n    tag_39:\n        /* \"#utility.yul\":3606:3613   */\n      0x00\n        /* \"#utility.yul\":3635:3640   */\n      dup2\n        /* \"#utility.yul\":3624:3640   */\n      swap1\n      pop\n        /* \"#utility.yul\":3567:3646   */\n      swap2\n      swap1\n      pop\n      jump\t// out\n        /* \"#utility.yul\":3652:3809   */\n    tag_40:\n        /* \"#utility.yul\":3757:3802   */\n      tag_93\n        /* \"#utility.yul\":3777:3801   */\n      tag_94\n        /* \"#utility.yul\":3795:3800   */\n      dup3\n        /* \"#utility.yul\":3777:3801   */\n      tag_32\n      jump\t// in\n    tag_94:\n        /* \"#utility.yul\":3757:3802   */\n      tag_39\n      jump\t// in\n    tag_93:\n        /* \"#utility.yul\":3752:3755   */\n      dup3\n        /* \"#utility.yul\":3745:3803   */\n      mstore\n        /* \"#utility.yul\":3652:3809   */\n      pop\n      pop\n      jump\t// out\n        /* \"#utility.yul\":3815:3911   */\n    tag_41:\n        /* \"#utility.yul\":3852:3859   */\n      0x00\n        /* \"#utility.yul\":3881:3905   */\n      tag_96\n        /* \"#utility.yul\":3899:3904   */\n      dup3\n        /* \"#utility.yul\":3881:3905   */\n      tag_23\n      jump\t// in\n    tag_96:\n        /* \"#utility.yul\":3870:3905   */\n      swap1\n      pop\n        /* \"#utility.yul\":3815:3911   */\n      swap2\n      swap1\n      pop\n      jump\t// out\n        /* \"#utility.yul\":3917:4011   */\n    tag_42:\n        /* \"#utility.yul\":3950:3958   */\n      0x00\n        /* \"#utility.yul\":3998:4003   */\n      dup2\n        /* \"#utility.yul\":3994:3996   */\n      0x60\n        /* \"#utility.yul\":3990:4004   */\n      shl\n        /* \"#utility.yul\":3969:4004   */\n      swap1\n      pop\n        /* \"#utility.yul\":3917:4011   */\n      swap2\n      swap1\n      pop\n      jump\t// out\n        /* \"#utility.yul\":4017:4111   */\n    tag_43:\n        /* \"#utility.yul\":4056:4063   */\n      0x00\n        /* \"#utility.yul\":4085:4105   */\n      tag_99\n        /* \"#utility.yul\":4099:4104   */\n      dup3\n        /* \"#utility.yul\":4085:4105   */\n      tag_42\n      jump\t// in\n    tag_99:\n        /* \"#utility.yul\":4074:4105   */\n      swap1\n      pop\n        /* \"#utility.yul\":4017:4111   */\n      swap2\n      swap1\n      pop\n      jump\t// out\n        /* \"#utility.yul\":4117:4217   */\n    tag_44:\n        /* \"#utility.yul\":4156:4163   */\n      0x00\n        /* \"#utility.yul\":4185:4211   */\n      tag_101\n        /* \"#utility.yul\":4205:4210   */\n      dup3\n        /* \"#utility.yul\":4185:4211   */\n      tag_43\n      jump\t// in\n    tag_101:\n        /* \"#utility.yul\":4174:4211   */\n      swap1\n      pop\n        /* \"#utility.yul\":4117:4217   */\n      swap2\n      swap1\n      pop\n      jump\t// out\n        /* \"#utility.yul\":4223:4380   */\n    tag_45:\n        /* \"#utility.yul\":4328:4373   */\n      tag_103\n        /* \"#utility.yul\":4348:4372   */\n      tag_104\n        /* \"#utility.yul\":4366:4371   */\n      dup3\n        /* \"#utility.yul\":4348:4372   */\n      tag_41\n      jump\t// in\n    tag_104:\n        /* \"#utility.yul\":4328:4373   */\n      tag_44\n      jump\t// in\n    tag_103:\n        /* \"#utility.yul\":4323:4326   */\n      dup3\n        /* \"#utility.yul\":4316:4374   */\n      mstore\n        /* \"#utility.yul\":4223:4380   */\n      pop\n      pop\n      jump\t// out\n        /* \"#utility.yul\":4386:4480   */\n    tag_46:\n        /* \"#utility.yul\":4419:4427   */\n      0x00\n        /* \"#utility.yul\":4467:4472   */\n      dup2\n        /* \"#utility.yul\":4463:4465   */\n      0x20\n        /* \"#utility.yul\":4459:4473   */\n      shl\n        /* \"#utility.yul\":4438:4473   */\n      swap1\n      pop\n        /* \"#utility.yul\":4386:4480   */\n      swap2\n      swap1\n      pop\n      jump\t// out\n        /* \"#utility.yul\":4486:4580   */\n    tag_47:\n        /* \"#utility.yul\":4519:4527   */\n      0x00\n        /* \"#utility.yul\":4567:4572   */\n      dup2\n        /* \"#utility.yul\":4563:4565   */\n      0x40\n        /* \"#utility.yul\":4559:4573   */\n      shl\n        /* \"#utility.yul\":4538:4573   */\n      swap1\n      pop\n        /* \"#utility.yul\":4486:4580   */\n      swap2\n      swap1\n      pop\n      jump\t// out\n        /* \"#utility.yul\":4586:4745   */\n    tag_48:\n        /* \"#utility.yul\":4643:4651   */\n      0x00\n        /* \"#utility.yul\":4674:4739   */\n      tag_108\n        /* \"#utility.yul\":4726:4736   */\n      0xffffffff\n        /* \"#utility.yul\":4716:4724   */\n      dup5\n        /* \"#utility.yul\":4712:4737   */\n      and\n        /* \"#utility.yul\":4691:4710   */\n      tag_109\n        /* \"#utility.yul\":4705:4709   */\n      dup5\n        /* \"#utility.yul\":4691:4710   */\n      tag_46\n      jump\t// in\n    tag_109:\n        /* \"#utility.yul\":4688:4738   */\n      or\n        /* \"#utility.yul\":4674:4739   */\n      tag_47\n      jump\t// in\n    tag_108:\n        /* \"#utility.yul\":4662:4739   */\n      swap1\n      pop\n        /* \"#utility.yul\":4586:4745   */\n      swap3\n      swap2\n      pop\n      pop\n      jump\t// out\n        /* \"#utility.yul\":4751:4980   */\n    tag_49:\n        /* \"#utility.yul\":4890:4897   */\n      0x00\n        /* \"#utility.yul\":4899:4912   */\n      dup1\n        /* \"#utility.yul\":4934:4938   */\n      dup3\n        /* \"#utility.yul\":4923:4938   */\n      swap2\n      pop\n        /* \"#utility.yul\":4964:4974   */\n      dup4\n        /* \"#utility.yul\":4947:4974   */\n      swap1\n      pop\n        /* \"#utility.yul\":4751:4980   */\n      swap3\n      pop\n      swap3\n      swap1\n      pop\n      jump\t// out\n        /* \"#utility.yul\":4986:5392   */\n    tag_50:\n        /* \"#utility.yul\":5190:5317   */\n      tag_112\n        /* \"#utility.yul\":5305:5316   */\n      dup3\n        /* \"#utility.yul\":5299:5303   */\n      dup3\n        /* \"#utility.yul\":5190:5317   */\n      tag_49\n      jump\t// in\n    tag_112:\n        /* \"#utility.yul\":5169:5317   */\n      swap3\n      pop\n      swap1\n      pop\n        /* \"#utility.yul\":5338:5385   */\n      tag_113\n        /* \"#utility.yul\":5373:5384   */\n      dup3\n        /* \"#utility.yul\":5367:5371   */\n      dup3\n        /* \"#utility.yul\":5338:5385   */\n      tag_48\n      jump\t// in\n    tag_113:\n        /* \"#utility.yul\":5333:5336   */\n      dup4\n        /* \"#utility.yul\":5326:5386   */\n      mstore\n        /* \"#utility.yul\":4986:5392   */\n      pop\n      pop\n      pop\n      jump\t// out\n        /* \"#utility.yul\":5398:6249   */\n    tag_20:\n        /* \"#utility.yul\":5680:5683   */\n      0x00\n        /* \"#utility.yul\":5695:5770   */\n      tag_115\n        /* \"#utility.yul\":5766:5769   */\n      dup3\n        /* \"#utility.yul\":5757:5763   */\n      dup9\n        /* \"#utility.yul\":5695:5770   */\n      tag_40\n      jump\t// in\n    tag_115:\n        /* \"#utility.yul\":5795:5797   */\n      0x20\n        /* \"#utility.yul\":5790:5793   */\n      dup3\n        /* \"#utility.yul\":5786:5798   */\n      add\n        /* \"#utility.yul\":5779:5798   */\n      swap2\n      pop\n        /* \"#utility.yul\":5808:5883   */\n      tag_116\n        /* \"#utility.yul\":5879:5882   */\n      dup3\n        /* \"#utility.yul\":5870:5876   */\n      dup8\n        /* \"#utility.yul\":5808:5883   */\n      tag_40\n      jump\t// in\n    tag_116:\n        /* \"#utility.yul\":5908:5910   */\n      0x20\n        /* \"#utility.yul\":5903:5906   */\n      dup3\n        /* \"#utility.yul\":5899:5911   */\n      add\n        /* \"#utility.yul\":5892:5911   */\n      swap2\n      pop\n        /* \"#utility.yul\":5921:5996   */\n      tag_117\n        /* \"#utility.yul\":5992:5995   */\n      dup3\n        /* \"#utility.yul\":5983:5989   */\n      dup7\n        /* \"#utility.yul\":5921:5996   */\n      tag_45\n      jump\t// in\n    tag_117:\n        /* \"#utility.yul\":6021:6023   */\n      0x14\n        /* \"#utility.yul\":6016:6019   */\n      dup3\n        /* \"#utility.yul\":6012:6024   */\n      add\n        /* \"#utility.yul\":6005:6024   */\n      swap2\n      pop\n        /* \"#utility.yul\":6034:6195   */\n      tag_118\n        /* \"#utility.yul\":6191:6194   */\n      dup3\n        /* \"#utility.yul\":6182:6188   */\n      dup5\n        /* \"#utility.yul\":6174:6180   */\n      dup7\n        /* \"#utility.yul\":6034:6195   */\n      tag_50\n      jump\t// in\n    tag_118:\n        /* \"#utility.yul\":6220:6222   */\n      0x18\n        /* \"#utility.yul\":6215:6218   */\n      dup3\n        /* \"#utility.yul\":6211:6223   */\n      add\n        /* \"#utility.yul\":6204:6223   */\n      swap2\n      pop\n        /* \"#utility.yul\":6240:6243   */\n      dup2\n        /* \"#utility.yul\":6233:6243   */\n      swap1\n      pop\n        /* \"#utility.yul\":5398:6249   */\n      swap7\n      swap6\n      pop\n      pop\n      pop\n      pop\n      pop\n      pop\n      jump\t// out\n        /* \"#utility.yul\":6255:6435   */\n    tag_51:\n        /* \"#utility.yul\":6303:6380   */\n      0x4e487b7100000000000000000000000000000000000000000000000000000000\n        /* \"#utility.yul\":6300:6301   */\n      0x00\n        /* \"#utility.yul\":6293:6381   */\n      mstore\n        /* \"#utility.yul\":6400:6404   */\n      0x12\n        /* \"#utility.yul\":6397:6398   */\n      0x04\n        /* \"#utility.yul\":6390:6405   */\n      mstore\n        /* \"#utility.yul\":6424:6428   */\n      0x24\n        /* \"#utility.yul\":6421:6422   */\n      0x00\n        /* \"#utility.yul\":6414:6429   */\n      revert\n        /* \"#utility.yul\":6441:6617   */\n    tag_22:\n        /* \"#utility.yul\":6473:6474   */\n      0x00\n        /* \"#utility.yul\":6490:6510   */\n      tag_121\n        /* \"#utility.yul\":6508:6509   */\n      dup3\n        /* \"#utility.yul\":6490:6510   */\n      tag_32\n      jump\t// in\n    tag_121:\n        /* \"#utility.yul\":6485:6510   */\n      swap2\n      pop\n        /* \"#utility.yul\":6524:6544   */\n      tag_122\n        /* \"#utility.yul\":6542:6543   */\n      dup4\n        /* \"#utility.yul\":6524:6544   */\n      tag_32\n      jump\t// in\n    tag_122:\n        /* \"#utility.yul\":6519:6544   */\n      swap3\n      pop\n        /* \"#utility.yul\":6563:6564   */\n      dup3\n        /* \"#utility.yul\":6553:6588   */\n      tag_123\n      jumpi\n        /* \"#utility.yul\":6568:6586   */\n      tag_124\n      tag_51\n      jump\t// in\n    tag_124:\n        /* \"#utility.yul\":6553:6588   */\n    tag_123:\n        /* \"#utility.yul\":6609:6610   */\n      dup3\n        /* \"#utility.yul\":6606:6607   */\n      dup3\n        /* \"#utility.yul\":6602:6611   */\n      mod\n        /* \"#utility.yul\":6597:6611   */\n      swap1\n      pop\n        /* \"#utility.yul\":6441:6617   */\n      swap3\n      swap2\n      pop\n      pop\n      jump\t// out\n\n    auxdata: 0xa26469706673582212206b6ba5c2514c05afc3c8b91de1ea31a3989128063ca0dbb1f1a90df41db7e96d64736f6c634300081a0033\n}\n",
				"bytecode": {
					"linkReferences": {},
					"object": "608060405234801561000f575f80fd5b506040516105c93803806105c9833981810160405281019061003191906100d4565b805f806101000a81548173ffffffffffffffffffffffffffffffffffffffff021916908373ffffffffffffffffffffffffffffffffffffffff160217905550506100ff565b5f80fd5b5f73ffffffffffffffffffffffffffffffffffffffff82169050919050565b5f6100a38261007a565b9050919050565b6100b381610099565b81146100bd575f80fd5b50565b5f815190506100ce816100aa565b92915050565b5f602082840312156100e9576100e8610076565b5b5f6100f6848285016100c0565b91505092915050565b6104bd8061010c5f395ff3fe608060405234801561000f575f80fd5b5060043610610034575f3560e01c806350cd4df214610038578063805553e814610056575b5f80fd5b610040610086565b60405161004d91906101e2565b60405180910390f35b610070600480360381019061006b9190610232565b6100a9565b60405161007d919061026c565b60405180910390f35b5f8054906101000a900473ffffffffffffffffffffffffffffffffffffffff1681565b5f8082116100ec576040517f08c379a00000000000000000000000000000000000000000000000000000000081526004016100e3906102df565b60405180910390fd5b814244335f8054906101000a900473ffffffffffffffffffffffffffffffffffffffff1673ffffffffffffffffffffffffffffffffffffffff16633b3dca7660405160200161013f9594939291906103db565b604051602081830303815290604052805190602001205f1c6101619190610457565b9050919050565b5f73ffffffffffffffffffffffffffffffffffffffff82169050919050565b5f819050919050565b5f6101aa6101a56101a084610168565b610187565b610168565b9050919050565b5f6101bb82610190565b9050919050565b5f6101cc826101b1565b9050919050565b6101dc816101c2565b82525050565b5f6020820190506101f55f8301846101d3565b92915050565b5f80fd5b5f819050919050565b610211816101ff565b811461021b575f80fd5b50565b5f8135905061022c81610208565b92915050565b5f60208284031215610247576102466101fb565b5b5f6102548482850161021e565b91505092915050565b610266816101ff565b82525050565b5f60208201905061027f5f83018461025d565b92915050565b5f82825260208201905092915050565b7f52616e6765206d75737420626520706f736974697665000000000000000000005f82015250565b5f6102c9601683610285565b91506102d482610295565b602082019050919050565b5f6020820190508181035f8301526102f6816102bd565b9050919050565b5f819050919050565b610317610312826101ff565b6102fd565b82525050565b5f61032782610168565b9050919050565b5f8160601b9050919050565b5f6103448261032e565b9050919050565b5f6103558261033a565b9050919050565b61036d6103688261031d565b61034b565b82525050565b5f8160201b9050919050565b5f8160401b9050919050565b5f6103a563ffffffff841661039f84610373565b1761037f565b905092915050565b5f808291508390509250929050565b6103c682826103ad565b925090506103d4828261038b565b8352505050565b5f6103e68288610306565b6020820191506103f68287610306565b602082019150610406828661035c565b6014820191506104178284866103bc565b6018820191508190509695505050505050565b7f4e487b71000000000000000000000000000000000000000000000000000000005f52601260045260245ffd5b5f610461826101ff565b915061046c836101ff565b92508261047c5761047b61042a565b5b82820690509291505056fea26469706673582212206b6ba5c2514c05afc3c8b91de1ea31a3989128063ca0dbb1f1a90df41db7e96d64736f6c634300081a0033",
					"opcodes": "PUSH1 0x80 PUSH1 0x40 MSTORE CALLVALUE DUP1 ISZERO PUSH2 0xF JUMPI PUSH0 DUP1 REVERT JUMPDEST POP PUSH1 0x40 MLOAD PUSH2 0x5C9 CODESIZE SUB DUP1 PUSH2 0x5C9 DUP4 CODECOPY DUP2 DUP2 ADD PUSH1 0x40 MSTORE DUP2 ADD SWAP1 PUSH2 0x31 SWAP2 SWAP1 PUSH2 0xD4 JUMP JUMPDEST DUP1 PUSH0 DUP1 PUSH2 0x100 EXP DUP2 SLOAD DUP2 PUSH20 0xFFFFFFFFFFFFFFFFFFFFFFFFFFFFFFFFFFFFFFFF MUL NOT AND SWAP1 DUP4 PUSH20 0xFFFFFFFFFFFFFFFFFFFFFFFFFFFFFFFFFFFFFFFF AND MUL OR SWAP1 SSTORE POP POP PUSH2 0xFF JUMP JUMPDEST PUSH0 DUP1 REVERT JUMPDEST PUSH0 PUSH20 0xFFFFFFFFFFFFFFFFFFFFFFFFFFFFFFFFFFFFFFFF DUP3 AND SWAP1 POP SWAP2 SWAP1 POP JUMP JUMPDEST PUSH0 PUSH2 0xA3 DUP3 PUSH2 0x7A JUMP JUMPDEST SWAP1 POP SWAP2 SWAP1 POP JUMP JUMPDEST PUSH2 0xB3 DUP2 PUSH2 0x99 JUMP JUMPDEST DUP2 EQ PUSH2 0xBD JUMPI PUSH0 DUP1 REVERT JUMPDEST POP JUMP JUMPDEST PUSH0 DUP2 MLOAD SWAP1 POP PUSH2 0xCE DUP2 PUSH2 0xAA JUMP JUMPDEST SWAP3 SWAP2 POP POP JUMP JUMPDEST PUSH0 PUSH1 0x20 DUP3 DUP5 SUB SLT ISZERO PUSH2 0xE9 JUMPI PUSH2 0xE8 PUSH2 0x76 JUMP JUMPDEST JUMPDEST PUSH0 PUSH2 0xF6 DUP5 DUP3 DUP6 ADD PUSH2 0xC0 JUMP JUMPDEST SWAP2 POP POP SWAP3 SWAP2 POP POP JUMP JUMPDEST PUSH2 0x4BD DUP1 PUSH2 0x10C PUSH0 CODECOPY PUSH0 RETURN INVALID PUSH1 0x80 PUSH1 0x40 MSTORE CALLVALUE DUP1 ISZERO PUSH2 0xF JUMPI PUSH0 DUP1 REVERT JUMPDEST POP PUSH1 0x4 CALLDATASIZE LT PUSH2 0x34 JUMPI PUSH0 CALLDATALOAD PUSH1 0xE0 SHR DUP1 PUSH4 0x50CD4DF2 EQ PUSH2 0x38 JUMPI DUP1 PUSH4 0x805553E8 EQ PUSH2 0x56 JUMPI JUMPDEST PUSH0 DUP1 REVERT JUMPDEST PUSH2 0x40 PUSH2 0x86 JUMP JUMPDEST PUSH1 0x40 MLOAD PUSH2 0x4D SWAP2 SWAP1 PUSH2 0x1E2 JUMP JUMPDEST PUSH1 0x40 MLOAD DUP1 SWAP2 SUB SWAP1 RETURN JUMPDEST PUSH2 0x70 PUSH1 0x4 DUP1 CALLDATASIZE SUB DUP2 ADD SWAP1 PUSH2 0x6B SWAP2 SWAP1 PUSH2 0x232 JUMP JUMPDEST PUSH2 0xA9 JUMP JUMPDEST PUSH1 0x40 MLOAD PUSH2 0x7D SWAP2 SWAP1 PUSH2 0x26C JUMP JUMPDEST PUSH1 0x40 MLOAD DUP1 SWAP2 SUB SWAP1 RETURN JUMPDEST PUSH0 DUP1 SLOAD SWAP1 PUSH2 0x100 EXP SWAP1 DIV PUSH20 0xFFFFFFFFFFFFFFFFFFFFFFFFFFFFFFFFFFFFFFFF AND DUP2 JUMP JUMPDEST PUSH0 DUP1 DUP3 GT PUSH2 0xEC JUMPI PUSH1 0x40 MLOAD PUSH32 0x8C379A000000000000000000000000000000000000000000000000000000000 DUP2 MSTORE PUSH1 0x4 ADD PUSH2 0xE3 SWAP1 PUSH2 0x2DF JUMP JUMPDEST PUSH1 0x40 MLOAD DUP1 SWAP2 SUB SWAP1 REVERT JUMPDEST DUP2 TIMESTAMP PREVRANDAO CALLER PUSH0 DUP1 SLOAD SWAP1 PUSH2 0x100 EXP SWAP1 DIV PUSH20 0xFFFFFFFFFFFFFFFFFFFFFFFFFFFFFFFFFFFFFFFF AND PUSH20 0xFFFFFFFFFFFFFFFFFFFFFFFFFFFFFFFFFFFFFFFF AND PUSH4 0x3B3DCA76 PUSH1 0x40 MLOAD PUSH1 0x20 ADD PUSH2 0x13F SWAP6 SWAP5 SWAP4 SWAP3 SWAP2 SWAP1 PUSH2 0x3DB JUMP JUMPDEST PUSH1 0x40 MLOAD PUSH1 0x20 DUP2 DUP4 SUB SUB DUP2 MSTORE SWAP1 PUSH1 0x40 MSTORE DUP1 MLOAD SWAP1 PUSH1 0x20 ADD KECCAK256 PUSH0 SHR PUSH2 0x161 SWAP2 SWAP1 PUSH2 0x457 JUMP JUMPDEST SWAP1 POP SWAP2 SWAP1 POP JUMP JUMPDEST PUSH0 PUSH20 0xFFFFFFFFFFFFFFFFFFFFFFFFFFFFFFFFFFFFFFFF DUP3 AND SWAP1 POP SWAP2 SWAP1 POP JUMP JUMPDEST PUSH0 DUP2 SWAP1 POP SWAP2 SWAP1 POP JUMP JUMPDEST PUSH0 PUSH2 0x1AA PUSH2 0x1A5 PUSH2 0x1A0 DUP5 PUSH2 0x168 JUMP JUMPDEST PUSH2 0x187 JUMP JUMPDEST PUSH2 0x168 JUMP JUMPDEST SWAP1 POP SWAP2 SWAP1 POP JUMP JUMPDEST PUSH0 PUSH2 0x1BB DUP3 PUSH2 0x190 JUMP JUMPDEST SWAP1 POP SWAP2 SWAP1 POP JUMP JUMPDEST PUSH0 PUSH2 0x1CC DUP3 PUSH2 0x1B1 JUMP JUMPDEST SWAP1 POP SWAP2 SWAP1 POP JUMP JUMPDEST PUSH2 0x1DC DUP2 PUSH2 0x1C2 JUMP JUMPDEST DUP3 MSTORE POP POP JUMP JUMPDEST PUSH0 PUSH1 0x20 DUP3 ADD SWAP1 POP PUSH2 0x1F5 PUSH0 DUP4 ADD DUP5 PUSH2 0x1D3 JUMP JUMPDEST SWAP3 SWAP2 POP POP JUMP JUMPDEST PUSH0 DUP1 REVERT JUMPDEST PUSH0 DUP2 SWAP1 POP SWAP2 SWAP1 POP JUMP JUMPDEST PUSH2 0x211 DUP2 PUSH2 0x1FF JUMP JUMPDEST DUP2 EQ PUSH2 0x21B JUMPI PUSH0 DUP1 REVERT JUMPDEST POP JUMP JUMPDEST PUSH0 DUP2 CALLDATALOAD SWAP1 POP PUSH2 0x22C DUP2 PUSH2 0x208 JUMP JUMPDEST SWAP3 SWAP2 POP POP JUMP JUMPDEST PUSH0 PUSH1 0x20 DUP3 DUP5 SUB SLT ISZERO PUSH2 0x247 JUMPI PUSH2 0x246 PUSH2 0x1FB JUMP JUMPDEST JUMPDEST PUSH0 PUSH2 0x254 DUP5 DUP3 DUP6 ADD PUSH2 0x21E JUMP JUMPDEST SWAP2 POP POP SWAP3 SWAP2 POP POP JUMP JUMPDEST PUSH2 0x266 DUP2 PUSH2 0x1FF JUMP JUMPDEST DUP3 MSTORE POP POP JUMP JUMPDEST PUSH0 PUSH1 0x20 DUP3 ADD SWAP1 POP PUSH2 0x27F PUSH0 DUP4 ADD DUP5 PUSH2 0x25D JUMP JUMPDEST SWAP3 SWAP2 POP POP JUMP JUMPDEST PUSH0 DUP3 DUP3 MSTORE PUSH1 0x20 DUP3 ADD SWAP1 POP SWAP3 SWAP2 POP POP JUMP JUMPDEST PUSH32 0x52616E6765206D75737420626520706F73697469766500000000000000000000 PUSH0 DUP3 ADD MSTORE POP JUMP JUMPDEST PUSH0 PUSH2 0x2C9 PUSH1 0x16 DUP4 PUSH2 0x285 JUMP JUMPDEST SWAP2 POP PUSH2 0x2D4 DUP3 PUSH2 0x295 JUMP JUMPDEST PUSH1 0x20 DUP3 ADD SWAP1 POP SWAP2 SWAP1 POP JUMP JUMPDEST PUSH0 PUSH1 0x20 DUP3 ADD SWAP1 POP DUP2 DUP2 SUB PUSH0 DUP4 ADD MSTORE PUSH2 0x2F6 DUP2 PUSH2 0x2BD JUMP JUMPDEST SWAP1 POP SWAP2 SWAP1 POP JUMP JUMPDEST PUSH0 DUP2 SWAP1 POP SWAP2 SWAP1 POP JUMP JUMPDEST PUSH2 0x317 PUSH2 0x312 DUP3 PUSH2 0x1FF JUMP JUMPDEST PUSH2 0x2FD JUMP JUMPDEST DUP3 MSTORE POP POP JUMP JUMPDEST PUSH0 PUSH2 0x327 DUP3 PUSH2 0x168 JUMP JUMPDEST SWAP1 POP SWAP2 SWAP1 POP JUMP JUMPDEST PUSH0 DUP2 PUSH1 0x60 SHL SWAP1 POP SWAP2 SWAP1 POP JUMP JUMPDEST PUSH0 PUSH2 0x344 DUP3 PUSH2 0x32E JUMP JUMPDEST SWAP1 POP SWAP2 SWAP1 POP JUMP JUMPDEST PUSH0 PUSH2 0x355 DUP3 PUSH2 0x33A JUMP JUMPDEST SWAP1 POP SWAP2 SWAP1 POP JUMP JUMPDEST PUSH2 0x36D PUSH2 0x368 DUP3 PUSH2 0x31D JUMP JUMPDEST PUSH2 0x34B JUMP JUMPDEST DUP3 MSTORE POP POP JUMP JUMPDEST PUSH0 DUP2 PUSH1 0x20 SHL SWAP1 POP SWAP2 SWAP1 POP JUMP JUMPDEST PUSH0 DUP2 PUSH1 0x40 SHL SWAP1 POP SWAP2 SWAP1 POP JUMP JUMPDEST PUSH0 PUSH2 0x3A5 PUSH4 0xFFFFFFFF DUP5 AND PUSH2 0x39F DUP5 PUSH2 0x373 JUMP JUMPDEST OR PUSH2 0x37F JUMP JUMPDEST SWAP1 POP SWAP3 SWAP2 POP POP JUMP JUMPDEST PUSH0 DUP1 DUP3 SWAP2 POP DUP4 SWAP1 POP SWAP3 POP SWAP3 SWAP1 POP JUMP JUMPDEST PUSH2 0x3C6 DUP3 DUP3 PUSH2 0x3AD JUMP JUMPDEST SWAP3 POP SWAP1 POP PUSH2 0x3D4 DUP3 DUP3 PUSH2 0x38B JUMP JUMPDEST DUP4 MSTORE POP POP POP JUMP JUMPDEST PUSH0 PUSH2 0x3E6 DUP3 DUP9 PUSH2 0x306 JUMP JUMPDEST PUSH1 0x20 DUP3 ADD SWAP2 POP PUSH2 0x3F6 DUP3 DUP8 PUSH2 0x306 JUMP JUMPDEST PUSH1 0x20 DUP3 ADD SWAP2 POP PUSH2 0x406 DUP3 DUP7 PUSH2 0x35C JUMP JUMPDEST PUSH1 0x14 DUP3 ADD SWAP2 POP PUSH2 0x417 DUP3 DUP5 DUP7 PUSH2 0x3BC JUMP JUMPDEST PUSH1 0x18 DUP3 ADD SWAP2 POP DUP2 SWAP1 POP SWAP7 SWAP6 POP POP POP POP POP POP JUMP JUMPDEST PUSH32 0x4E487B7100000000000000000000000000000000000000000000000000000000 PUSH0 MSTORE PUSH1 0x12 PUSH1 0x4 MSTORE PUSH1 0x24 PUSH0 REVERT JUMPDEST PUSH0 PUSH2 0x461 DUP3 PUSH2 0x1FF JUMP JUMPDEST SWAP2 POP PUSH2 0x46C DUP4 PUSH2 0x1FF JUMP JUMPDEST SWAP3 POP DUP3 PUSH2 0x47C JUMPI PUSH2 0x47B PUSH2 0x42A JUMP JUMPDEST JUMPDEST DUP3 DUP3 MOD SWAP1 POP SWAP3 SWAP2 POP POP JUMP INVALID LOG2 PUSH5 0x6970667358 0x22 SLT KECCAK256 PUSH12 0x6BA5C2514C05AFC3C8B91DE1 0xEA BALANCE LOG3 SWAP9 SWAP2 0x28 MOD EXTCODECOPY LOG0 0xDB 0xB1 CALL 0xA9 0xD DELEGATECALL SAR 0xB7 0xE9 PUSH14 0x64736F6C634300081A0033000000 "
				},
				"gasEstimates": {
					"creation": {
						"codeDepositCost": "242600",
						"executionCost": "infinite",
						"totalCost": "infinite"
					},
					"external": {
						"o()": "infinite",
						"randMod(uint256)": "infinite"
					}
				},
				"methodIdentifiers": {
					"o()": "50cd4df2",
					"randMod(uint256)": "805553e8"
				}
			},
			"storageLayout": {
				"storage": [
					{
						"astId": 36,
						"contract": "contracts/oracle.sol:GeneratingRandomNumber",
						"label": "o",
						"offset": 0,
						"slot": "0",
						"type": "t_contract(Oracle)33"
					}
				],
				"types": {
					"t_contract(Oracle)33": {
						"encoding": "inplace",
						"label": "contract Oracle",
						"numberOfBytes": "20"
					}
				}
			},
			"userdoc": {
				"kind": "user",
				"methods": {},
				"version": 1
			}
		}
	}
}