{
	"data": {
		"bytecode": {
			"linkReferences": {},
			"object": "6080604052348015600e575f80fd5b506105a88061001c5f395ff3fe608060405234801561000f575f80fd5b5060043610610034575f3560e01c80637b5f4eef14610038578063f6bb33b114610056575b5f80fd5b610040610060565b60405161004d919061025c565b60405180910390f35b61005e610112565b005b610068610181565b5f6040518060400160405290815f82018054610083906102a9565b80601f01602080910402602001604051908101604052809291908181526020018280546100af906102a9565b80156100fa5780601f106100d1576101008083540402835291602001916100fa565b820191905f5260205f20905b8154815290600101906020018083116100dd57829003601f168201915b50505050508152602001600182015481525050905090565b60405180604001604052806040518060400160405280601481526020017f54686520477265617420526564656d7074696f6e000000000000000000000000815250815260200160658152505f80820151815f01908161017191906104a3565b5060208201518160010155905050565b6040518060400160405280606081526020015f81525090565b5f81519050919050565b5f82825260208201905092915050565b8281835e5f83830152505050565b5f601f19601f8301169050919050565b5f6101dc8261019a565b6101e681856101a4565b93506101f68185602086016101b4565b6101ff816101c2565b840191505092915050565b5f819050919050565b61021c8161020a565b82525050565b5f604083015f8301518482035f86015261023c82826101d2565b91505060208301516102516020860182610213565b508091505092915050565b5f6020820190508181035f8301526102748184610222565b905092915050565b7f4e487b71000000000000000000000000000000000000000000000000000000005f52602260045260245ffd5b5f60028204905060018216806102c057607f821691505b6020821081036102d3576102d261027c565b5b50919050565b7f4e487b71000000000000000000000000000000000000000000000000000000005f52604160045260245ffd5b5f819050815f5260205f209050919050565b5f6020601f8301049050919050565b5f82821b905092915050565b5f600883026103627fffffffffffffffffffffffffffffffffffffffffffffffffffffffffffffffff82610327565b61036c8683610327565b95508019841693508086168417925050509392505050565b5f819050919050565b5f6103a76103a261039d8461020a565b610384565b61020a565b9050919050565b5f819050919050565b6103c08361038d565b6103d46103cc826103ae565b848454610333565b825550505050565b5f90565b6103e86103dc565b6103f38184846103b7565b505050565b5b818110156104165761040b5f826103e0565b6001810190506103f9565b5050565b601f82111561045b5761042c81610306565b61043584610318565b81016020851015610444578190505b61045861045085610318565b8301826103f8565b50505b505050565b5f82821c905092915050565b5f61047b5f1984600802610460565b1980831691505092915050565b5f610493838361046c565b9150826002028217905092915050565b6104ac8261019a565b67ffffffffffffffff8111156104c5576104c46102d9565b5b6104cf82546102a9565b6104da82828561041a565b5f60209050601f83116001811461050b575f84156104f9578287015190505b6105038582610488565b86555061056a565b601f19841661051986610306565b5f5b828110156105405784890151825560018201915060208501945060208101905061051b565b8683101561055d5784890151610559601f89168261046c565b8355505b6001600288020188555050505b50505050505056fea26469706673582212208e6147bfc4740532daaaa58b427f99c8c08bccea35276efa08dc8ccf720e7c5264736f6c634300081a0033",
			"opcodes": "PUSH1 0x80 PUSH1 0x40 MSTORE CALLVALUE DUP1 ISZERO PUSH1 0xE JUMPI PUSH0 DUP1 REVERT JUMPDEST POP PUSH2 0x5A8 DUP1 PUSH2 0x1C PUSH0 CODECOPY PUSH0 RETURN INVALID PUSH1 0x80 PUSH1 0x40 MSTORE CALLVALUE DUP1 ISZERO PUSH2 0xF JUMPI PUSH0 DUP1 REVERT JUMPDEST POP PUSH1 0x4 CALLDATASIZE LT PUSH2 0x34 JUMPI PUSH0 CALLDATALOAD PUSH1 0xE0 SHR DUP1 PUSH4 0x7B5F4EEF EQ PUSH2 0x38 JUMPI DUP1 PUSH4 0xF6BB33B1 EQ PUSH2 0x56 JUMPI JUMPDEST PUSH0 DUP1 REVERT JUMPDEST PUSH2 0x40 PUSH2 0x60 JUMP JUMPDEST PUSH1 0x40 MLOAD PUSH2 0x4D SWAP2 SWAP1 PUSH2 0x25C JUMP JUMPDEST PUSH1 0x40 MLOAD DUP1 SWAP2 SUB SWAP1 RETURN JUMPDEST PUSH2 0x5E PUSH2 0x112 JUMP JUMPDEST STOP JUMPDEST PUSH2 0x68 PUSH2 0x181 JUMP JUMPDEST PUSH0 PUSH1 0x40 MLOAD DUP1 PUSH1 0x40 ADD PUSH1 0x40 MSTORE SWAP1 DUP2 PUSH0 DUP3 ADD DUP1 SLOAD PUSH2 0x83 SWAP1 PUSH2 0x2A9 JUMP JUMPDEST DUP1 PUSH1 0x1F ADD PUSH1 0x20 DUP1 SWAP2 DIV MUL PUSH1 0x20 ADD PUSH1 0x40 MLOAD SWAP1 DUP2 ADD PUSH1 0x40 MSTORE DUP1 SWAP3 SWAP2 SWAP1 DUP2 DUP2 MSTORE PUSH1 0x20 ADD DUP3 DUP1 SLOAD PUSH2 0xAF SWAP1 PUSH2 0x2A9 JUMP JUMPDEST DUP1 ISZERO PUSH2 0xFA JUMPI DUP1 PUSH1 0x1F LT PUSH2 0xD1 JUMPI PUSH2 0x100 DUP1 DUP4 SLOAD DIV MUL DUP4 MSTORE SWAP2 PUSH1 0x20 ADD SWAP2 PUSH2 0xFA JUMP JUMPDEST DUP3 ADD SWAP2 SWAP1 PUSH0 MSTORE PUSH1 0x20 PUSH0 KECCAK256 SWAP1 JUMPDEST DUP2 SLOAD DUP2 MSTORE SWAP1 PUSH1 0x1 ADD SWAP1 PUSH1 0x20 ADD DUP1 DUP4 GT PUSH2 0xDD JUMPI DUP3 SWAP1 SUB PUSH1 0x1F AND DUP3 ADD SWAP2 JUMPDEST POP POP POP POP POP DUP2 MSTORE PUSH1 0x20 ADD PUSH1 0x1 DUP3 ADD SLOAD DUP2 MSTORE POP POP SWAP1 POP SWAP1 JUMP JUMPDEST PUSH1 0x40 MLOAD DUP1 PUSH1 0x40 ADD PUSH1 0x40 MSTORE DUP1 PUSH1 0x40 MLOAD DUP1 PUSH1 0x40 ADD PUSH1 0x40 MSTORE DUP1 PUSH1 0x14 DUP2 MSTORE PUSH1 0x20 ADD PUSH32 0x54686520477265617420526564656D7074696F6E000000000000000000000000 DUP2 MSTORE POP DUP2 MSTORE PUSH1 0x20 ADD PUSH1 0x65 DUP2 MSTORE POP PUSH0 DUP1 DUP3 ADD MLOAD DUP2 PUSH0 ADD SWAP1 DUP2 PUSH2 0x171 SWAP2 SWAP1 PUSH2 0x4A3 JUMP JUMPDEST POP PUSH1 0x20 DUP3 ADD MLOAD DUP2 PUSH1 0x1 ADD SSTORE SWAP1 POP POP JUMP JUMPDEST PUSH1 0x40 MLOAD DUP1 PUSH1 0x40 ADD PUSH1 0x40 MSTORE DUP1 PUSH1 0x60 DUP2 MSTORE PUSH1 0x20 ADD PUSH0 DUP2 MSTORE POP SWAP1 JUMP JUMPDEST PUSH0 DUP2 MLOAD SWAP1 POP SWAP2 SWAP1 POP JUMP JUMPDEST PUSH0 DUP3 DUP3 MSTORE PUSH1 0x20 DUP3 ADD SWAP1 POP SWAP3 SWAP2 POP POP JUMP JUMPDEST DUP3 DUP2 DUP4 MCOPY PUSH0 DUP4 DUP4 ADD MSTORE POP POP POP JUMP JUMPDEST PUSH0 PUSH1 0x1F NOT PUSH1 0x1F DUP4 ADD AND SWAP1 POP SWAP2 SWAP1 POP JUMP JUMPDEST PUSH0 PUSH2 0x1DC DUP3 PUSH2 0x19A JUMP JUMPDEST PUSH2 0x1E6 DUP2 DUP6 PUSH2 0x1A4 JUMP JUMPDEST SWAP4 POP PUSH2 0x1F6 DUP2 DUP6 PUSH1 0x20 DUP7 ADD PUSH2 0x1B4 JUMP JUMPDEST PUSH2 0x1FF DUP2 PUSH2 0x1C2 JUMP JUMPDEST DUP5 ADD SWAP2 POP POP SWAP3 SWAP2 POP POP JUMP JUMPDEST PUSH0 DUP2 SWAP1 POP SWAP2 SWAP1 POP JUMP JUMPDEST PUSH2 0x21C DUP2 PUSH2 0x20A JUMP JUMPDEST DUP3 MSTORE POP POP JUMP JUMPDEST PUSH0 PUSH1 0x40 DUP4 ADD PUSH0 DUP4 ADD MLOAD DUP5 DUP3 SUB PUSH0 DUP7 ADD MSTORE PUSH2 0x23C DUP3 DUP3 PUSH2 0x1D2 JUMP JUMPDEST SWAP2 POP POP PUSH1 0x20 DUP4 ADD MLOAD PUSH2 0x251 PUSH1 0x20 DUP7 ADD DUP3 PUSH2 0x213 JUMP JUMPDEST POP DUP1 SWAP2 POP POP SWAP3 SWAP2 POP POP JUMP JUMPDEST PUSH0 PUSH1 0x20 DUP3 ADD SWAP1 POP DUP2 DUP2 SUB PUSH0 DUP4 ADD MSTORE PUSH2 0x274 DUP2 DUP5 PUSH2 0x222 JUMP JUMPDEST SWAP1 POP SWAP3 SWAP2 POP POP JUMP JUMPDEST PUSH32 0x4E487B7100000000000000000000000000000000000000000000000000000000 PUSH0 MSTORE PUSH1 0x22 PUSH1 0x4 MSTORE PUSH1 0x24 PUSH0 REVERT JUMPDEST PUSH0 PUSH1 0x2 DUP3 DIV SWAP1 POP PUSH1 0x1 DUP3 AND DUP1 PUSH2 0x2C0 JUMPI PUSH1 0x7F DUP3 AND SWAP2 POP JUMPDEST PUSH1 0x20 DUP3 LT DUP2 SUB PUSH2 0x2D3 JUMPI PUSH2 0x2D2 PUSH2 0x27C JUMP JUMPDEST JUMPDEST POP SWAP2 SWAP1 POP JUMP JUMPDEST PUSH32 0x4E487B7100000000000000000000000000000000000000000000000000000000 PUSH0 MSTORE PUSH1 0x41 PUSH1 0x4 MSTORE PUSH1 0x24 PUSH0 REVERT JUMPDEST PUSH0 DUP2 SWAP1 POP DUP2 PUSH0 MSTORE PUSH1 0x20 PUSH0 KECCAK256 SWAP1 POP SWAP2 SWAP1 POP JUMP JUMPDEST PUSH0 PUSH1 0x20 PUSH1 0x1F DUP4 ADD DIV SWAP1 POP SWAP2 SWAP1 POP JUMP JUMPDEST PUSH0 DUP3 DUP3 SHL SWAP1 POP SWAP3 SWAP2 POP POP JUMP JUMPDEST PUSH0 PUSH1 0x8 DUP4 MUL PUSH2 0x362 PUSH32 0xFFFFFFFFFFFFFFFFFFFFFFFFFFFFFFFFFFFFFFFFFFFFFFFFFFFFFFFFFFFFFFFF DUP3 PUSH2 0x327 JUMP JUMPDEST PUSH2 0x36C DUP7 DUP4 PUSH2 0x327 JUMP JUMPDEST SWAP6 POP DUP1 NOT DUP5 AND SWAP4 POP DUP1 DUP7 AND DUP5 OR SWAP3 POP POP POP SWAP4 SWAP3 POP POP POP JUMP JUMPDEST PUSH0 DUP2 SWAP1 POP SWAP2 SWAP1 POP JUMP JUMPDEST PUSH0 PUSH2 0x3A7 PUSH2 0x3A2 PUSH2 0x39D DUP5 PUSH2 0x20A JUMP JUMPDEST PUSH2 0x384 JUMP JUMPDEST PUSH2 0x20A JUMP JUMPDEST SWAP1 POP SWAP2 SWAP1 POP JUMP JUMPDEST PUSH0 DUP2 SWAP1 POP SWAP2 SWAP1 POP JUMP JUMPDEST PUSH2 0x3C0 DUP4 PUSH2 0x38D JUMP JUMPDEST PUSH2 0x3D4 PUSH2 0x3CC DUP3 PUSH2 0x3AE JUMP JUMPDEST DUP5 DUP5 SLOAD PUSH2 0x333 JUMP JUMPDEST DUP3 SSTORE POP POP POP POP JUMP JUMPDEST PUSH0 SWAP1 JUMP JUMPDEST PUSH2 0x3E8 PUSH2 0x3DC JUMP JUMPDEST PUSH2 0x3F3 DUP2 DUP5 DUP5 PUSH2 0x3B7 JUMP JUMPDEST POP POP POP JUMP JUMPDEST JUMPDEST DUP2 DUP2 LT ISZERO PUSH2 0x416 JUMPI PUSH2 0x40B PUSH0 DUP3 PUSH2 0x3E0 JUMP JUMPDEST PUSH1 0x1 DUP2 ADD SWAP1 POP PUSH2 0x3F9 JUMP JUMPDEST POP POP JUMP JUMPDEST PUSH1 0x1F DUP3 GT ISZERO PUSH2 0x45B JUMPI PUSH2 0x42C DUP2 PUSH2 0x306 JUMP JUMPDEST PUSH2 0x435 DUP5 PUSH2 0x318 JUMP JUMPDEST DUP2 ADD PUSH1 0x20 DUP6 LT ISZERO PUSH2 0x444 JUMPI DUP2 SWAP1 POP JUMPDEST PUSH2 0x458 PUSH2 0x450 DUP6 PUSH2 0x318 JUMP JUMPDEST DUP4 ADD DUP3 PUSH2 0x3F8 JUMP JUMPDEST POP POP JUMPDEST POP POP POP JUMP JUMPDEST PUSH0 DUP3 DUP3 SHR SWAP1 POP SWAP3 SWAP2 POP POP JUMP JUMPDEST PUSH0 PUSH2 0x47B PUSH0 NOT DUP5 PUSH1 0x8 MUL PUSH2 0x460 JUMP JUMPDEST NOT DUP1 DUP4 AND SWAP2 POP POP SWAP3 SWAP2 POP POP JUMP JUMPDEST PUSH0 PUSH2 0x493 DUP4 DUP4 PUSH2 0x46C JUMP JUMPDEST SWAP2 POP DUP3 PUSH1 0x2 MUL DUP3 OR SWAP1 POP SWAP3 SWAP2 POP POP JUMP JUMPDEST PUSH2 0x4AC DUP3 PUSH2 0x19A JUMP JUMPDEST PUSH8 0xFFFFFFFFFFFFFFFF DUP2 GT ISZERO PUSH2 0x4C5 JUMPI PUSH2 0x4C4 PUSH2 0x2D9 JUMP JUMPDEST JUMPDEST PUSH2 0x4CF DUP3 SLOAD PUSH2 0x2A9 JUMP JUMPDEST PUSH2 0x4DA DUP3 DUP3 DUP6 PUSH2 0x41A JUMP JUMPDEST PUSH0 PUSH1 0x20 SWAP1 POP PUSH1 0x1F DUP4 GT PUSH1 0x1 DUP2 EQ PUSH2 0x50B JUMPI PUSH0 DUP5 ISZERO PUSH2 0x4F9 JUMPI DUP3 DUP8 ADD MLOAD SWAP1 POP JUMPDEST PUSH2 0x503 DUP6 DUP3 PUSH2 0x488 JUMP JUMPDEST DUP7 SSTORE POP PUSH2 0x56A JUMP JUMPDEST PUSH1 0x1F NOT DUP5 AND PUSH2 0x519 DUP7 PUSH2 0x306 JUMP JUMPDEST PUSH0 JUMPDEST DUP3 DUP2 LT ISZERO PUSH2 0x540 JUMPI DUP5 DUP10 ADD MLOAD DUP3 SSTORE PUSH1 0x1 DUP3 ADD SWAP2 POP PUSH1 0x20 DUP6 ADD SWAP5 POP PUSH1 0x20 DUP2 ADD SWAP1 POP PUSH2 0x51B JUMP JUMPDEST DUP7 DUP4 LT ISZERO PUSH2 0x55D JUMPI DUP5 DUP10 ADD MLOAD PUSH2 0x559 PUSH1 0x1F DUP10 AND DUP3 PUSH2 0x46C JUMP JUMPDEST DUP4 SSTORE POP JUMPDEST PUSH1 0x1 PUSH1 0x2 DUP9 MUL ADD DUP9 SSTORE POP POP POP JUMPDEST POP POP POP POP POP POP JUMP INVALID LOG2 PUSH5 0x6970667358 0x22 SLT KECCAK256 DUP15 PUSH2 0x47BF 0xC4 PUSH21 0x532DAAAA58B427F99C8C08BCCEA35276EFA08DC8C 0xCF PUSH19 0xE7C5264736F6C634300081A00330000000000 "
		},
		"gasEstimates": {
			"creation": {
				"codeDepositCost": "289600",
				"executionCost": "329",
				"totalCost": "289929"
			},
			"external": {
				"getMovie()": "infinite",
				"setMovie()": "infinite"
			}
		},
		"methodIdentifiers": {
			"getMovie()": "7b5f4eef",
			"setMovie()": "f6bb33b1"
		}
	},
	"abi": [
		{
			"inputs": [],
			"name": "getMovie",
			"outputs": [
				{
					"components": [
						{
							"internalType": "string",
							"name": "title",
							"type": "string"
						},
						{
							"internalType": "uint256",
							"name": "movieId",
							"type": "uint256"
						}
					],
					"internalType": "struct structs_tests.Movie",
					"name": "",
					"type": "tuple"
				}
			],
			"stateMutability": "view",
			"type": "function"
		},
		{
			"inputs": [],
			"name": "setMovie",
			"outputs": [],
			"stateMutability": "nonpayable",
			"type": "function"
		}
	]
}