{
	"data": {
		"bytecode": {
			"linkReferences": {},
			"object": "6080604052348015600e575f80fd5b5061079d8061001c5f395ff3fe608060405260043610610042575f3560e01c80631eb5ea2e1461004b57806342e94c9014610075578063d7bb99ba146100b1578063dc0d3dff146100bb57610049565b3661004957005b005b348015610056575f80fd5b5061005f6100f7565b60405161006c9190610443565b60405180910390f35b348015610080575f80fd5b5061009b600480360381019061009691906104ba565b61029f565b6040516100a891906104fd565b60405180910390f35b6100b96102b4565b005b3480156100c6575f80fd5b506100e160048036038101906100dc9190610540565b6103ef565b6040516100ee919061057a565b60405180910390f35b5f6001610102575f80fd5b5f808054905090505f5b81811015610296575f80828154811061012857610127610593565b5b905f5260205f20015f9054906101000a900473ffffffffffffffffffffffffffffffffffffffff1690505f60015f8373ffffffffffffffffffffffffffffffffffffffff1673ffffffffffffffffffffffffffffffffffffffff1681526020019081526020015f205490505f811115610287575f8273ffffffffffffffffffffffffffffffffffffffff16826040516101c0906105ed565b5f6040518083038185875af1925050503d805f81146101fa576040519150601f19603f3d011682016040523d82523d5f602084013e6101ff565b606091505b5050905080610243576040517f08c379a000000000000000000000000000000000000000000000000000000000815260040161023a9061065b565b60405180910390fd5b5f60015f8573ffffffffffffffffffffffffffffffffffffffff1673ffffffffffffffffffffffffffffffffffffffff1681526020019081526020015f2081905550505b5050808060010191505061010c565b50600191505090565b6001602052805f5260405f205f915090505481565b5f34116102f6576040517f08c379a00000000000000000000000000000000000000000000000000000000081526004016102ed906106e9565b60405180910390fd5b5f60015f3373ffffffffffffffffffffffffffffffffffffffff1673ffffffffffffffffffffffffffffffffffffffff1681526020019081526020015f20540361039a575f33908060018154018082558091505060019003905f5260205f20015f9091909190916101000a81548173ffffffffffffffffffffffffffffffffffffffff021916908373ffffffffffffffffffffffffffffffffffffffff1602179055505b3460015f3373ffffffffffffffffffffffffffffffffffffffff1673ffffffffffffffffffffffffffffffffffffffff1681526020019081526020015f205f8282546103e69190610734565b92505081905550565b5f81815481106103fd575f80fd5b905f5260205f20015f915054906101000a900473ffffffffffffffffffffffffffffffffffffffff1681565b5f8115159050919050565b61043d81610429565b82525050565b5f6020820190506104565f830184610434565b92915050565b5f80fd5b5f73ffffffffffffffffffffffffffffffffffffffff82169050919050565b5f61048982610460565b9050919050565b6104998161047f565b81146104a3575f80fd5b50565b5f813590506104b481610490565b92915050565b5f602082840312156104cf576104ce61045c565b5b5f6104dc848285016104a6565b91505092915050565b5f819050919050565b6104f7816104e5565b82525050565b5f6020820190506105105f8301846104ee565b92915050565b61051f816104e5565b8114610529575f80fd5b50565b5f8135905061053a81610516565b92915050565b5f602082840312156105555761055461045c565b5b5f6105628482850161052c565b91505092915050565b6105748161047f565b82525050565b5f60208201905061058d5f83018461056b565b92915050565b7f4e487b71000000000000000000000000000000000000000000000000000000005f52603260045260245ffd5b5f81905092915050565b50565b5f6105d85f836105c0565b91506105e3826105ca565b5f82019050919050565b5f6105f7826105cd565b9150819050919050565b5f82825260208201905092915050565b7f4661696c656420746f2073656e642045746865720000000000000000000000005f82015250565b5f610645601483610601565b915061065082610611565b602082019050919050565b5f6020820190508181035f83015261067281610639565b9050919050565b7f436f6e747269627574696f6e206d7573742062652067726561746572207468615f8201527f6e20300000000000000000000000000000000000000000000000000000000000602082015250565b5f6106d3602383610601565b91506106de82610679565b604082019050919050565b5f6020820190508181035f830152610700816106c7565b9050919050565b7f4e487b71000000000000000000000000000000000000000000000000000000005f52601160045260245ffd5b5f61073e826104e5565b9150610749836104e5565b925082820190508082111561076157610760610707565b5b9291505056fea264697066735822122064b5b0ab13bbc7bc732eaa4d466c4489c3d29d8de624f21a039899cf4767782964736f6c634300081a0033",
			"opcodes": "PUSH1 0x80 PUSH1 0x40 MSTORE CALLVALUE DUP1 ISZERO PUSH1 0xE JUMPI PUSH0 DUP1 REVERT JUMPDEST POP PUSH2 0x79D DUP1 PUSH2 0x1C PUSH0 CODECOPY PUSH0 RETURN INVALID PUSH1 0x80 PUSH1 0x40 MSTORE PUSH1 0x4 CALLDATASIZE LT PUSH2 0x42 JUMPI PUSH0 CALLDATALOAD PUSH1 0xE0 SHR DUP1 PUSH4 0x1EB5EA2E EQ PUSH2 0x4B JUMPI DUP1 PUSH4 0x42E94C90 EQ PUSH2 0x75 JUMPI DUP1 PUSH4 0xD7BB99BA EQ PUSH2 0xB1 JUMPI DUP1 PUSH4 0xDC0D3DFF EQ PUSH2 0xBB JUMPI PUSH2 0x49 JUMP JUMPDEST CALLDATASIZE PUSH2 0x49 JUMPI STOP JUMPDEST STOP JUMPDEST CALLVALUE DUP1 ISZERO PUSH2 0x56 JUMPI PUSH0 DUP1 REVERT JUMPDEST POP PUSH2 0x5F PUSH2 0xF7 JUMP JUMPDEST PUSH1 0x40 MLOAD PUSH2 0x6C SWAP2 SWAP1 PUSH2 0x443 JUMP JUMPDEST PUSH1 0x40 MLOAD DUP1 SWAP2 SUB SWAP1 RETURN JUMPDEST CALLVALUE DUP1 ISZERO PUSH2 0x80 JUMPI PUSH0 DUP1 REVERT JUMPDEST POP PUSH2 0x9B PUSH1 0x4 DUP1 CALLDATASIZE SUB DUP2 ADD SWAP1 PUSH2 0x96 SWAP2 SWAP1 PUSH2 0x4BA JUMP JUMPDEST PUSH2 0x29F JUMP JUMPDEST PUSH1 0x40 MLOAD PUSH2 0xA8 SWAP2 SWAP1 PUSH2 0x4FD JUMP JUMPDEST PUSH1 0x40 MLOAD DUP1 SWAP2 SUB SWAP1 RETURN JUMPDEST PUSH2 0xB9 PUSH2 0x2B4 JUMP JUMPDEST STOP JUMPDEST CALLVALUE DUP1 ISZERO PUSH2 0xC6 JUMPI PUSH0 DUP1 REVERT JUMPDEST POP PUSH2 0xE1 PUSH1 0x4 DUP1 CALLDATASIZE SUB DUP2 ADD SWAP1 PUSH2 0xDC SWAP2 SWAP1 PUSH2 0x540 JUMP JUMPDEST PUSH2 0x3EF JUMP JUMPDEST PUSH1 0x40 MLOAD PUSH2 0xEE SWAP2 SWAP1 PUSH2 0x57A JUMP JUMPDEST PUSH1 0x40 MLOAD DUP1 SWAP2 SUB SWAP1 RETURN JUMPDEST PUSH0 PUSH1 0x1 PUSH2 0x102 JUMPI PUSH0 DUP1 REVERT JUMPDEST PUSH0 DUP1 DUP1 SLOAD SWAP1 POP SWAP1 POP PUSH0 JUMPDEST DUP2 DUP2 LT ISZERO PUSH2 0x296 JUMPI PUSH0 DUP1 DUP3 DUP2 SLOAD DUP2 LT PUSH2 0x128 JUMPI PUSH2 0x127 PUSH2 0x593 JUMP JUMPDEST JUMPDEST SWAP1 PUSH0 MSTORE PUSH1 0x20 PUSH0 KECCAK256 ADD PUSH0 SWAP1 SLOAD SWAP1 PUSH2 0x100 EXP SWAP1 DIV PUSH20 0xFFFFFFFFFFFFFFFFFFFFFFFFFFFFFFFFFFFFFFFF AND SWAP1 POP PUSH0 PUSH1 0x1 PUSH0 DUP4 PUSH20 0xFFFFFFFFFFFFFFFFFFFFFFFFFFFFFFFFFFFFFFFF AND PUSH20 0xFFFFFFFFFFFFFFFFFFFFFFFFFFFFFFFFFFFFFFFF AND DUP2 MSTORE PUSH1 0x20 ADD SWAP1 DUP2 MSTORE PUSH1 0x20 ADD PUSH0 KECCAK256 SLOAD SWAP1 POP PUSH0 DUP2 GT ISZERO PUSH2 0x287 JUMPI PUSH0 DUP3 PUSH20 0xFFFFFFFFFFFFFFFFFFFFFFFFFFFFFFFFFFFFFFFF AND DUP3 PUSH1 0x40 MLOAD PUSH2 0x1C0 SWAP1 PUSH2 0x5ED JUMP JUMPDEST PUSH0 PUSH1 0x40 MLOAD DUP1 DUP4 SUB DUP2 DUP6 DUP8 GAS CALL SWAP3 POP POP POP RETURNDATASIZE DUP1 PUSH0 DUP2 EQ PUSH2 0x1FA JUMPI PUSH1 0x40 MLOAD SWAP2 POP PUSH1 0x1F NOT PUSH1 0x3F RETURNDATASIZE ADD AND DUP3 ADD PUSH1 0x40 MSTORE RETURNDATASIZE DUP3 MSTORE RETURNDATASIZE PUSH0 PUSH1 0x20 DUP5 ADD RETURNDATACOPY PUSH2 0x1FF JUMP JUMPDEST PUSH1 0x60 SWAP2 POP JUMPDEST POP POP SWAP1 POP DUP1 PUSH2 0x243 JUMPI PUSH1 0x40 MLOAD PUSH32 0x8C379A000000000000000000000000000000000000000000000000000000000 DUP2 MSTORE PUSH1 0x4 ADD PUSH2 0x23A SWAP1 PUSH2 0x65B JUMP JUMPDEST PUSH1 0x40 MLOAD DUP1 SWAP2 SUB SWAP1 REVERT JUMPDEST PUSH0 PUSH1 0x1 PUSH0 DUP6 PUSH20 0xFFFFFFFFFFFFFFFFFFFFFFFFFFFFFFFFFFFFFFFF AND PUSH20 0xFFFFFFFFFFFFFFFFFFFFFFFFFFFFFFFFFFFFFFFF AND DUP2 MSTORE PUSH1 0x20 ADD SWAP1 DUP2 MSTORE PUSH1 0x20 ADD PUSH0 KECCAK256 DUP2 SWAP1 SSTORE POP POP JUMPDEST POP POP DUP1 DUP1 PUSH1 0x1 ADD SWAP2 POP POP PUSH2 0x10C JUMP JUMPDEST POP PUSH1 0x1 SWAP2 POP POP SWAP1 JUMP JUMPDEST PUSH1 0x1 PUSH1 0x20 MSTORE DUP1 PUSH0 MSTORE PUSH1 0x40 PUSH0 KECCAK256 PUSH0 SWAP2 POP SWAP1 POP SLOAD DUP2 JUMP JUMPDEST PUSH0 CALLVALUE GT PUSH2 0x2F6 JUMPI PUSH1 0x40 MLOAD PUSH32 0x8C379A000000000000000000000000000000000000000000000000000000000 DUP2 MSTORE PUSH1 0x4 ADD PUSH2 0x2ED SWAP1 PUSH2 0x6E9 JUMP JUMPDEST PUSH1 0x40 MLOAD DUP1 SWAP2 SUB SWAP1 REVERT JUMPDEST PUSH0 PUSH1 0x1 PUSH0 CALLER PUSH20 0xFFFFFFFFFFFFFFFFFFFFFFFFFFFFFFFFFFFFFFFF AND PUSH20 0xFFFFFFFFFFFFFFFFFFFFFFFFFFFFFFFFFFFFFFFF AND DUP2 MSTORE PUSH1 0x20 ADD SWAP1 DUP2 MSTORE PUSH1 0x20 ADD PUSH0 KECCAK256 SLOAD SUB PUSH2 0x39A JUMPI PUSH0 CALLER SWAP1 DUP1 PUSH1 0x1 DUP2 SLOAD ADD DUP1 DUP3 SSTORE DUP1 SWAP2 POP POP PUSH1 0x1 SWAP1 SUB SWAP1 PUSH0 MSTORE PUSH1 0x20 PUSH0 KECCAK256 ADD PUSH0 SWAP1 SWAP2 SWAP1 SWAP2 SWAP1 SWAP2 PUSH2 0x100 EXP DUP2 SLOAD DUP2 PUSH20 0xFFFFFFFFFFFFFFFFFFFFFFFFFFFFFFFFFFFFFFFF MUL NOT AND SWAP1 DUP4 PUSH20 0xFFFFFFFFFFFFFFFFFFFFFFFFFFFFFFFFFFFFFFFF AND MUL OR SWAP1 SSTORE POP JUMPDEST CALLVALUE PUSH1 0x1 PUSH0 CALLER PUSH20 0xFFFFFFFFFFFFFFFFFFFFFFFFFFFFFFFFFFFFFFFF AND PUSH20 0xFFFFFFFFFFFFFFFFFFFFFFFFFFFFFFFFFFFFFFFF AND DUP2 MSTORE PUSH1 0x20 ADD SWAP1 DUP2 MSTORE PUSH1 0x20 ADD PUSH0 KECCAK256 PUSH0 DUP3 DUP3 SLOAD PUSH2 0x3E6 SWAP2 SWAP1 PUSH2 0x734 JUMP JUMPDEST SWAP3 POP POP DUP2 SWAP1 SSTORE POP JUMP JUMPDEST PUSH0 DUP2 DUP2 SLOAD DUP2 LT PUSH2 0x3FD JUMPI PUSH0 DUP1 REVERT JUMPDEST SWAP1 PUSH0 MSTORE PUSH1 0x20 PUSH0 KECCAK256 ADD PUSH0 SWAP2 POP SLOAD SWAP1 PUSH2 0x100 EXP SWAP1 DIV PUSH20 0xFFFFFFFFFFFFFFFFFFFFFFFFFFFFFFFFFFFFFFFF AND DUP2 JUMP JUMPDEST PUSH0 DUP2 ISZERO ISZERO SWAP1 POP SWAP2 SWAP1 POP JUMP JUMPDEST PUSH2 0x43D DUP2 PUSH2 0x429 JUMP JUMPDEST DUP3 MSTORE POP POP JUMP JUMPDEST PUSH0 PUSH1 0x20 DUP3 ADD SWAP1 POP PUSH2 0x456 PUSH0 DUP4 ADD DUP5 PUSH2 0x434 JUMP JUMPDEST SWAP3 SWAP2 POP POP JUMP JUMPDEST PUSH0 DUP1 REVERT JUMPDEST PUSH0 PUSH20 0xFFFFFFFFFFFFFFFFFFFFFFFFFFFFFFFFFFFFFFFF DUP3 AND SWAP1 POP SWAP2 SWAP1 POP JUMP JUMPDEST PUSH0 PUSH2 0x489 DUP3 PUSH2 0x460 JUMP JUMPDEST SWAP1 POP SWAP2 SWAP1 POP JUMP JUMPDEST PUSH2 0x499 DUP2 PUSH2 0x47F JUMP JUMPDEST DUP2 EQ PUSH2 0x4A3 JUMPI PUSH0 DUP1 REVERT JUMPDEST POP JUMP JUMPDEST PUSH0 DUP2 CALLDATALOAD SWAP1 POP PUSH2 0x4B4 DUP2 PUSH2 0x490 JUMP JUMPDEST SWAP3 SWAP2 POP POP JUMP JUMPDEST PUSH0 PUSH1 0x20 DUP3 DUP5 SUB SLT ISZERO PUSH2 0x4CF JUMPI PUSH2 0x4CE PUSH2 0x45C JUMP JUMPDEST JUMPDEST PUSH0 PUSH2 0x4DC DUP5 DUP3 DUP6 ADD PUSH2 0x4A6 JUMP JUMPDEST SWAP2 POP POP SWAP3 SWAP2 POP POP JUMP JUMPDEST PUSH0 DUP2 SWAP1 POP SWAP2 SWAP1 POP JUMP JUMPDEST PUSH2 0x4F7 DUP2 PUSH2 0x4E5 JUMP JUMPDEST DUP3 MSTORE POP POP JUMP JUMPDEST PUSH0 PUSH1 0x20 DUP3 ADD SWAP1 POP PUSH2 0x510 PUSH0 DUP4 ADD DUP5 PUSH2 0x4EE JUMP JUMPDEST SWAP3 SWAP2 POP POP JUMP JUMPDEST PUSH2 0x51F DUP2 PUSH2 0x4E5 JUMP JUMPDEST DUP2 EQ PUSH2 0x529 JUMPI PUSH0 DUP1 REVERT JUMPDEST POP JUMP JUMPDEST PUSH0 DUP2 CALLDATALOAD SWAP1 POP PUSH2 0x53A DUP2 PUSH2 0x516 JUMP JUMPDEST SWAP3 SWAP2 POP POP JUMP JUMPDEST PUSH0 PUSH1 0x20 DUP3 DUP5 SUB SLT ISZERO PUSH2 0x555 JUMPI PUSH2 0x554 PUSH2 0x45C JUMP JUMPDEST JUMPDEST PUSH0 PUSH2 0x562 DUP5 DUP3 DUP6 ADD PUSH2 0x52C JUMP JUMPDEST SWAP2 POP POP SWAP3 SWAP2 POP POP JUMP JUMPDEST PUSH2 0x574 DUP2 PUSH2 0x47F JUMP JUMPDEST DUP3 MSTORE POP POP JUMP JUMPDEST PUSH0 PUSH1 0x20 DUP3 ADD SWAP1 POP PUSH2 0x58D PUSH0 DUP4 ADD DUP5 PUSH2 0x56B JUMP JUMPDEST SWAP3 SWAP2 POP POP JUMP JUMPDEST PUSH32 0x4E487B7100000000000000000000000000000000000000000000000000000000 PUSH0 MSTORE PUSH1 0x32 PUSH1 0x4 MSTORE PUSH1 0x24 PUSH0 REVERT JUMPDEST PUSH0 DUP2 SWAP1 POP SWAP3 SWAP2 POP POP JUMP JUMPDEST POP JUMP JUMPDEST PUSH0 PUSH2 0x5D8 PUSH0 DUP4 PUSH2 0x5C0 JUMP JUMPDEST SWAP2 POP PUSH2 0x5E3 DUP3 PUSH2 0x5CA JUMP JUMPDEST PUSH0 DUP3 ADD SWAP1 POP SWAP2 SWAP1 POP JUMP JUMPDEST PUSH0 PUSH2 0x5F7 DUP3 PUSH2 0x5CD JUMP JUMPDEST SWAP2 POP DUP2 SWAP1 POP SWAP2 SWAP1 POP JUMP JUMPDEST PUSH0 DUP3 DUP3 MSTORE PUSH1 0x20 DUP3 ADD SWAP1 POP SWAP3 SWAP2 POP POP JUMP JUMPDEST PUSH32 0x4661696C656420746F2073656E64204574686572000000000000000000000000 PUSH0 DUP3 ADD MSTORE POP JUMP JUMPDEST PUSH0 PUSH2 0x645 PUSH1 0x14 DUP4 PUSH2 0x601 JUMP JUMPDEST SWAP2 POP PUSH2 0x650 DUP3 PUSH2 0x611 JUMP JUMPDEST PUSH1 0x20 DUP3 ADD SWAP1 POP SWAP2 SWAP1 POP JUMP JUMPDEST PUSH0 PUSH1 0x20 DUP3 ADD SWAP1 POP DUP2 DUP2 SUB PUSH0 DUP4 ADD MSTORE PUSH2 0x672 DUP2 PUSH2 0x639 JUMP JUMPDEST SWAP1 POP SWAP2 SWAP1 POP JUMP JUMPDEST PUSH32 0x436F6E747269627574696F6E206D757374206265206772656174657220746861 PUSH0 DUP3 ADD MSTORE PUSH32 0x6E20300000000000000000000000000000000000000000000000000000000000 PUSH1 0x20 DUP3 ADD MSTORE POP JUMP JUMPDEST PUSH0 PUSH2 0x6D3 PUSH1 0x23 DUP4 PUSH2 0x601 JUMP JUMPDEST SWAP2 POP PUSH2 0x6DE DUP3 PUSH2 0x679 JUMP JUMPDEST PUSH1 0x40 DUP3 ADD SWAP1 POP SWAP2 SWAP1 POP JUMP JUMPDEST PUSH0 PUSH1 0x20 DUP3 ADD SWAP1 POP DUP2 DUP2 SUB PUSH0 DUP4 ADD MSTORE PUSH2 0x700 DUP2 PUSH2 0x6C7 JUMP JUMPDEST SWAP1 POP SWAP2 SWAP1 POP JUMP JUMPDEST PUSH32 0x4E487B7100000000000000000000000000000000000000000000000000000000 PUSH0 MSTORE PUSH1 0x11 PUSH1 0x4 MSTORE PUSH1 0x24 PUSH0 REVERT JUMPDEST PUSH0 PUSH2 0x73E DUP3 PUSH2 0x4E5 JUMP JUMPDEST SWAP2 POP PUSH2 0x749 DUP4 PUSH2 0x4E5 JUMP JUMPDEST SWAP3 POP DUP3 DUP3 ADD SWAP1 POP DUP1 DUP3 GT ISZERO PUSH2 0x761 JUMPI PUSH2 0x760 PUSH2 0x707 JUMP JUMPDEST JUMPDEST SWAP3 SWAP2 POP POP JUMP INVALID LOG2 PUSH5 0x6970667358 0x22 SLT KECCAK256 PUSH5 0xB5B0AB13BB 0xC7 0xBC PUSH20 0x2EAA4D466C4489C3D29D8DE624F21A039899CF47 PUSH8 0x782964736F6C6343 STOP ADDMOD BYTE STOP CALLER "
		},
		"gasEstimates": {
			"creation": {
				"codeDepositCost": "389800",
				"executionCost": "422",
				"totalCost": "390222"
			},
			"external": {
				"": "150",
				"contribute()": "infinite",
				"contributions(address)": "2802",
				"funders(uint256)": "4987",
				"returnFunds()": "infinite"
			}
		},
		"methodIdentifiers": {
			"contribute()": "d7bb99ba",
			"contributions(address)": "42e94c90",
			"funders(uint256)": "dc0d3dff",
			"returnFunds()": "1eb5ea2e"
		}
	},
	"abi": [
		{
			"stateMutability": "payable",
			"type": "fallback"
		},
		{
			"inputs": [],
			"name": "contribute",
			"outputs": [],
			"stateMutability": "payable",
			"type": "function"
		},
		{
			"inputs": [
				{
					"internalType": "address",
					"name": "",
					"type": "address"
				}
			],
			"name": "contributions",
			"outputs": [
				{
					"internalType": "uint256",
					"name": "",
					"type": "uint256"
				}
			],
			"stateMutability": "view",
			"type": "function"
		},
		{
			"inputs": [
				{
					"internalType": "uint256",
					"name": "",
					"type": "uint256"
				}
			],
			"name": "funders",
			"outputs": [
				{
					"internalType": "address",
					"name": "",
					"type": "address"
				}
			],
			"stateMutability": "view",
			"type": "function"
		},
		{
			"inputs": [],
			"name": "returnFunds",
			"outputs": [
				{
					"internalType": "bool",
					"name": "success",
					"type": "bool"
				}
			],
			"stateMutability": "nonpayable",
			"type": "function"
		},
		{
			"stateMutability": "payable",
			"type": "receive"
		}
	]
}